{
  "abi": [
    {
      "type": "constructor",
      "inputs": [
        {
          "name": "_expToTokenRate",
          "type": "uint256",
          "internalType": "uint256"
        }
      ],
      "stateMutability": "nonpayable"
    },
    {
      "type": "function",
      "name": "claimTokensForUser",
      "inputs": [
        {
          "name": "user",
          "type": "address",
          "internalType": "address"
        },
        {
          "name": "expAmount",
          "type": "uint256",
          "internalType": "uint256"
        }
      ],
      "outputs": [],
      "stateMutability": "nonpayable"
    },
    {
      "type": "function",
      "name": "expToTokenRate",
      "inputs": [],
      "outputs": [
        {
          "name": "",
          "type": "uint256",
          "internalType": "uint256"
        }
      ],
      "stateMutability": "view"
    },
    {
      "type": "function",
      "name": "getCredentialDetails",
      "inputs": [
        {
          "name": "user",
          "type": "address",
          "internalType": "address"
        },
        {
          "name": "programId",
          "type": "bytes32",
          "internalType": "bytes32"
        }
      ],
      "outputs": [
        {
          "name": "hasCredential",
          "type": "bool",
          "internalType": "bool"
        },
        {
          "name": "tokenId",
          "type": "uint256",
          "internalType": "uint256"
        },
        {
          "name": "issuedAt",
          "type": "uint256",
          "internalType": "uint256"
        }
      ],
      "stateMutability": "view"
    },
    {
      "type": "function",
      "name": "getUserStatus",
      "inputs": [
        {
          "name": "user",
          "type": "address",
          "internalType": "address"
        },
        {
          "name": "programId",
          "type": "bytes32",
          "internalType": "bytes32"
        }
      ],
      "outputs": [
        {
          "name": "tokenBalance",
          "type": "uint256",
          "internalType": "uint256"
        },
        {
          "name": "hasCredential",
          "type": "bool",
          "internalType": "bool"
        },
        {
          "name": "credentialTokenId",
          "type": "uint256",
          "internalType": "uint256"
        }
      ],
      "stateMutability": "view"
    },
    {
      "type": "function",
      "name": "issueCredentialForUser",
      "inputs": [
        {
          "name": "user",
          "type": "address",
          "internalType": "address"
        },
        {
          "name": "programId",
          "type": "bytes32",
          "internalType": "bytes32"
        }
      ],
      "outputs": [],
      "stateMutability": "nonpayable"
    },
    {
      "type": "function",
      "name": "owner",
      "inputs": [],
      "outputs": [
        {
          "name": "",
          "type": "address",
          "internalType": "address"
        }
      ],
      "stateMutability": "view"
    },
    {
      "type": "function",
      "name": "renounceOwnership",
      "inputs": [],
      "outputs": [],
      "stateMutability": "nonpayable"
    },
    {
      "type": "function",
      "name": "sbtContract",
      "inputs": [],
      "outputs": [
        {
          "name": "",
          "type": "address",
          "internalType": "contract KasturiSBT"
        }
      ],
      "stateMutability": "view"
    },
    {
      "type": "function",
      "name": "setContracts",
      "inputs": [
        {
          "name": "_token",
          "type": "address",
          "internalType": "address"
        },
        {
          "name": "_sbt",
          "type": "address",
          "internalType": "address"
        },
        {
          "name": "_voucher",
          "type": "address",
          "internalType": "address"
        }
      ],
      "outputs": [],
      "stateMutability": "nonpayable"
    },
    {
      "type": "function",
      "name": "setExpToTokenRate",
      "inputs": [
        {
          "name": "rate",
          "type": "uint256",
          "internalType": "uint256"
        }
      ],
      "outputs": [],
      "stateMutability": "nonpayable"
    },
    {
      "type": "function",
      "name": "tokenContract",
      "inputs": [],
      "outputs": [
        {
          "name": "",
          "type": "address",
          "internalType": "contract KasturiToken"
        }
      ],
      "stateMutability": "view"
    },
    {
      "type": "function",
      "name": "transferOwnership",
      "inputs": [
        {
          "name": "newOwner",
          "type": "address",
          "internalType": "address"
        }
      ],
      "outputs": [],
      "stateMutability": "nonpayable"
    },
    {
      "type": "function",
      "name": "verifyCompletion",
      "inputs": [
        {
          "name": "user",
          "type": "address",
          "internalType": "address"
        },
        {
          "name": "programId",
          "type": "bytes32",
          "internalType": "bytes32"
        }
      ],
      "outputs": [
        {
          "name": "",
          "type": "bool",
          "internalType": "bool"
        }
      ],
      "stateMutability": "view"
    },
    {
      "type": "function",
      "name": "voucherContract",
      "inputs": [],
      "outputs": [
        {
          "name": "",
          "type": "address",
          "internalType": "contract KasturiVoucher"
        }
      ],
      "stateMutability": "view"
    },
    {
      "type": "event",
      "name": "ContractsUpdated",
      "inputs": [
        {
          "name": "token",
          "type": "address",
          "indexed": false,
          "internalType": "address"
        },
        {
          "name": "sbt",
          "type": "address",
          "indexed": false,
          "internalType": "address"
        },
        {
          "name": "voucher",
          "type": "address",
          "indexed": false,
          "internalType": "address"
        }
      ],
      "anonymous": false
    },
    {
      "type": "event",
      "name": "CredentialIssued",
      "inputs": [
        {
          "name": "user",
          "type": "address",
          "indexed": true,
          "internalType": "address"
        },
        {
          "name": "programId",
          "type": "bytes32",
          "indexed": true,
          "internalType": "bytes32"
        },
        {
          "name": "tokenId",
          "type": "uint256",
          "indexed": false,
          "internalType": "uint256"
        }
      ],
      "anonymous": false
    },
    {
      "type": "event",
      "name": "ExpToTokenRateUpdated",
      "inputs": [
        {
          "name": "newRate",
          "type": "uint256",
          "indexed": false,
          "internalType": "uint256"
        }
      ],
      "anonymous": false
    },
    {
      "type": "event",
      "name": "OwnershipTransferred",
      "inputs": [
        {
          "name": "previousOwner",
          "type": "address",
          "indexed": true,
          "internalType": "address"
        },
        {
          "name": "newOwner",
          "type": "address",
          "indexed": true,
          "internalType": "address"
        }
      ],
      "anonymous": false
    },
    {
      "type": "event",
      "name": "TokensClaimed",
      "inputs": [
        {
          "name": "user",
          "type": "address",
          "indexed": true,
          "internalType": "address"
        },
        {
          "name": "expAmount",
          "type": "uint256",
          "indexed": false,
          "internalType": "uint256"
        },
        {
          "name": "tokenAmount",
          "type": "uint256",
          "indexed": false,
          "internalType": "uint256"
        }
      ],
      "anonymous": false
    },
    {
      "type": "error",
      "name": "ContractNotSet",
      "inputs": []
    },
    {
      "type": "error",
      "name": "CredentialAlreadyClaimed",
      "inputs": []
    },
    {
      "type": "error",
      "name": "InvalidAddress",
      "inputs": []
    },
    {
      "type": "error",
      "name": "InvalidAmount",
      "inputs": []
    },
    {
      "type": "error",
      "name": "InvalidProgram",
      "inputs": []
    },
    {
      "type": "error",
      "name": "OwnableInvalidOwner",
      "inputs": [
        {
          "name": "owner",
          "type": "address",
          "internalType": "address"
        }
      ]
    },
    {
      "type": "error",
      "name": "OwnableUnauthorizedAccount",
      "inputs": [
        {
          "name": "account",
          "type": "address",
          "internalType": "address"
        }
      ]
    }
  ],
  "bytecode": {
    "object": "0x608060405234801562000010575f80fd5b506040516200199d3803806200199d8339818101604052810190620000369190620001c7565b335f73ffffffffffffffffffffffffffffffffffffffff168173ffffffffffffffffffffffffffffffffffffffff1603620000aa575f6040517f1e4fbdf7000000000000000000000000000000000000000000000000000000008152600401620000a191906200023a565b60405180910390fd5b620000bb81620000ca60201b60201c565b50806004819055505062000255565b5f805f9054906101000a900473ffffffffffffffffffffffffffffffffffffffff169050815f806101000a81548173ffffffffffffffffffffffffffffffffffffffff021916908373ffffffffffffffffffffffffffffffffffffffff1602179055508173ffffffffffffffffffffffffffffffffffffffff168173ffffffffffffffffffffffffffffffffffffffff167f8be0079c531659141344cd1fd0a4f28419497f9722a3daafe3b4186f6b6457e060405160405180910390a35050565b5f80fd5b5f819050919050565b620001a3816200018f565b8114620001ae575f80fd5b50565b5f81519050620001c18162000198565b92915050565b5f60208284031215620001df57620001de6200018b565b5b5f620001ee84828501620001b1565b91505092915050565b5f73ffffffffffffffffffffffffffffffffffffffff82169050919050565b5f6200022282620001f7565b9050919050565b620002348162000216565b82525050565b5f6020820190506200024f5f83018462000229565b92915050565b61173a80620002635f395ff3fe608060405234801561000f575f80fd5b50600436106100e8575f3560e01c80638da5cb5b1161008a578063b2bae5e611610064578063b2bae5e61461023a578063b3066d4914610256578063c9851a6c14610272578063f2fde38b14610290576100e8565b80638da5cb5b146101e2578063aaa052a614610200578063b182efff1461021c576100e8565b80632a48198e116100c65780632a48198e1461015857806355a373d61461018a5780635b8b92e6146101a8578063715018a6146101d8576100e8565b80630400e8bc146100ec578063061583601461011e57806314a6da6d1461013c575b5f80fd5b610106600480360381019061010191906111c3565b6102ac565b60405161011593929190611233565b60405180910390f35b6101266103ba565b60405161013391906112c3565b60405180910390f35b610156600480360381019061015191906111c3565b6103df565b005b610172600480360381019061016d91906111c3565b6106d2565b604051610181939291906112dc565b60405180910390f35b61019261095b565b60405161019f9190611331565b60405180910390f35b6101c260048036038101906101bd91906111c3565b610980565b6040516101cf919061134a565b60405180910390f35b6101e0610a81565b005b6101ea610a94565b6040516101f79190611372565b60405180910390f35b61021a600480360381019061021591906113b5565b610abb565b005b610224610b3d565b60405161023191906113e0565b60405180910390f35b610254600480360381019061024f91906113f9565b610b43565b005b610270600480360381019061026b9190611437565b610d60565b005b61027a610f3a565b60405161028791906114a7565b60405180910390f35b6102aa60048036038101906102a591906114c0565b610f5f565b005b5f805f8073ffffffffffffffffffffffffffffffffffffffff1660025f9054906101000a900473ffffffffffffffffffffffffffffffffffffffff1673ffffffffffffffffffffffffffffffffffffffff1603610311575f805f9250925092506103b3565b60025f9054906101000a900473ffffffffffffffffffffffffffffffffffffffff1673ffffffffffffffffffffffffffffffffffffffff16632a48198e86866040518363ffffffff1660e01b815260040161036d9291906114fa565b606060405180830381865afa158015610388573d5f803e3d5ffd5b505050506040513d601f19601f820116820180604052508101906103ac919061155f565b9250925092505b9250925092565b60025f9054906101000a900473ffffffffffffffffffffffffffffffffffffffff1681565b6103e7610fe3565b5f73ffffffffffffffffffffffffffffffffffffffff1660025f9054906101000a900473ffffffffffffffffffffffffffffffffffffffff1673ffffffffffffffffffffffffffffffffffffffff160361046d576040517f8ddfc6f300000000000000000000000000000000000000000000000000000000815260040160405180910390fd5b5f73ffffffffffffffffffffffffffffffffffffffff168273ffffffffffffffffffffffffffffffffffffffff16036104d2576040517fe6c4247b00000000000000000000000000000000000000000000000000000000815260040160405180910390fd5b5f801b810361050d576040517f22d55eab00000000000000000000000000000000000000000000000000000000815260040160405180910390fd5b60025f9054906101000a900473ffffffffffffffffffffffffffffffffffffffff1673ffffffffffffffffffffffffffffffffffffffff16639db416bf83836040518363ffffffff1660e01b81526004016105699291906114fa565b602060405180830381865afa158015610584573d5f803e3d5ffd5b505050506040513d601f19601f820116820180604052508101906105a891906115af565b156105df576040517f8f4729f900000000000000000000000000000000000000000000000000000000815260040160405180910390fd5b5f60025f9054906101000a900473ffffffffffffffffffffffffffffffffffffffff1673ffffffffffffffffffffffffffffffffffffffff1663b4e5a8de84846040518363ffffffff1660e01b815260040161063c9291906114fa565b6020604051808303815f875af1158015610658573d5f803e3d5ffd5b505050506040513d601f19601f8201168201806040525081019061067c91906115da565b9050818373ffffffffffffffffffffffffffffffffffffffff167f266d5d1db5669b001451ba44353e35547ee39964af029c43340fe64dd3f9ee6d836040516106c591906113e0565b60405180910390a3505050565b5f805f8073ffffffffffffffffffffffffffffffffffffffff1660015f9054906101000a900473ffffffffffffffffffffffffffffffffffffffff1673ffffffffffffffffffffffffffffffffffffffff16146107c55760015f9054906101000a900473ffffffffffffffffffffffffffffffffffffffff1673ffffffffffffffffffffffffffffffffffffffff166370a08231866040518263ffffffff1660e01b81526004016107839190611372565b602060405180830381865afa15801561079e573d5f803e3d5ffd5b505050506040513d601f19601f820116820180604052508101906107c291906115da565b92505b5f73ffffffffffffffffffffffffffffffffffffffff1660025f9054906101000a900473ffffffffffffffffffffffffffffffffffffffff1673ffffffffffffffffffffffffffffffffffffffff16146109545760025f9054906101000a900473ffffffffffffffffffffffffffffffffffffffff1673ffffffffffffffffffffffffffffffffffffffff16639db416bf86866040518363ffffffff1660e01b81526004016108759291906114fa565b602060405180830381865afa158015610890573d5f803e3d5ffd5b505050506040513d601f19601f820116820180604052508101906108b491906115af565b915060025f9054906101000a900473ffffffffffffffffffffffffffffffffffffffff1673ffffffffffffffffffffffffffffffffffffffff1663fa21e31486866040518363ffffffff1660e01b81526004016109129291906114fa565b602060405180830381865afa15801561092d573d5f803e3d5ffd5b505050506040513d601f19601f8201168201806040525081019061095191906115da565b90505b9250925092565b60015f9054906101000a900473ffffffffffffffffffffffffffffffffffffffff1681565b5f8073ffffffffffffffffffffffffffffffffffffffff1660025f9054906101000a900473ffffffffffffffffffffffffffffffffffffffff1673ffffffffffffffffffffffffffffffffffffffff16036109dd575f9050610a7b565b60025f9054906101000a900473ffffffffffffffffffffffffffffffffffffffff1673ffffffffffffffffffffffffffffffffffffffff16639db416bf84846040518363ffffffff1660e01b8152600401610a399291906114fa565b602060405180830381865afa158015610a54573d5f803e3d5ffd5b505050506040513d601f19601f82011682018060405250810190610a7891906115af565b90505b92915050565b610a89610fe3565b610a925f61106a565b565b5f805f9054906101000a900473ffffffffffffffffffffffffffffffffffffffff16905090565b610ac3610fe3565b5f8103610afc576040517f2c5211c600000000000000000000000000000000000000000000000000000000815260040160405180910390fd5b806004819055507f348bf01b56e9f0864f69753417fdc7607a548dde3932a14abbee4cbe04258c3181604051610b3291906113e0565b60405180910390a150565b60045481565b610b4b610fe3565b5f73ffffffffffffffffffffffffffffffffffffffff1660015f9054906101000a900473ffffffffffffffffffffffffffffffffffffffff1673ffffffffffffffffffffffffffffffffffffffff1603610bd1576040517f8ddfc6f300000000000000000000000000000000000000000000000000000000815260040160405180910390fd5b5f73ffffffffffffffffffffffffffffffffffffffff168273ffffffffffffffffffffffffffffffffffffffff1603610c36576040517fe6c4247b00000000000000000000000000000000000000000000000000000000815260040160405180910390fd5b5f8103610c6f576040517f2c5211c600000000000000000000000000000000000000000000000000000000815260040160405180910390fd5b5f60045482610c7e9190611632565b905060015f9054906101000a900473ffffffffffffffffffffffffffffffffffffffff1673ffffffffffffffffffffffffffffffffffffffff16635d8504ba8484846040518463ffffffff1660e01b8152600401610cde93929190611673565b5f604051808303815f87803b158015610cf5575f80fd5b505af1158015610d07573d5f803e3d5ffd5b505050508273ffffffffffffffffffffffffffffffffffffffff167f9923b4306c6c030f2bdfbf156517d5983b87e15b96176da122cd4f2effa4ba7b8383604051610d539291906116a8565b60405180910390a2505050565b610d68610fe3565b5f73ffffffffffffffffffffffffffffffffffffffff168373ffffffffffffffffffffffffffffffffffffffff161480610dcd57505f73ffffffffffffffffffffffffffffffffffffffff168273ffffffffffffffffffffffffffffffffffffffff16145b80610e0357505f73ffffffffffffffffffffffffffffffffffffffff168173ffffffffffffffffffffffffffffffffffffffff16145b15610e3a576040517fe6c4247b00000000000000000000000000000000000000000000000000000000815260040160405180910390fd5b8260015f6101000a81548173ffffffffffffffffffffffffffffffffffffffff021916908373ffffffffffffffffffffffffffffffffffffffff1602179055508160025f6101000a81548173ffffffffffffffffffffffffffffffffffffffff021916908373ffffffffffffffffffffffffffffffffffffffff1602179055508060035f6101000a81548173ffffffffffffffffffffffffffffffffffffffff021916908373ffffffffffffffffffffffffffffffffffffffff1602179055507fe008bc55cceb8bb7dc36a3bbaa95481f36a3537e2b4cdc39770a19cf94e754a5838383604051610f2d939291906116cf565b60405180910390a1505050565b60035f9054906101000a900473ffffffffffffffffffffffffffffffffffffffff1681565b610f67610fe3565b5f73ffffffffffffffffffffffffffffffffffffffff168173ffffffffffffffffffffffffffffffffffffffff1603610fd7575f6040517f1e4fbdf7000000000000000000000000000000000000000000000000000000008152600401610fce9190611372565b60405180910390fd5b610fe08161106a565b50565b610feb61112b565b73ffffffffffffffffffffffffffffffffffffffff16611009610a94565b73ffffffffffffffffffffffffffffffffffffffff16146110685761102c61112b565b6040517f118cdaa700000000000000000000000000000000000000000000000000000000815260040161105f9190611372565b60405180910390fd5b565b5f805f9054906101000a900473ffffffffffffffffffffffffffffffffffffffff169050815f806101000a81548173ffffffffffffffffffffffffffffffffffffffff021916908373ffffffffffffffffffffffffffffffffffffffff1602179055508173ffffffffffffffffffffffffffffffffffffffff168173ffffffffffffffffffffffffffffffffffffffff167f8be0079c531659141344cd1fd0a4f28419497f9722a3daafe3b4186f6b6457e060405160405180910390a35050565b5f33905090565b5f80fd5b5f73ffffffffffffffffffffffffffffffffffffffff82169050919050565b5f61115f82611136565b9050919050565b61116f81611155565b8114611179575f80fd5b50565b5f8135905061118a81611166565b92915050565b5f819050919050565b6111a281611190565b81146111ac575f80fd5b50565b5f813590506111bd81611199565b92915050565b5f80604083850312156111d9576111d8611132565b5b5f6111e68582860161117c565b92505060206111f7858286016111af565b9150509250929050565b5f8115159050919050565b61121581611201565b82525050565b5f819050919050565b61122d8161121b565b82525050565b5f6060820190506112465f83018661120c565b6112536020830185611224565b6112606040830184611224565b949350505050565b5f819050919050565b5f61128b61128661128184611136565b611268565b611136565b9050919050565b5f61129c82611271565b9050919050565b5f6112ad82611292565b9050919050565b6112bd816112a3565b82525050565b5f6020820190506112d65f8301846112b4565b92915050565b5f6060820190506112ef5f830186611224565b6112fc602083018561120c565b6113096040830184611224565b949350505050565b5f61131b82611292565b9050919050565b61132b81611311565b82525050565b5f6020820190506113445f830184611322565b92915050565b5f60208201905061135d5f83018461120c565b92915050565b61136c81611155565b82525050565b5f6020820190506113855f830184611363565b92915050565b6113948161121b565b811461139e575f80fd5b50565b5f813590506113af8161138b565b92915050565b5f602082840312156113ca576113c9611132565b5b5f6113d7848285016113a1565b91505092915050565b5f6020820190506113f35f830184611224565b92915050565b5f806040838503121561140f5761140e611132565b5b5f61141c8582860161117c565b925050602061142d858286016113a1565b9150509250929050565b5f805f6060848603121561144e5761144d611132565b5b5f61145b8682870161117c565b935050602061146c8682870161117c565b925050604061147d8682870161117c565b9150509250925092565b5f61149182611292565b9050919050565b6114a181611487565b82525050565b5f6020820190506114ba5f830184611498565b92915050565b5f602082840312156114d5576114d4611132565b5b5f6114e28482850161117c565b91505092915050565b6114f481611190565b82525050565b5f60408201905061150d5f830185611363565b61151a60208301846114eb565b9392505050565b61152a81611201565b8114611534575f80fd5b50565b5f8151905061154581611521565b92915050565b5f815190506115598161138b565b92915050565b5f805f6060848603121561157657611575611132565b5b5f61158386828701611537565b93505060206115948682870161154b565b92505060406115a58682870161154b565b9150509250925092565b5f602082840312156115c4576115c3611132565b5b5f6115d184828501611537565b91505092915050565b5f602082840312156115ef576115ee611132565b5b5f6115fc8482850161154b565b91505092915050565b7f4e487b71000000000000000000000000000000000000000000000000000000005f52601160045260245ffd5b5f61163c8261121b565b91506116478361121b565b92508282026116558161121b565b9150828204841483151761166c5761166b611605565b5b5092915050565b5f6060820190506116865f830186611363565b6116936020830185611224565b6116a06040830184611224565b949350505050565b5f6040820190506116bb5f830185611224565b6116c86020830184611224565b9392505050565b5f6060820190506116e25f830186611363565b6116ef6020830185611363565b6116fc6040830184611363565b94935050505056fea264697066735822122052778d55cd11c2e79f15136b46a46ea6e51b74f7c1d1e3b88522095ddaa0394c64736f6c63430008180033",
    "linkReferences": {}
  },
  "methodIdentifiers": {
    "claimTokensForUser(address,uint256)": "b2bae5e6",
    "expToTokenRate()": "b182efff",
    "getCredentialDetails(address,bytes32)": "0400e8bc",
    "getUserStatus(address,bytes32)": "2a48198e",
    "issueCredentialForUser(address,bytes32)": "14a6da6d",
    "owner()": "8da5cb5b",
    "renounceOwnership()": "715018a6",
    "sbtContract()": "06158360",
    "setContracts(address,address,address)": "b3066d49",
    "setExpToTokenRate(uint256)": "aaa052a6",
    "tokenContract()": "55a373d6",
    "transferOwnership(address)": "f2fde38b",
    "verifyCompletion(address,bytes32)": "5b8b92e6",
    "voucherContract()": "c9851a6c"
  },
  "id": 47
}