{
  "abi": [
    {
      "type": "constructor",
      "inputs": [
        {
          "name": "uri_",
          "type": "string",
          "internalType": "string"
        }
      ],
      "stateMutability": "nonpayable"
    },
    {
      "type": "function",
      "name": "balanceOf",
      "inputs": [
        {
          "name": "account",
          "type": "address",
          "internalType": "address"
        },
        {
          "name": "id",
          "type": "uint256",
          "internalType": "uint256"
        }
      ],
      "outputs": [
        {
          "name": "",
          "type": "uint256",
          "internalType": "uint256"
        }
      ],
      "stateMutability": "view"
    },
    {
      "type": "function",
      "name": "balanceOfBatch",
      "inputs": [
        {
          "name": "accounts",
          "type": "address[]",
          "internalType": "address[]"
        },
        {
          "name": "ids",
          "type": "uint256[]",
          "internalType": "uint256[]"
        }
      ],
      "outputs": [
        {
          "name": "",
          "type": "uint256[]",
          "internalType": "uint256[]"
        }
      ],
      "stateMutability": "view"
    },
    {
      "type": "function",
      "name": "createVoucherType",
      "inputs": [
        {
          "name": "name",
          "type": "string",
          "internalType": "string"
        },
        {
          "name": "price",
          "type": "uint256",
          "internalType": "uint256"
        }
      ],
      "outputs": [
        {
          "name": "",
          "type": "uint256",
          "internalType": "uint256"
        }
      ],
      "stateMutability": "nonpayable"
    },
    {
      "type": "function",
      "name": "getUserRedemptions",
      "inputs": [
        {
          "name": "user",
          "type": "address",
          "internalType": "address"
        },
        {
          "name": "voucherId",
          "type": "uint256",
          "internalType": "uint256"
        }
      ],
      "outputs": [
        {
          "name": "",
          "type": "uint256",
          "internalType": "uint256"
        }
      ],
      "stateMutability": "view"
    },
    {
      "type": "function",
      "name": "getVoucherBalance",
      "inputs": [
        {
          "name": "user",
          "type": "address",
          "internalType": "address"
        },
        {
          "name": "voucherId",
          "type": "uint256",
          "internalType": "uint256"
        }
      ],
      "outputs": [
        {
          "name": "",
          "type": "uint256",
          "internalType": "uint256"
        }
      ],
      "stateMutability": "view"
    },
    {
      "type": "function",
      "name": "getVoucherType",
      "inputs": [
        {
          "name": "voucherId",
          "type": "uint256",
          "internalType": "uint256"
        }
      ],
      "outputs": [
        {
          "name": "name",
          "type": "string",
          "internalType": "string"
        },
        {
          "name": "price",
          "type": "uint256",
          "internalType": "uint256"
        },
        {
          "name": "active",
          "type": "bool",
          "internalType": "bool"
        },
        {
          "name": "totalMinted",
          "type": "uint256",
          "internalType": "uint256"
        },
        {
          "name": "totalRedeemed",
          "type": "uint256",
          "internalType": "uint256"
        }
      ],
      "stateMutability": "view"
    },
    {
      "type": "function",
      "name": "grantVoucher",
      "inputs": [
        {
          "name": "user",
          "type": "address",
          "internalType": "address"
        },
        {
          "name": "voucherId",
          "type": "uint256",
          "internalType": "uint256"
        },
        {
          "name": "amount",
          "type": "uint256",
          "internalType": "uint256"
        }
      ],
      "outputs": [],
      "stateMutability": "nonpayable"
    },
    {
      "type": "function",
      "name": "isApprovedForAll",
      "inputs": [
        {
          "name": "account",
          "type": "address",
          "internalType": "address"
        },
        {
          "name": "operator",
          "type": "address",
          "internalType": "address"
        }
      ],
      "outputs": [
        {
          "name": "",
          "type": "bool",
          "internalType": "bool"
        }
      ],
      "stateMutability": "view"
    },
    {
      "type": "function",
      "name": "isOperator",
      "inputs": [
        {
          "name": "operator",
          "type": "address",
          "internalType": "address"
        }
      ],
      "outputs": [
        {
          "name": "",
          "type": "bool",
          "internalType": "bool"
        }
      ],
      "stateMutability": "view"
    },
    {
      "type": "function",
      "name": "kasturiToken",
      "inputs": [],
      "outputs": [
        {
          "name": "",
          "type": "address",
          "internalType": "contract KasturiToken"
        }
      ],
      "stateMutability": "view"
    },
    {
      "type": "function",
      "name": "owner",
      "inputs": [],
      "outputs": [
        {
          "name": "",
          "type": "address",
          "internalType": "address"
        }
      ],
      "stateMutability": "view"
    },
    {
      "type": "function",
      "name": "purchaseVoucher",
      "inputs": [
        {
          "name": "voucherId",
          "type": "uint256",
          "internalType": "uint256"
        },
        {
          "name": "amount",
          "type": "uint256",
          "internalType": "uint256"
        }
      ],
      "outputs": [],
      "stateMutability": "nonpayable"
    },
    {
      "type": "function",
      "name": "redeemVoucher",
      "inputs": [
        {
          "name": "voucherId",
          "type": "uint256",
          "internalType": "uint256"
        },
        {
          "name": "amount",
          "type": "uint256",
          "internalType": "uint256"
        }
      ],
      "outputs": [],
      "stateMutability": "nonpayable"
    },
    {
      "type": "function",
      "name": "renounceOwnership",
      "inputs": [],
      "outputs": [],
      "stateMutability": "nonpayable"
    },
    {
      "type": "function",
      "name": "safeBatchTransferFrom",
      "inputs": [
        {
          "name": "from",
          "type": "address",
          "internalType": "address"
        },
        {
          "name": "to",
          "type": "address",
          "internalType": "address"
        },
        {
          "name": "ids",
          "type": "uint256[]",
          "internalType": "uint256[]"
        },
        {
          "name": "values",
          "type": "uint256[]",
          "internalType": "uint256[]"
        },
        {
          "name": "data",
          "type": "bytes",
          "internalType": "bytes"
        }
      ],
      "outputs": [],
      "stateMutability": "nonpayable"
    },
    {
      "type": "function",
      "name": "safeTransferFrom",
      "inputs": [
        {
          "name": "from",
          "type": "address",
          "internalType": "address"
        },
        {
          "name": "to",
          "type": "address",
          "internalType": "address"
        },
        {
          "name": "id",
          "type": "uint256",
          "internalType": "uint256"
        },
        {
          "name": "value",
          "type": "uint256",
          "internalType": "uint256"
        },
        {
          "name": "data",
          "type": "bytes",
          "internalType": "bytes"
        }
      ],
      "outputs": [],
      "stateMutability": "nonpayable"
    },
    {
      "type": "function",
      "name": "setApprovalForAll",
      "inputs": [
        {
          "name": "operator",
          "type": "address",
          "internalType": "address"
        },
        {
          "name": "approved",
          "type": "bool",
          "internalType": "bool"
        }
      ],
      "outputs": [],
      "stateMutability": "nonpayable"
    },
    {
      "type": "function",
      "name": "setKasturiToken",
      "inputs": [
        {
          "name": "_kasturiToken",
          "type": "address",
          "internalType": "address"
        }
      ],
      "outputs": [],
      "stateMutability": "nonpayable"
    },
    {
      "type": "function",
      "name": "setOperator",
      "inputs": [
        {
          "name": "operator",
          "type": "address",
          "internalType": "address"
        },
        {
          "name": "status",
          "type": "bool",
          "internalType": "bool"
        }
      ],
      "outputs": [],
      "stateMutability": "nonpayable"
    },
    {
      "type": "function",
      "name": "setURI",
      "inputs": [
        {
          "name": "newuri",
          "type": "string",
          "internalType": "string"
        }
      ],
      "outputs": [],
      "stateMutability": "nonpayable"
    },
    {
      "type": "function",
      "name": "supportsInterface",
      "inputs": [
        {
          "name": "interfaceId",
          "type": "bytes4",
          "internalType": "bytes4"
        }
      ],
      "outputs": [
        {
          "name": "",
          "type": "bool",
          "internalType": "bool"
        }
      ],
      "stateMutability": "view"
    },
    {
      "type": "function",
      "name": "totalVoucherTypes",
      "inputs": [],
      "outputs": [
        {
          "name": "",
          "type": "uint256",
          "internalType": "uint256"
        }
      ],
      "stateMutability": "view"
    },
    {
      "type": "function",
      "name": "transferOwnership",
      "inputs": [
        {
          "name": "newOwner",
          "type": "address",
          "internalType": "address"
        }
      ],
      "outputs": [],
      "stateMutability": "nonpayable"
    },
    {
      "type": "function",
      "name": "updateVoucherType",
      "inputs": [
        {
          "name": "voucherId",
          "type": "uint256",
          "internalType": "uint256"
        },
        {
          "name": "price",
          "type": "uint256",
          "internalType": "uint256"
        },
        {
          "name": "active",
          "type": "bool",
          "internalType": "bool"
        }
      ],
      "outputs": [],
      "stateMutability": "nonpayable"
    },
    {
      "type": "function",
      "name": "uri",
      "inputs": [
        {
          "name": "",
          "type": "uint256",
          "internalType": "uint256"
        }
      ],
      "outputs": [
        {
          "name": "",
          "type": "string",
          "internalType": "string"
        }
      ],
      "stateMutability": "view"
    },
    {
      "type": "function",
      "name": "userRedemptions",
      "inputs": [
        {
          "name": "",
          "type": "address",
          "internalType": "address"
        },
        {
          "name": "",
          "type": "uint256",
          "internalType": "uint256"
        }
      ],
      "outputs": [
        {
          "name": "",
          "type": "uint256",
          "internalType": "uint256"
        }
      ],
      "stateMutability": "view"
    },
    {
      "type": "function",
      "name": "voucherTypes",
      "inputs": [
        {
          "name": "",
          "type": "uint256",
          "internalType": "uint256"
        }
      ],
      "outputs": [
        {
          "name": "name",
          "type": "string",
          "internalType": "string"
        },
        {
          "name": "price",
          "type": "uint256",
          "internalType": "uint256"
        },
        {
          "name": "active",
          "type": "bool",
          "internalType": "bool"
        },
        {
          "name": "totalMinted",
          "type": "uint256",
          "internalType": "uint256"
        },
        {
          "name": "totalRedeemed",
          "type": "uint256",
          "internalType": "uint256"
        }
      ],
      "stateMutability": "view"
    },
    {
      "type": "event",
      "name": "ApprovalForAll",
      "inputs": [
        {
          "name": "account",
          "type": "address",
          "indexed": true,
          "internalType": "address"
        },
        {
          "name": "operator",
          "type": "address",
          "indexed": true,
          "internalType": "address"
        },
        {
          "name": "approved",
          "type": "bool",
          "indexed": false,
          "internalType": "bool"
        }
      ],
      "anonymous": false
    },
    {
      "type": "event",
      "name": "KasturiTokenUpdated",
      "inputs": [
        {
          "name": "tokenAddress",
          "type": "address",
          "indexed": true,
          "internalType": "address"
        }
      ],
      "anonymous": false
    },
    {
      "type": "event",
      "name": "OperatorUpdated",
      "inputs": [
        {
          "name": "operator",
          "type": "address",
          "indexed": true,
          "internalType": "address"
        },
        {
          "name": "status",
          "type": "bool",
          "indexed": false,
          "internalType": "bool"
        }
      ],
      "anonymous": false
    },
    {
      "type": "event",
      "name": "OwnershipTransferred",
      "inputs": [
        {
          "name": "previousOwner",
          "type": "address",
          "indexed": true,
          "internalType": "address"
        },
        {
          "name": "newOwner",
          "type": "address",
          "indexed": true,
          "internalType": "address"
        }
      ],
      "anonymous": false
    },
    {
      "type": "event",
      "name": "TransferBatch",
      "inputs": [
        {
          "name": "operator",
          "type": "address",
          "indexed": true,
          "internalType": "address"
        },
        {
          "name": "from",
          "type": "address",
          "indexed": true,
          "internalType": "address"
        },
        {
          "name": "to",
          "type": "address",
          "indexed": true,
          "internalType": "address"
        },
        {
          "name": "ids",
          "type": "uint256[]",
          "indexed": false,
          "internalType": "uint256[]"
        },
        {
          "name": "values",
          "type": "uint256[]",
          "indexed": false,
          "internalType": "uint256[]"
        }
      ],
      "anonymous": false
    },
    {
      "type": "event",
      "name": "TransferSingle",
      "inputs": [
        {
          "name": "operator",
          "type": "address",
          "indexed": true,
          "internalType": "address"
        },
        {
          "name": "from",
          "type": "address",
          "indexed": true,
          "internalType": "address"
        },
        {
          "name": "to",
          "type": "address",
          "indexed": true,
          "internalType": "address"
        },
        {
          "name": "id",
          "type": "uint256",
          "indexed": false,
          "internalType": "uint256"
        },
        {
          "name": "value",
          "type": "uint256",
          "indexed": false,
          "internalType": "uint256"
        }
      ],
      "anonymous": false
    },
    {
      "type": "event",
      "name": "URI",
      "inputs": [
        {
          "name": "value",
          "type": "string",
          "indexed": false,
          "internalType": "string"
        },
        {
          "name": "id",
          "type": "uint256",
          "indexed": true,
          "internalType": "uint256"
        }
      ],
      "anonymous": false
    },
    {
      "type": "event",
      "name": "VoucherGranted",
      "inputs": [
        {
          "name": "user",
          "type": "address",
          "indexed": true,
          "internalType": "address"
        },
        {
          "name": "voucherId",
          "type": "uint256",
          "indexed": true,
          "internalType": "uint256"
        },
        {
          "name": "amount",
          "type": "uint256",
          "indexed": false,
          "internalType": "uint256"
        }
      ],
      "anonymous": false
    },
    {
      "type": "event",
      "name": "VoucherPurchased",
      "inputs": [
        {
          "name": "user",
          "type": "address",
          "indexed": true,
          "internalType": "address"
        },
        {
          "name": "voucherId",
          "type": "uint256",
          "indexed": true,
          "internalType": "uint256"
        },
        {
          "name": "amount",
          "type": "uint256",
          "indexed": false,
          "internalType": "uint256"
        },
        {
          "name": "totalPrice",
          "type": "uint256",
          "indexed": false,
          "internalType": "uint256"
        }
      ],
      "anonymous": false
    },
    {
      "type": "event",
      "name": "VoucherRedeemed",
      "inputs": [
        {
          "name": "user",
          "type": "address",
          "indexed": true,
          "internalType": "address"
        },
        {
          "name": "voucherId",
          "type": "uint256",
          "indexed": true,
          "internalType": "uint256"
        },
        {
          "name": "amount",
          "type": "uint256",
          "indexed": false,
          "internalType": "uint256"
        }
      ],
      "anonymous": false
    },
    {
      "type": "event",
      "name": "VoucherTypeCreated",
      "inputs": [
        {
          "name": "voucherId",
          "type": "uint256",
          "indexed": true,
          "internalType": "uint256"
        },
        {
          "name": "name",
          "type": "string",
          "indexed": false,
          "internalType": "string"
        },
        {
          "name": "price",
          "type": "uint256",
          "indexed": false,
          "internalType": "uint256"
        }
      ],
      "anonymous": false
    },
    {
      "type": "event",
      "name": "VoucherTypeUpdated",
      "inputs": [
        {
          "name": "voucherId",
          "type": "uint256",
          "indexed": true,
          "internalType": "uint256"
        },
        {
          "name": "price",
          "type": "uint256",
          "indexed": false,
          "internalType": "uint256"
        },
        {
          "name": "active",
          "type": "bool",
          "indexed": false,
          "internalType": "bool"
        }
      ],
      "anonymous": false
    },
    {
      "type": "error",
      "name": "ERC1155InsufficientBalance",
      "inputs": [
        {
          "name": "sender",
          "type": "address",
          "internalType": "address"
        },
        {
          "name": "balance",
          "type": "uint256",
          "internalType": "uint256"
        },
        {
          "name": "needed",
          "type": "uint256",
          "internalType": "uint256"
        },
        {
          "name": "tokenId",
          "type": "uint256",
          "internalType": "uint256"
        }
      ]
    },
    {
      "type": "error",
      "name": "ERC1155InvalidApprover",
      "inputs": [
        {
          "name": "approver",
          "type": "address",
          "internalType": "address"
        }
      ]
    },
    {
      "type": "error",
      "name": "ERC1155InvalidArrayLength",
      "inputs": [
        {
          "name": "idsLength",
          "type": "uint256",
          "internalType": "uint256"
        },
        {
          "name": "valuesLength",
          "type": "uint256",
          "internalType": "uint256"
        }
      ]
    },
    {
      "type": "error",
      "name": "ERC1155InvalidOperator",
      "inputs": [
        {
          "name": "operator",
          "type": "address",
          "internalType": "address"
        }
      ]
    },
    {
      "type": "error",
      "name": "ERC1155InvalidReceiver",
      "inputs": [
        {
          "name": "receiver",
          "type": "address",
          "internalType": "address"
        }
      ]
    },
    {
      "type": "error",
      "name": "ERC1155InvalidSender",
      "inputs": [
        {
          "name": "sender",
          "type": "address",
          "internalType": "address"
        }
      ]
    },
    {
      "type": "error",
      "name": "ERC1155MissingApprovalForAll",
      "inputs": [
        {
          "name": "operator",
          "type": "address",
          "internalType": "address"
        },
        {
          "name": "owner",
          "type": "address",
          "internalType": "address"
        }
      ]
    },
    {
      "type": "error",
      "name": "InsufficientTokens",
      "inputs": []
    },
    {
      "type": "error",
      "name": "InsufficientVouchers",
      "inputs": []
    },
    {
      "type": "error",
      "name": "InvalidAddress",
      "inputs": []
    },
    {
      "type": "error",
      "name": "InvalidAmount",
      "inputs": []
    },
    {
      "type": "error",
      "name": "InvalidPrice",
      "inputs": []
    },
    {
      "type": "error",
      "name": "InvalidVoucherId",
      "inputs": []
    },
    {
      "type": "error",
      "name": "OwnableInvalidOwner",
      "inputs": [
        {
          "name": "owner",
          "type": "address",
          "internalType": "address"
        }
      ]
    },
    {
      "type": "error",
      "name": "OwnableUnauthorizedAccount",
      "inputs": [
        {
          "name": "account",
          "type": "address",
          "internalType": "address"
        }
      ]
    },
    {
      "type": "error",
      "name": "TokenNotSet",
      "inputs": []
    },
    {
      "type": "error",
      "name": "UnauthorizedAction",
      "inputs": []
    },
    {
      "type": "error",
      "name": "VoucherNotActive",
      "inputs": []
    }
  ],
  "bytecode": {
    "object": "0x608060405234801562000010575f80fd5b50604051620043973803806200439783398181016040528101906200003691906200033b565b33816200004981620000de60201b60201c565b505f73ffffffffffffffffffffffffffffffffffffffff168173ffffffffffffffffffffffffffffffffffffffff1603620000bd575f6040517f1e4fbdf7000000000000000000000000000000000000000000000000000000008152600401620000b49190620003cd565b60405180910390fd5b620000ce81620000f360201b60201c565b5060016007819055505062000703565b8060029081620000ef91906200061f565b5050565b5f60035f9054906101000a900473ffffffffffffffffffffffffffffffffffffffff1690508160035f6101000a81548173ffffffffffffffffffffffffffffffffffffffff021916908373ffffffffffffffffffffffffffffffffffffffff1602179055508173ffffffffffffffffffffffffffffffffffffffff168173ffffffffffffffffffffffffffffffffffffffff167f8be0079c531659141344cd1fd0a4f28419497f9722a3daafe3b4186f6b6457e060405160405180910390a35050565b5f604051905090565b5f80fd5b5f80fd5b5f80fd5b5f80fd5b5f601f19601f8301169050919050565b7f4e487b71000000000000000000000000000000000000000000000000000000005f52604160045260245ffd5b6200021782620001cf565b810181811067ffffffffffffffff82111715620002395762000238620001df565b5b80604052505050565b5f6200024d620001b6565b90506200025b82826200020c565b919050565b5f67ffffffffffffffff8211156200027d576200027c620001df565b5b6200028882620001cf565b9050602081019050919050565b5f5b83811015620002b457808201518184015260208101905062000297565b5f8484015250505050565b5f620002d5620002cf8462000260565b62000242565b905082815260208101848484011115620002f457620002f3620001cb565b5b6200030184828562000295565b509392505050565b5f82601f83011262000320576200031f620001c7565b5b815162000332848260208601620002bf565b91505092915050565b5f60208284031215620003535762000352620001bf565b5b5f82015167ffffffffffffffff811115620003735762000372620001c3565b5b620003818482850162000309565b91505092915050565b5f73ffffffffffffffffffffffffffffffffffffffff82169050919050565b5f620003b5826200038a565b9050919050565b620003c781620003a9565b82525050565b5f602082019050620003e25f830184620003bc565b92915050565b5f81519050919050565b7f4e487b71000000000000000000000000000000000000000000000000000000005f52602260045260245ffd5b5f60028204905060018216806200043757607f821691505b6020821081036200044d576200044c620003f2565b5b50919050565b5f819050815f5260205f209050919050565b5f6020601f8301049050919050565b5f82821b905092915050565b5f60088302620004b17fffffffffffffffffffffffffffffffffffffffffffffffffffffffffffffffff8262000474565b620004bd868362000474565b95508019841693508086168417925050509392505050565b5f819050919050565b5f819050919050565b5f6200050762000501620004fb84620004d5565b620004de565b620004d5565b9050919050565b5f819050919050565b6200052283620004e7565b6200053a62000531826200050e565b84845462000480565b825550505050565b5f90565b6200055062000542565b6200055d81848462000517565b505050565b5b818110156200058457620005785f8262000546565b60018101905062000563565b5050565b601f821115620005d3576200059d8162000453565b620005a88462000465565b81016020851015620005b8578190505b620005d0620005c78562000465565b83018262000562565b50505b505050565b5f82821c905092915050565b5f620005f55f1984600802620005d8565b1980831691505092915050565b5f6200060f8383620005e4565b9150826002028217905092915050565b6200062a82620003e8565b67ffffffffffffffff811115620006465762000645620001df565b5b6200065282546200041f565b6200065f82828562000588565b5f60209050601f83116001811462000695575f841562000680578287015190505b6200068c858262000602565b865550620006fb565b601f198416620006a58662000453565b5f5b82811015620006ce57848901518255600182019150602085019450602081019050620006a7565b86831015620006ee5784890151620006ea601f891682620005e4565b8355505b6001600288020188555050505b505050505050565b613c8680620007115f395ff3fe608060405234801561000f575f80fd5b50600436106101a6575f3560e01c80635c3ee868116100f7578063b907af4711610095578063e178898b1161006f578063e178898b14610504578063e985e9c514610522578063f242432a14610552578063f2fde38b1461056e576101a6565b8063b907af4714610486578063bb0e309a146104b6578063df6aeead146104e6576101a6565b8063715018a6116100d1578063715018a61461042657806380bc8f27146104305780638da5cb5b1461044c578063a22cb4651461046a576101a6565b80635c3ee868146103925780636625e90c146103c65780636d70f7ae146103f6576101a6565b806323cbce78116101645780632eb2c2d61161013e5780632eb2c2d6146102f65780634dbc0583146103125780634e1273f414610346578063558a729714610376576101a6565b806323cbce781461028e57806325551067146102aa57806325dd8f83146102c6576101a6565b8062fdd58e146101aa57806301ffc9a7146101da57806302c3d1241461020a57806302fe53051461022657806303360db6146102425780630e89341c1461025e575b5f80fd5b6101c460048036038101906101bf9190612976565b61058a565b6040516101d191906129c3565b60405180910390f35b6101f460048036038101906101ef9190612a31565b6105df565b6040516102019190612a76565b60405180910390f35b610224600480360381019061021f9190612a8f565b6106c0565b005b610240600480360381019061023b9190612c1b565b6108fe565b005b61025c60048036038101906102579190612c8c565b610912565b005b61027860048036038101906102739190612cdc565b610a62565b6040516102859190612d81565b60405180910390f35b6102a860048036038101906102a39190612da1565b610af4565b005b6102c460048036038101906102bf9190612dcc565b610be7565b005b6102e060048036038101906102db9190612e67565b610d94565b6040516102ed91906129c3565b60405180910390f35b610310600480360381019061030b9190613022565b610f0b565b005b61032c60048036038101906103279190612cdc565b610fb2565b60405161033d9594939291906130ed565b60405180910390f35b610360600480360381019061035b9190613205565b611076565b60405161036d9190613332565b60405180910390f35b610390600480360381019061038b9190613352565b61117d565b005b6103ac60048036038101906103a79190612cdc565b611290565b6040516103bd9594939291906130ed565b60405180910390f35b6103e060048036038101906103db9190612976565b61136b565b6040516103ed91906129c3565b60405180910390f35b610410600480360381019061040b9190612da1565b61138b565b60405161041d9190612a76565b60405180910390f35b61042e6113dd565b005b61044a60048036038101906104459190612dcc565b6113f0565b005b6104546117e7565b604051610461919061339f565b60405180910390f35b610484600480360381019061047f9190613352565b61180f565b005b6104a0600480360381019061049b9190612976565b611825565b6040516104ad91906129c3565b60405180910390f35b6104d060048036038101906104cb9190612976565b611838565b6040516104dd91906129c3565b60405180910390f35b6104ee61188e565b6040516104fb9190613413565b60405180910390f35b61050c6118b3565b60405161051991906129c3565b60405180910390f35b61053c6004803603810190610537919061342c565b6118c8565b6040516105499190612a76565b60405180910390f35b61056c6004803603810190610567919061346a565b611956565b005b61058860048036038101906105839190612da1565b6119fd565b005b5f805f8381526020019081526020015f205f8473ffffffffffffffffffffffffffffffffffffffff1673ffffffffffffffffffffffffffffffffffffffff1681526020019081526020015f2054905092915050565b5f7fd9b67a26000000000000000000000000000000000000000000000000000000007bffffffffffffffffffffffffffffffffffffffffffffffffffffffff1916827bffffffffffffffffffffffffffffffffffffffffffffffffffffffff191614806106a957507f0e89341c000000000000000000000000000000000000000000000000000000007bffffffffffffffffffffffffffffffffffffffffffffffffffffffff1916827bffffffffffffffffffffffffffffffffffffffffffffffffffffffff1916145b806106b957506106b882611a81565b5b9050919050565b6106c86117e7565b73ffffffffffffffffffffffffffffffffffffffff163373ffffffffffffffffffffffffffffffffffffffff161415801561074a575060055f3373ffffffffffffffffffffffffffffffffffffffff1673ffffffffffffffffffffffffffffffffffffffff1681526020019081526020015f205f9054906101000a900460ff16155b15610781576040517f843800fa00000000000000000000000000000000000000000000000000000000815260040160405180910390fd5b5f73ffffffffffffffffffffffffffffffffffffffff168373ffffffffffffffffffffffffffffffffffffffff16036107e6576040517fe6c4247b00000000000000000000000000000000000000000000000000000000815260040160405180910390fd5b5f8214806107f657506007548210155b1561082d576040517f30d8f16500000000000000000000000000000000000000000000000000000000815260040160405180910390fd5b5f8103610866576040517f2c5211c600000000000000000000000000000000000000000000000000000000815260040160405180910390fd5b61088083838360405180602001604052805f815250611aea565b8060065f8481526020019081526020015f206003015f8282546108a3919061352a565b92505081905550818373ffffffffffffffffffffffffffffffffffffffff167f62715acb04871a9f78419d7efd8bc1e8d679dffb262cf24eb9db552fc6e89500836040516108f191906129c3565b60405180910390a3505050565b610906611b7f565b61090f81611c06565b50565b61091a611b7f565b5f83148061092a57506007548310155b15610961576040517f30d8f16500000000000000000000000000000000000000000000000000000000815260040160405180910390fd5b80801561096d57505f82145b801561098c57505f60065f8581526020019081526020015f2060010154145b156109c2576040517ebfc92100000000000000000000000000000000000000000000000000000000815260040160405180910390fd5b5f8211156109e4578160065f8581526020019081526020015f20600101819055505b8060065f8581526020019081526020015f206002015f6101000a81548160ff021916908315150217905550827f55f7c45d5dc715310cd1336f4ef9f286fb2d998c9bc30871946bd478f2d3bc7760065f8681526020019081526020015f206001015483604051610a5592919061355d565b60405180910390a2505050565b606060028054610a71906135b1565b80601f0160208091040260200160405190810160405280929190818152602001828054610a9d906135b1565b8015610ae85780601f10610abf57610100808354040283529160200191610ae8565b820191905f5260205f20905b815481529060010190602001808311610acb57829003601f168201915b50505050509050919050565b610afc611b7f565b5f73ffffffffffffffffffffffffffffffffffffffff168173ffffffffffffffffffffffffffffffffffffffff1603610b61576040517fe6c4247b00000000000000000000000000000000000000000000000000000000815260040160405180910390fd5b8060045f6101000a81548173ffffffffffffffffffffffffffffffffffffffff021916908373ffffffffffffffffffffffffffffffffffffffff1602179055508073ffffffffffffffffffffffffffffffffffffffff167fcd55312ff3e51f448d58993a1708ccc14cb2cc9e6dbee3703ca31973f2c24c3c60405160405180910390a250565b5f821480610bf757506007548210155b15610c2e576040517f30d8f16500000000000000000000000000000000000000000000000000000000815260040160405180910390fd5b5f8103610c67576040517f2c5211c600000000000000000000000000000000000000000000000000000000815260040160405180910390fd5b80610c72338461058a565b1015610caa576040517ff2052fc500000000000000000000000000000000000000000000000000000000815260040160405180910390fd5b610cb5338383611c19565b8060065f8481526020019081526020015f206004015f828254610cd8919061352a565b925050819055508060085f3373ffffffffffffffffffffffffffffffffffffffff1673ffffffffffffffffffffffffffffffffffffffff1681526020019081526020015f205f8481526020019081526020015f205f828254610d3a919061352a565b92505081905550813373ffffffffffffffffffffffffffffffffffffffff167f90a1e756583991105b90752f00c540cfe352e38a4450d00c353b74423b1c822183604051610d8891906129c3565b60405180910390a35050565b5f610d9d611b7f565b5f8203610dd5576040517ebfc92100000000000000000000000000000000000000000000000000000000815260040160405180910390fd5b5f600754905060075f815480929190610ded906135e1565b91905055506040518060a0016040528086868080601f0160208091040260200160405190810160405280939291908181526020018383808284375f81840152601f19601f8201169050808301925050505050505081526020018481526020016001151581526020015f81526020015f81525060065f8381526020019081526020015f205f820151815f019081610e8391906137bc565b50602082015181600101556040820151816002015f6101000a81548160ff0219169083151502179055506060820151816003015560808201518160040155905050807ff5eb50bd5342f47a0897c0d8b451f522e031920efeaead215ef9fd9a964f6b52868686604051610ef8939291906138b7565b60405180910390a2809150509392505050565b5f610f14611cbb565b90508073ffffffffffffffffffffffffffffffffffffffff168673ffffffffffffffffffffffffffffffffffffffff1614158015610f595750610f5786826118c8565b155b15610f9d5780866040517fe237d922000000000000000000000000000000000000000000000000000000008152600401610f949291906138e7565b60405180910390fd5b610faa8686868686611cc2565b505050505050565b6006602052805f5260405f205f91509050805f018054610fd1906135b1565b80601f0160208091040260200160405190810160405280929190818152602001828054610ffd906135b1565b80156110485780601f1061101f57610100808354040283529160200191611048565b820191905f5260205f20905b81548152906001019060200180831161102b57829003601f168201915b505050505090806001015490806002015f9054906101000a900460ff16908060030154908060040154905085565b606081518351146110c257815183516040517f5b0599910000000000000000000000000000000000000000000000000000000081526004016110b992919061390e565b60405180910390fd5b5f835167ffffffffffffffff8111156110de576110dd612af7565b5b60405190808252806020026020018201604052801561110c5781602001602082028036833780820191505090505b5090505f5b8451811015611172576111486111308287611db690919063ffffffff16565b6111438387611dc990919063ffffffff16565b61058a565b82828151811061115b5761115a613935565b5b602002602001018181525050806001019050611111565b508091505092915050565b611185611b7f565b5f73ffffffffffffffffffffffffffffffffffffffff168273ffffffffffffffffffffffffffffffffffffffff16036111ea576040517fe6c4247b00000000000000000000000000000000000000000000000000000000815260040160405180910390fd5b8060055f8473ffffffffffffffffffffffffffffffffffffffff1673ffffffffffffffffffffffffffffffffffffffff1681526020019081526020015f205f6101000a81548160ff0219169083151502179055508173ffffffffffffffffffffffffffffffffffffffff167f966c160e1c4dbc7df8d69af4ace01e9297c3cf016397b7914971f2fbfa32672d826040516112849190612a76565b60405180910390a25050565b60605f805f805f60065f8881526020019081526020015f209050805f018160010154826002015f9054906101000a900460ff16836003015484600401548480546112d9906135b1565b80601f0160208091040260200160405190810160405280929190818152602001828054611305906135b1565b80156113505780601f1061132757610100808354040283529160200191611350565b820191905f5260205f20905b81548152906001019060200180831161133357829003601f168201915b50505050509450955095509550955095505091939590929450565b6008602052815f5260405f20602052805f5260405f205f91509150505481565b5f60055f8373ffffffffffffffffffffffffffffffffffffffff1673ffffffffffffffffffffffffffffffffffffffff1681526020019081526020015f205f9054906101000a900460ff169050919050565b6113e5611b7f565b6113ee5f611ddc565b565b5f73ffffffffffffffffffffffffffffffffffffffff1660045f9054906101000a900473ffffffffffffffffffffffffffffffffffffffff1673ffffffffffffffffffffffffffffffffffffffff1603611476576040517f4b62f01300000000000000000000000000000000000000000000000000000000815260040160405180910390fd5b5f82148061148657506007548210155b156114bd576040517f30d8f16500000000000000000000000000000000000000000000000000000000815260040160405180910390fd5b5f81036114f6576040517f2c5211c600000000000000000000000000000000000000000000000000000000815260040160405180910390fd5b5f60065f8481526020019081526020015f209050806002015f9054906101000a900460ff16611551576040517f7767297f00000000000000000000000000000000000000000000000000000000815260040160405180910390fd5b5f8282600101546115629190613962565b90508060045f9054906101000a900473ffffffffffffffffffffffffffffffffffffffff1673ffffffffffffffffffffffffffffffffffffffff166370a08231336040518263ffffffff1660e01b81526004016115bf919061339f565b602060405180830381865afa1580156115da573d5f803e3d5ffd5b505050506040513d601f19601f820116820180604052508101906115fe91906139b7565b1015611636576040517ff1b7e15e00000000000000000000000000000000000000000000000000000000815260040160405180910390fd5b60045f9054906101000a900473ffffffffffffffffffffffffffffffffffffffff1673ffffffffffffffffffffffffffffffffffffffff166323b872dd3330846040518463ffffffff1660e01b8152600401611694939291906139e2565b6020604051808303815f875af11580156116b0573d5f803e3d5ffd5b505050506040513d601f19601f820116820180604052508101906116d49190613a2b565b5060045f9054906101000a900473ffffffffffffffffffffffffffffffffffffffff1673ffffffffffffffffffffffffffffffffffffffff166342966c68826040518263ffffffff1660e01b815260040161172f91906129c3565b5f604051808303815f87803b158015611746575f80fd5b505af1158015611758573d5f803e3d5ffd5b5050505061177633858560405180602001604052805f815250611aea565b82826003015f828254611789919061352a565b92505081905550833373ffffffffffffffffffffffffffffffffffffffff167f1885e69698a7feb1996880dc751e52fa84140b158c769239d0e04ec35564096f85846040516117d992919061390e565b60405180910390a350505050565b5f60035f9054906101000a900473ffffffffffffffffffffffffffffffffffffffff16905090565b61182161181a611cbb565b8383611e9f565b5050565b5f611830838361058a565b905092915050565b5f60085f8473ffffffffffffffffffffffffffffffffffffffff1673ffffffffffffffffffffffffffffffffffffffff1681526020019081526020015f205f8381526020019081526020015f2054905092915050565b60045f9054906101000a900473ffffffffffffffffffffffffffffffffffffffff1681565b5f60016007546118c39190613a56565b905090565b5f60015f8473ffffffffffffffffffffffffffffffffffffffff1673ffffffffffffffffffffffffffffffffffffffff1681526020019081526020015f205f8373ffffffffffffffffffffffffffffffffffffffff1673ffffffffffffffffffffffffffffffffffffffff1681526020019081526020015f205f9054906101000a900460ff16905092915050565b5f61195f611cbb565b90508073ffffffffffffffffffffffffffffffffffffffff168673ffffffffffffffffffffffffffffffffffffffff16141580156119a457506119a286826118c8565b155b156119e85780866040517fe237d9220000000000000000000000000000000000000000000000000000000081526004016119df9291906138e7565b60405180910390fd5b6119f58686868686612008565b505050505050565b611a05611b7f565b5f73ffffffffffffffffffffffffffffffffffffffff168173ffffffffffffffffffffffffffffffffffffffff1603611a75575f6040517f1e4fbdf7000000000000000000000000000000000000000000000000000000008152600401611a6c919061339f565b60405180910390fd5b611a7e81611ddc565b50565b5f7f01ffc9a7000000000000000000000000000000000000000000000000000000007bffffffffffffffffffffffffffffffffffffffffffffffffffffffff1916827bffffffffffffffffffffffffffffffffffffffffffffffffffffffff1916149050919050565b5f73ffffffffffffffffffffffffffffffffffffffff168473ffffffffffffffffffffffffffffffffffffffff1603611b5a575f6040517f57f447ce000000000000000000000000000000000000000000000000000000008152600401611b51919061339f565b60405180910390fd5b5f80611b66858561210e565b91509150611b775f8784848761213e565b505050505050565b611b87611cbb565b73ffffffffffffffffffffffffffffffffffffffff16611ba56117e7565b73ffffffffffffffffffffffffffffffffffffffff1614611c0457611bc8611cbb565b6040517f118cdaa7000000000000000000000000000000000000000000000000000000008152600401611bfb919061339f565b60405180910390fd5b565b8060029081611c1591906137bc565b5050565b5f73ffffffffffffffffffffffffffffffffffffffff168373ffffffffffffffffffffffffffffffffffffffff1603611c89575f6040517f01a83514000000000000000000000000000000000000000000000000000000008152600401611c80919061339f565b60405180910390fd5b5f80611c95848461210e565b91509150611cb4855f848460405180602001604052805f81525061213e565b5050505050565b5f33905090565b5f73ffffffffffffffffffffffffffffffffffffffff168473ffffffffffffffffffffffffffffffffffffffff1603611d32575f6040517f57f447ce000000000000000000000000000000000000000000000000000000008152600401611d29919061339f565b60405180910390fd5b5f73ffffffffffffffffffffffffffffffffffffffff168573ffffffffffffffffffffffffffffffffffffffff1603611da2575f6040517f01a83514000000000000000000000000000000000000000000000000000000008152600401611d99919061339f565b60405180910390fd5b611daf858585858561213e565b5050505050565b5f60208202602084010151905092915050565b5f60208202602084010151905092915050565b5f60035f9054906101000a900473ffffffffffffffffffffffffffffffffffffffff1690508160035f6101000a81548173ffffffffffffffffffffffffffffffffffffffff021916908373ffffffffffffffffffffffffffffffffffffffff1602179055508173ffffffffffffffffffffffffffffffffffffffff168173ffffffffffffffffffffffffffffffffffffffff167f8be0079c531659141344cd1fd0a4f28419497f9722a3daafe3b4186f6b6457e060405160405180910390a35050565b5f73ffffffffffffffffffffffffffffffffffffffff168273ffffffffffffffffffffffffffffffffffffffff1603611f0f575f6040517fced3e100000000000000000000000000000000000000000000000000000000008152600401611f06919061339f565b60405180910390fd5b8060015f8573ffffffffffffffffffffffffffffffffffffffff1673ffffffffffffffffffffffffffffffffffffffff1681526020019081526020015f205f8473ffffffffffffffffffffffffffffffffffffffff1673ffffffffffffffffffffffffffffffffffffffff1681526020019081526020015f205f6101000a81548160ff0219169083151502179055508173ffffffffffffffffffffffffffffffffffffffff168373ffffffffffffffffffffffffffffffffffffffff167f17307eab39ab6107e8899845ad3d59bd9653f200f220920489ca2b5937696c3183604051611ffb9190612a76565b60405180910390a3505050565b5f73ffffffffffffffffffffffffffffffffffffffff168473ffffffffffffffffffffffffffffffffffffffff1603612078575f6040517f57f447ce00000000000000000000000000000000000000000000000000000000815260040161206f919061339f565b60405180910390fd5b5f73ffffffffffffffffffffffffffffffffffffffff168573ffffffffffffffffffffffffffffffffffffffff16036120e8575f6040517f01a835140000000000000000000000000000000000000000000000000000000081526004016120df919061339f565b60405180910390fd5b5f806120f4858561210e565b91509150612105878784848761213e565b50505050505050565b60608060405191506001825283602083015260408201905060018152826020820152604081016040529250929050565b61214a858585856121ea565b5f73ffffffffffffffffffffffffffffffffffffffff168473ffffffffffffffffffffffffffffffffffffffff16146121e3575f612186611cbb565b905060018451036121d2575f6121a55f86611dc990919063ffffffff16565b90505f6121bb5f86611dc990919063ffffffff16565b90506121cb83898985858961257a565b50506121e1565b6121e0818787878787612729565b5b505b5050505050565b805182511461223457815181516040517f5b05999100000000000000000000000000000000000000000000000000000000815260040161222b92919061390e565b60405180910390fd5b5f61223d611cbb565b90505f5b8351811015612439575f61225e8286611dc990919063ffffffff16565b90505f6122748386611dc990919063ffffffff16565b90505f73ffffffffffffffffffffffffffffffffffffffff168873ffffffffffffffffffffffffffffffffffffffff1614612397575f805f8481526020019081526020015f205f8a73ffffffffffffffffffffffffffffffffffffffff1673ffffffffffffffffffffffffffffffffffffffff1681526020019081526020015f205490508181101561234357888183856040517f03dee4c500000000000000000000000000000000000000000000000000000000815260040161233a9493929190613a89565b60405180910390fd5b8181035f808581526020019081526020015f205f8b73ffffffffffffffffffffffffffffffffffffffff1673ffffffffffffffffffffffffffffffffffffffff1681526020019081526020015f2081905550505b5f73ffffffffffffffffffffffffffffffffffffffff168773ffffffffffffffffffffffffffffffffffffffff161461242c57805f808481526020019081526020015f205f8973ffffffffffffffffffffffffffffffffffffffff1673ffffffffffffffffffffffffffffffffffffffff1681526020019081526020015f205f828254612424919061352a565b925050819055505b5050806001019050612241565b5060018351036124f4575f6124575f85611dc990919063ffffffff16565b90505f61246d5f85611dc990919063ffffffff16565b90508573ffffffffffffffffffffffffffffffffffffffff168773ffffffffffffffffffffffffffffffffffffffff168473ffffffffffffffffffffffffffffffffffffffff167fc3d58168c5ae7397731d063d5bbf3d657854427343f4c083240f7aacaa2d0f6285856040516124e592919061390e565b60405180910390a45050612573565b8373ffffffffffffffffffffffffffffffffffffffff168573ffffffffffffffffffffffffffffffffffffffff168273ffffffffffffffffffffffffffffffffffffffff167f4a39dc06d4c0dbc64b70af90fd698a233a518aa5d07e595d983b8c0526c8f7fb868660405161256a929190613acc565b60405180910390a45b5050505050565b5f8473ffffffffffffffffffffffffffffffffffffffff163b1115612721578373ffffffffffffffffffffffffffffffffffffffff1663f23a6e6187878686866040518663ffffffff1660e01b81526004016125da959493929190613b53565b6020604051808303815f875af192505050801561261557506040513d601f19601f820116820180604052508101906126129190613bbf565b60015b612696573d805f8114612643576040519150601f19603f3d011682016040523d82523d5f602084013e612648565b606091505b505f81510361268e57846040517f57f447ce000000000000000000000000000000000000000000000000000000008152600401612685919061339f565b60405180910390fd5b805160208201fd5b63f23a6e6160e01b7bffffffffffffffffffffffffffffffffffffffffffffffffffffffff1916817bffffffffffffffffffffffffffffffffffffffffffffffffffffffff19161461271f57846040517f57f447ce000000000000000000000000000000000000000000000000000000008152600401612716919061339f565b60405180910390fd5b505b505050505050565b5f8473ffffffffffffffffffffffffffffffffffffffff163b11156128d0578373ffffffffffffffffffffffffffffffffffffffff1663bc197c8187878686866040518663ffffffff1660e01b8152600401612789959493929190613bea565b6020604051808303815f875af19250505080156127c457506040513d601f19601f820116820180604052508101906127c19190613bbf565b60015b612845573d805f81146127f2576040519150601f19603f3d011682016040523d82523d5f602084013e6127f7565b606091505b505f81510361283d57846040517f57f447ce000000000000000000000000000000000000000000000000000000008152600401612834919061339f565b60405180910390fd5b805160208201fd5b63bc197c8160e01b7bffffffffffffffffffffffffffffffffffffffffffffffffffffffff1916817bffffffffffffffffffffffffffffffffffffffffffffffffffffffff1916146128ce57846040517f57f447ce0000000000000000000000000000000000000000000000000000000081526004016128c5919061339f565b60405180910390fd5b505b505050505050565b5f604051905090565b5f80fd5b5f80fd5b5f73ffffffffffffffffffffffffffffffffffffffff82169050919050565b5f612912826128e9565b9050919050565b61292281612908565b811461292c575f80fd5b50565b5f8135905061293d81612919565b92915050565b5f819050919050565b61295581612943565b811461295f575f80fd5b50565b5f813590506129708161294c565b92915050565b5f806040838503121561298c5761298b6128e1565b5b5f6129998582860161292f565b92505060206129aa85828601612962565b9150509250929050565b6129bd81612943565b82525050565b5f6020820190506129d65f8301846129b4565b92915050565b5f7fffffffff0000000000000000000000000000000000000000000000000000000082169050919050565b612a10816129dc565b8114612a1a575f80fd5b50565b5f81359050612a2b81612a07565b92915050565b5f60208284031215612a4657612a456128e1565b5b5f612a5384828501612a1d565b91505092915050565b5f8115159050919050565b612a7081612a5c565b82525050565b5f602082019050612a895f830184612a67565b92915050565b5f805f60608486031215612aa657612aa56128e1565b5b5f612ab38682870161292f565b9350506020612ac486828701612962565b9250506040612ad586828701612962565b9150509250925092565b5f80fd5b5f80fd5b5f601f19601f8301169050919050565b7f4e487b71000000000000000000000000000000000000000000000000000000005f52604160045260245ffd5b612b2d82612ae7565b810181811067ffffffffffffffff82111715612b4c57612b4b612af7565b5b80604052505050565b5f612b5e6128d8565b9050612b6a8282612b24565b919050565b5f67ffffffffffffffff821115612b8957612b88612af7565b5b612b9282612ae7565b9050602081019050919050565b828183375f83830152505050565b5f612bbf612bba84612b6f565b612b55565b905082815260208101848484011115612bdb57612bda612ae3565b5b612be6848285612b9f565b509392505050565b5f82601f830112612c0257612c01612adf565b5b8135612c12848260208601612bad565b91505092915050565b5f60208284031215612c3057612c2f6128e1565b5b5f82013567ffffffffffffffff811115612c4d57612c4c6128e5565b5b612c5984828501612bee565b91505092915050565b612c6b81612a5c565b8114612c75575f80fd5b50565b5f81359050612c8681612c62565b92915050565b5f805f60608486031215612ca357612ca26128e1565b5b5f612cb086828701612962565b9350506020612cc186828701612962565b9250506040612cd286828701612c78565b9150509250925092565b5f60208284031215612cf157612cf06128e1565b5b5f612cfe84828501612962565b91505092915050565b5f81519050919050565b5f82825260208201905092915050565b5f5b83811015612d3e578082015181840152602081019050612d23565b5f8484015250505050565b5f612d5382612d07565b612d5d8185612d11565b9350612d6d818560208601612d21565b612d7681612ae7565b840191505092915050565b5f6020820190508181035f830152612d998184612d49565b905092915050565b5f60208284031215612db657612db56128e1565b5b5f612dc38482850161292f565b91505092915050565b5f8060408385031215612de257612de16128e1565b5b5f612def85828601612962565b9250506020612e0085828601612962565b9150509250929050565b5f80fd5b5f80fd5b5f8083601f840112612e2757612e26612adf565b5b8235905067ffffffffffffffff811115612e4457612e43612e0a565b5b602083019150836001820283011115612e6057612e5f612e0e565b5b9250929050565b5f805f60408486031215612e7e57612e7d6128e1565b5b5f84013567ffffffffffffffff811115612e9b57612e9a6128e5565b5b612ea786828701612e12565b93509350506020612eba86828701612962565b9150509250925092565b5f67ffffffffffffffff821115612ede57612edd612af7565b5b602082029050602081019050919050565b5f612f01612efc84612ec4565b612b55565b90508083825260208201905060208402830185811115612f2457612f23612e0e565b5b835b81811015612f4d5780612f398882612962565b845260208401935050602081019050612f26565b5050509392505050565b5f82601f830112612f6b57612f6a612adf565b5b8135612f7b848260208601612eef565b91505092915050565b5f67ffffffffffffffff821115612f9e57612f9d612af7565b5b612fa782612ae7565b9050602081019050919050565b5f612fc6612fc184612f84565b612b55565b905082815260208101848484011115612fe257612fe1612ae3565b5b612fed848285612b9f565b509392505050565b5f82601f83011261300957613008612adf565b5b8135613019848260208601612fb4565b91505092915050565b5f805f805f60a0868803121561303b5761303a6128e1565b5b5f6130488882890161292f565b95505060206130598882890161292f565b945050604086013567ffffffffffffffff81111561307a576130796128e5565b5b61308688828901612f57565b935050606086013567ffffffffffffffff8111156130a7576130a66128e5565b5b6130b388828901612f57565b925050608086013567ffffffffffffffff8111156130d4576130d36128e5565b5b6130e088828901612ff5565b9150509295509295909350565b5f60a0820190508181035f8301526131058188612d49565b905061311460208301876129b4565b6131216040830186612a67565b61312e60608301856129b4565b61313b60808301846129b4565b9695505050505050565b5f67ffffffffffffffff82111561315f5761315e612af7565b5b602082029050602081019050919050565b5f61318261317d84613145565b612b55565b905080838252602082019050602084028301858111156131a5576131a4612e0e565b5b835b818110156131ce57806131ba888261292f565b8452602084019350506020810190506131a7565b5050509392505050565b5f82601f8301126131ec576131eb612adf565b5b81356131fc848260208601613170565b91505092915050565b5f806040838503121561321b5761321a6128e1565b5b5f83013567ffffffffffffffff811115613238576132376128e5565b5b613244858286016131d8565b925050602083013567ffffffffffffffff811115613265576132646128e5565b5b61327185828601612f57565b9150509250929050565b5f81519050919050565b5f82825260208201905092915050565b5f819050602082019050919050565b6132ad81612943565b82525050565b5f6132be83836132a4565b60208301905092915050565b5f602082019050919050565b5f6132e08261327b565b6132ea8185613285565b93506132f583613295565b805f5b8381101561332557815161330c88826132b3565b9750613317836132ca565b9250506001810190506132f8565b5085935050505092915050565b5f6020820190508181035f83015261334a81846132d6565b905092915050565b5f8060408385031215613368576133676128e1565b5b5f6133758582860161292f565b925050602061338685828601612c78565b9150509250929050565b61339981612908565b82525050565b5f6020820190506133b25f830184613390565b92915050565b5f819050919050565b5f6133db6133d66133d1846128e9565b6133b8565b6128e9565b9050919050565b5f6133ec826133c1565b9050919050565b5f6133fd826133e2565b9050919050565b61340d816133f3565b82525050565b5f6020820190506134265f830184613404565b92915050565b5f8060408385031215613442576134416128e1565b5b5f61344f8582860161292f565b92505060206134608582860161292f565b9150509250929050565b5f805f805f60a08688031215613483576134826128e1565b5b5f6134908882890161292f565b95505060206134a18882890161292f565b94505060406134b288828901612962565b93505060606134c388828901612962565b925050608086013567ffffffffffffffff8111156134e4576134e36128e5565b5b6134f088828901612ff5565b9150509295509295909350565b7f4e487b71000000000000000000000000000000000000000000000000000000005f52601160045260245ffd5b5f61353482612943565b915061353f83612943565b9250828201905080821115613557576135566134fd565b5b92915050565b5f6040820190506135705f8301856129b4565b61357d6020830184612a67565b9392505050565b7f4e487b71000000000000000000000000000000000000000000000000000000005f52602260045260245ffd5b5f60028204905060018216806135c857607f821691505b6020821081036135db576135da613584565b5b50919050565b5f6135eb82612943565b91507fffffffffffffffffffffffffffffffffffffffffffffffffffffffffffffffff820361361d5761361c6134fd565b5b600182019050919050565b5f819050815f5260205f209050919050565b5f6020601f8301049050919050565b5f82821b905092915050565b5f600883026136847fffffffffffffffffffffffffffffffffffffffffffffffffffffffffffffffff82613649565b61368e8683613649565b95508019841693508086168417925050509392505050565b5f6136c06136bb6136b684612943565b6133b8565b612943565b9050919050565b5f819050919050565b6136d9836136a6565b6136ed6136e5826136c7565b848454613655565b825550505050565b5f90565b6137016136f5565b61370c8184846136d0565b505050565b5b8181101561372f576137245f826136f9565b600181019050613712565b5050565b601f8211156137745761374581613628565b61374e8461363a565b8101602085101561375d578190505b6137716137698561363a565b830182613711565b50505b505050565b5f82821c905092915050565b5f6137945f1984600802613779565b1980831691505092915050565b5f6137ac8383613785565b9150826002028217905092915050565b6137c582612d07565b67ffffffffffffffff8111156137de576137dd612af7565b5b6137e882546135b1565b6137f3828285613733565b5f60209050601f831160018114613824575f8415613812578287015190505b61381c85826137a1565b865550613883565b601f19841661383286613628565b5f5b8281101561385957848901518255600182019150602085019450602081019050613834565b868310156138765784890151613872601f891682613785565b8355505b6001600288020188555050505b505050505050565b5f6138968385612d11565b93506138a3838584612b9f565b6138ac83612ae7565b840190509392505050565b5f6040820190508181035f8301526138d081858761388b565b90506138df60208301846129b4565b949350505050565b5f6040820190506138fa5f830185613390565b6139076020830184613390565b9392505050565b5f6040820190506139215f8301856129b4565b61392e60208301846129b4565b9392505050565b7f4e487b71000000000000000000000000000000000000000000000000000000005f52603260045260245ffd5b5f61396c82612943565b915061397783612943565b925082820261398581612943565b9150828204841483151761399c5761399b6134fd565b5b5092915050565b5f815190506139b18161294c565b92915050565b5f602082840312156139cc576139cb6128e1565b5b5f6139d9848285016139a3565b91505092915050565b5f6060820190506139f55f830186613390565b613a026020830185613390565b613a0f60408301846129b4565b949350505050565b5f81519050613a2581612c62565b92915050565b5f60208284031215613a4057613a3f6128e1565b5b5f613a4d84828501613a17565b91505092915050565b5f613a6082612943565b9150613a6b83612943565b9250828203905081811115613a8357613a826134fd565b5b92915050565b5f608082019050613a9c5f830187613390565b613aa960208301866129b4565b613ab660408301856129b4565b613ac360608301846129b4565b95945050505050565b5f6040820190508181035f830152613ae481856132d6565b90508181036020830152613af881846132d6565b90509392505050565b5f81519050919050565b5f82825260208201905092915050565b5f613b2582613b01565b613b2f8185613b0b565b9350613b3f818560208601612d21565b613b4881612ae7565b840191505092915050565b5f60a082019050613b665f830188613390565b613b736020830187613390565b613b8060408301866129b4565b613b8d60608301856129b4565b8181036080830152613b9f8184613b1b565b90509695505050505050565b5f81519050613bb981612a07565b92915050565b5f60208284031215613bd457613bd36128e1565b5b5f613be184828501613bab565b91505092915050565b5f60a082019050613bfd5f830188613390565b613c0a6020830187613390565b8181036040830152613c1c81866132d6565b90508181036060830152613c3081856132d6565b90508181036080830152613c448184613b1b565b9050969550505050505056fea264697066735822122044d8fecf92edab7a46d3d4c9025dede21dbf8ec0829d068163d8f26d698aa15964736f6c63430008180033",
    "linkReferences": {}
  },
  "methodIdentifiers": {
    "balanceOf(address,uint256)": "00fdd58e",
    "balanceOfBatch(address[],uint256[])": "4e1273f4",
    "createVoucherType(string,uint256)": "25dd8f83",
    "getUserRedemptions(address,uint256)": "bb0e309a",
    "getVoucherBalance(address,uint256)": "b907af47",
    "getVoucherType(uint256)": "5c3ee868",
    "grantVoucher(address,uint256,uint256)": "02c3d124",
    "isApprovedForAll(address,address)": "e985e9c5",
    "isOperator(address)": "6d70f7ae",
    "kasturiToken()": "df6aeead",
    "owner()": "8da5cb5b",
    "purchaseVoucher(uint256,uint256)": "80bc8f27",
    "redeemVoucher(uint256,uint256)": "25551067",
    "renounceOwnership()": "715018a6",
    "safeBatchTransferFrom(address,address,uint256[],uint256[],bytes)": "2eb2c2d6",
    "safeTransferFrom(address,address,uint256,uint256,bytes)": "f242432a",
    "setApprovalForAll(address,bool)": "a22cb465",
    "setKasturiToken(address)": "23cbce78",
    "setOperator(address,bool)": "558a7297",
    "setURI(string)": "02fe5305",
    "supportsInterface(bytes4)": "01ffc9a7",
    "totalVoucherTypes()": "e178898b",
    "transferOwnership(address)": "f2fde38b",
    "updateVoucherType(uint256,uint256,bool)": "03360db6",
    "uri(uint256)": "0e89341c",
    "userRedemptions(address,uint256)": "6625e90c",
    "voucherTypes(uint256)": "4dbc0583"
  },
  "id": 50
}