{
  "abi": [
    {
      "type": "constructor",
      "inputs": [],
      "stateMutability": "nonpayable"
    },
    {
      "type": "function",
      "name": "allowance",
      "inputs": [
        {
          "name": "owner",
          "type": "address",
          "internalType": "address"
        },
        {
          "name": "spender",
          "type": "address",
          "internalType": "address"
        }
      ],
      "outputs": [
        {
          "name": "",
          "type": "uint256",
          "internalType": "uint256"
        }
      ],
      "stateMutability": "view"
    },
    {
      "type": "function",
      "name": "approve",
      "inputs": [
        {
          "name": "spender",
          "type": "address",
          "internalType": "address"
        },
        {
          "name": "value",
          "type": "uint256",
          "internalType": "uint256"
        }
      ],
      "outputs": [
        {
          "name": "",
          "type": "bool",
          "internalType": "bool"
        }
      ],
      "stateMutability": "nonpayable"
    },
    {
      "type": "function",
      "name": "balanceOf",
      "inputs": [
        {
          "name": "account",
          "type": "address",
          "internalType": "address"
        }
      ],
      "outputs": [
        {
          "name": "",
          "type": "uint256",
          "internalType": "uint256"
        }
      ],
      "stateMutability": "view"
    },
    {
      "type": "function",
      "name": "burn",
      "inputs": [
        {
          "name": "amount",
          "type": "uint256",
          "internalType": "uint256"
        }
      ],
      "outputs": [],
      "stateMutability": "nonpayable"
    },
    {
      "type": "function",
      "name": "burnFrom",
      "inputs": [
        {
          "name": "user",
          "type": "address",
          "internalType": "address"
        },
        {
          "name": "amount",
          "type": "uint256",
          "internalType": "uint256"
        }
      ],
      "outputs": [],
      "stateMutability": "nonpayable"
    },
    {
      "type": "function",
      "name": "canClaimFaucet",
      "inputs": [
        {
          "name": "user",
          "type": "address",
          "internalType": "address"
        }
      ],
      "outputs": [
        {
          "name": "",
          "type": "bool",
          "internalType": "bool"
        }
      ],
      "stateMutability": "view"
    },
    {
      "type": "function",
      "name": "claimFaucet",
      "inputs": [],
      "outputs": [],
      "stateMutability": "nonpayable"
    },
    {
      "type": "function",
      "name": "claimTokens",
      "inputs": [
        {
          "name": "user",
          "type": "address",
          "internalType": "address"
        },
        {
          "name": "expAmount",
          "type": "uint256",
          "internalType": "uint256"
        },
        {
          "name": "tokenAmount",
          "type": "uint256",
          "internalType": "uint256"
        }
      ],
      "outputs": [],
      "stateMutability": "nonpayable"
    },
    {
      "type": "function",
      "name": "decimals",
      "inputs": [],
      "outputs": [
        {
          "name": "",
          "type": "uint8",
          "internalType": "uint8"
        }
      ],
      "stateMutability": "view"
    },
    {
      "type": "function",
      "name": "faucetAmount",
      "inputs": [],
      "outputs": [
        {
          "name": "",
          "type": "uint256",
          "internalType": "uint256"
        }
      ],
      "stateMutability": "view"
    },
    {
      "type": "function",
      "name": "faucetCooldown",
      "inputs": [],
      "outputs": [
        {
          "name": "",
          "type": "uint256",
          "internalType": "uint256"
        }
      ],
      "stateMutability": "view"
    },
    {
      "type": "function",
      "name": "faucetEnabled",
      "inputs": [],
      "outputs": [
        {
          "name": "",
          "type": "bool",
          "internalType": "bool"
        }
      ],
      "stateMutability": "view"
    },
    {
      "type": "function",
      "name": "getClaimedEXP",
      "inputs": [
        {
          "name": "user",
          "type": "address",
          "internalType": "address"
        }
      ],
      "outputs": [
        {
          "name": "",
          "type": "uint256",
          "internalType": "uint256"
        }
      ],
      "stateMutability": "view"
    },
    {
      "type": "function",
      "name": "isMinter",
      "inputs": [
        {
          "name": "minter",
          "type": "address",
          "internalType": "address"
        }
      ],
      "outputs": [
        {
          "name": "",
          "type": "bool",
          "internalType": "bool"
        }
      ],
      "stateMutability": "view"
    },
    {
      "type": "function",
      "name": "lastFaucetClaim",
      "inputs": [
        {
          "name": "",
          "type": "address",
          "internalType": "address"
        }
      ],
      "outputs": [
        {
          "name": "",
          "type": "uint256",
          "internalType": "uint256"
        }
      ],
      "stateMutability": "view"
    },
    {
      "type": "function",
      "name": "name",
      "inputs": [],
      "outputs": [
        {
          "name": "",
          "type": "string",
          "internalType": "string"
        }
      ],
      "stateMutability": "view"
    },
    {
      "type": "function",
      "name": "owner",
      "inputs": [],
      "outputs": [
        {
          "name": "",
          "type": "address",
          "internalType": "address"
        }
      ],
      "stateMutability": "view"
    },
    {
      "type": "function",
      "name": "renounceOwnership",
      "inputs": [],
      "outputs": [],
      "stateMutability": "nonpayable"
    },
    {
      "type": "function",
      "name": "setFaucetConfig",
      "inputs": [
        {
          "name": "amount",
          "type": "uint256",
          "internalType": "uint256"
        },
        {
          "name": "cooldown",
          "type": "uint256",
          "internalType": "uint256"
        },
        {
          "name": "enabled",
          "type": "bool",
          "internalType": "bool"
        }
      ],
      "outputs": [],
      "stateMutability": "nonpayable"
    },
    {
      "type": "function",
      "name": "setMinter",
      "inputs": [
        {
          "name": "minter",
          "type": "address",
          "internalType": "address"
        },
        {
          "name": "status",
          "type": "bool",
          "internalType": "bool"
        }
      ],
      "outputs": [],
      "stateMutability": "nonpayable"
    },
    {
      "type": "function",
      "name": "symbol",
      "inputs": [],
      "outputs": [
        {
          "name": "",
          "type": "string",
          "internalType": "string"
        }
      ],
      "stateMutability": "view"
    },
    {
      "type": "function",
      "name": "timeUntilNextClaim",
      "inputs": [
        {
          "name": "user",
          "type": "address",
          "internalType": "address"
        }
      ],
      "outputs": [
        {
          "name": "",
          "type": "uint256",
          "internalType": "uint256"
        }
      ],
      "stateMutability": "view"
    },
    {
      "type": "function",
      "name": "totalSupply",
      "inputs": [],
      "outputs": [
        {
          "name": "",
          "type": "uint256",
          "internalType": "uint256"
        }
      ],
      "stateMutability": "view"
    },
    {
      "type": "function",
      "name": "transfer",
      "inputs": [
        {
          "name": "to",
          "type": "address",
          "internalType": "address"
        },
        {
          "name": "value",
          "type": "uint256",
          "internalType": "uint256"
        }
      ],
      "outputs": [
        {
          "name": "",
          "type": "bool",
          "internalType": "bool"
        }
      ],
      "stateMutability": "nonpayable"
    },
    {
      "type": "function",
      "name": "transferFrom",
      "inputs": [
        {
          "name": "from",
          "type": "address",
          "internalType": "address"
        },
        {
          "name": "to",
          "type": "address",
          "internalType": "address"
        },
        {
          "name": "value",
          "type": "uint256",
          "internalType": "uint256"
        }
      ],
      "outputs": [
        {
          "name": "",
          "type": "bool",
          "internalType": "bool"
        }
      ],
      "stateMutability": "nonpayable"
    },
    {
      "type": "function",
      "name": "transferOwnership",
      "inputs": [
        {
          "name": "newOwner",
          "type": "address",
          "internalType": "address"
        }
      ],
      "outputs": [],
      "stateMutability": "nonpayable"
    },
    {
      "type": "event",
      "name": "Approval",
      "inputs": [
        {
          "name": "owner",
          "type": "address",
          "indexed": true,
          "internalType": "address"
        },
        {
          "name": "spender",
          "type": "address",
          "indexed": true,
          "internalType": "address"
        },
        {
          "name": "value",
          "type": "uint256",
          "indexed": false,
          "internalType": "uint256"
        }
      ],
      "anonymous": false
    },
    {
      "type": "event",
      "name": "FaucetClaimed",
      "inputs": [
        {
          "name": "user",
          "type": "address",
          "indexed": true,
          "internalType": "address"
        },
        {
          "name": "amount",
          "type": "uint256",
          "indexed": false,
          "internalType": "uint256"
        }
      ],
      "anonymous": false
    },
    {
      "type": "event",
      "name": "FaucetConfigUpdated",
      "inputs": [
        {
          "name": "amount",
          "type": "uint256",
          "indexed": false,
          "internalType": "uint256"
        },
        {
          "name": "cooldown",
          "type": "uint256",
          "indexed": false,
          "internalType": "uint256"
        },
        {
          "name": "enabled",
          "type": "bool",
          "indexed": false,
          "internalType": "bool"
        }
      ],
      "anonymous": false
    },
    {
      "type": "event",
      "name": "MinterUpdated",
      "inputs": [
        {
          "name": "minter",
          "type": "address",
          "indexed": true,
          "internalType": "address"
        },
        {
          "name": "status",
          "type": "bool",
          "indexed": false,
          "internalType": "bool"
        }
      ],
      "anonymous": false
    },
    {
      "type": "event",
      "name": "OwnershipTransferred",
      "inputs": [
        {
          "name": "previousOwner",
          "type": "address",
          "indexed": true,
          "internalType": "address"
        },
        {
          "name": "newOwner",
          "type": "address",
          "indexed": true,
          "internalType": "address"
        }
      ],
      "anonymous": false
    },
    {
      "type": "event",
      "name": "TokensBurned",
      "inputs": [
        {
          "name": "user",
          "type": "address",
          "indexed": true,
          "internalType": "address"
        },
        {
          "name": "amount",
          "type": "uint256",
          "indexed": false,
          "internalType": "uint256"
        }
      ],
      "anonymous": false
    },
    {
      "type": "event",
      "name": "TokensClaimed",
      "inputs": [
        {
          "name": "user",
          "type": "address",
          "indexed": true,
          "internalType": "address"
        },
        {
          "name": "expAmount",
          "type": "uint256",
          "indexed": false,
          "internalType": "uint256"
        },
        {
          "name": "tokenAmount",
          "type": "uint256",
          "indexed": false,
          "internalType": "uint256"
        }
      ],
      "anonymous": false
    },
    {
      "type": "event",
      "name": "Transfer",
      "inputs": [
        {
          "name": "from",
          "type": "address",
          "indexed": true,
          "internalType": "address"
        },
        {
          "name": "to",
          "type": "address",
          "indexed": true,
          "internalType": "address"
        },
        {
          "name": "value",
          "type": "uint256",
          "indexed": false,
          "internalType": "uint256"
        }
      ],
      "anonymous": false
    },
    {
      "type": "error",
      "name": "ERC20InsufficientAllowance",
      "inputs": [
        {
          "name": "spender",
          "type": "address",
          "internalType": "address"
        },
        {
          "name": "allowance",
          "type": "uint256",
          "internalType": "uint256"
        },
        {
          "name": "needed",
          "type": "uint256",
          "internalType": "uint256"
        }
      ]
    },
    {
      "type": "error",
      "name": "ERC20InsufficientBalance",
      "inputs": [
        {
          "name": "sender",
          "type": "address",
          "internalType": "address"
        },
        {
          "name": "balance",
          "type": "uint256",
          "internalType": "uint256"
        },
        {
          "name": "needed",
          "type": "uint256",
          "internalType": "uint256"
        }
      ]
    },
    {
      "type": "error",
      "name": "ERC20InvalidApprover",
      "inputs": [
        {
          "name": "approver",
          "type": "address",
          "internalType": "address"
        }
      ]
    },
    {
      "type": "error",
      "name": "ERC20InvalidReceiver",
      "inputs": [
        {
          "name": "receiver",
          "type": "address",
          "internalType": "address"
        }
      ]
    },
    {
      "type": "error",
      "name": "ERC20InvalidSender",
      "inputs": [
        {
          "name": "sender",
          "type": "address",
          "internalType": "address"
        }
      ]
    },
    {
      "type": "error",
      "name": "ERC20InvalidSpender",
      "inputs": [
        {
          "name": "spender",
          "type": "address",
          "internalType": "address"
        }
      ]
    },
    {
      "type": "error",
      "name": "FaucetCooldownActive",
      "inputs": []
    },
    {
      "type": "error",
      "name": "FaucetDisabled",
      "inputs": []
    },
    {
      "type": "error",
      "name": "InsufficientBalance",
      "inputs": []
    },
    {
      "type": "error",
      "name": "InvalidAddress",
      "inputs": []
    },
    {
      "type": "error",
      "name": "InvalidAmount",
      "inputs": []
    },
    {
      "type": "error",
      "name": "OwnableInvalidOwner",
      "inputs": [
        {
          "name": "owner",
          "type": "address",
          "internalType": "address"
        }
      ]
    },
    {
      "type": "error",
      "name": "OwnableUnauthorizedAccount",
      "inputs": [
        {
          "name": "account",
          "type": "address",
          "internalType": "address"
        }
      ]
    },
    {
      "type": "error",
      "name": "UnauthorizedMinter",
      "inputs": []
    }
  ],
  "bytecode": {
    "object": "0x6080604052683635c9adc5dea00000600855620151806009556001600a5f6101000a81548160ff0219169083151502179055503480156200003e575f80fd5b50336040518060400160405280600d81526020017f4b61737475726920546f6b656e000000000000000000000000000000000000008152506040518060400160405280600781526020017f4b415354555249000000000000000000000000000000000000000000000000008152508160039081620000bd919062000484565b508060049081620000cf919062000484565b5050505f73ffffffffffffffffffffffffffffffffffffffff168173ffffffffffffffffffffffffffffffffffffffff160362000145575f6040517f1e4fbdf70000000000000000000000000000000000000000000000000000000081526004016200013c9190620005ab565b60405180910390fd5b62000156816200015d60201b60201c565b50620005c6565b5f60055f9054906101000a900473ffffffffffffffffffffffffffffffffffffffff1690508160055f6101000a81548173ffffffffffffffffffffffffffffffffffffffff021916908373ffffffffffffffffffffffffffffffffffffffff1602179055508173ffffffffffffffffffffffffffffffffffffffff168173ffffffffffffffffffffffffffffffffffffffff167f8be0079c531659141344cd1fd0a4f28419497f9722a3daafe3b4186f6b6457e060405160405180910390a35050565b5f81519050919050565b7f4e487b71000000000000000000000000000000000000000000000000000000005f52604160045260245ffd5b7f4e487b71000000000000000000000000000000000000000000000000000000005f52602260045260245ffd5b5f60028204905060018216806200029c57607f821691505b602082108103620002b257620002b162000257565b5b50919050565b5f819050815f5260205f209050919050565b5f6020601f8301049050919050565b5f82821b905092915050565b5f60088302620003167fffffffffffffffffffffffffffffffffffffffffffffffffffffffffffffffff82620002d9565b620003228683620002d9565b95508019841693508086168417925050509392505050565b5f819050919050565b5f819050919050565b5f6200036c6200036662000360846200033a565b62000343565b6200033a565b9050919050565b5f819050919050565b62000387836200034c565b6200039f620003968262000373565b848454620002e5565b825550505050565b5f90565b620003b5620003a7565b620003c28184846200037c565b505050565b5b81811015620003e957620003dd5f82620003ab565b600181019050620003c8565b5050565b601f82111562000438576200040281620002b8565b6200040d84620002ca565b810160208510156200041d578190505b620004356200042c85620002ca565b830182620003c7565b50505b505050565b5f82821c905092915050565b5f6200045a5f19846008026200043d565b1980831691505092915050565b5f62000474838362000449565b9150826002028217905092915050565b6200048f8262000220565b67ffffffffffffffff811115620004ab57620004aa6200022a565b5b620004b7825462000284565b620004c4828285620003ed565b5f60209050601f831160018114620004fa575f8415620004e5578287015190505b620004f1858262000467565b86555062000560565b601f1984166200050a86620002b8565b5f5b8281101562000533578489015182556001820191506020850194506020810190506200050c565b868310156200055357848901516200054f601f89168262000449565b8355505b6001600288020188555050505b505050505050565b5f73ffffffffffffffffffffffffffffffffffffffff82169050919050565b5f620005938262000568565b9050919050565b620005a58162000587565b82525050565b5f602082019050620005c05f8301846200059a565b92915050565b61207d80620005d45f395ff3fe608060405234801561000f575f80fd5b506004361061018c575f3560e01c806379cc6790116100dc5780639c28143011610095578063cf456ae71161006f578063cf456ae714610498578063dd62ed3e146104b4578063f2fde38b146104e4578063fd572f64146105005761018c565b80639c2814301461041a578063a9059cbb14610438578063aa271e1a146104685761018c565b806379cc6790146103445780637e36320b146103605780638a8772051461037e5780638da5cb5b146103ae57806392d82dbe146103cc57806395d89b41146103fc5761018c565b8063313ce567116101495780635d1c3f04116101235780635d1c3f04146102d05780635d8504ba146102ee57806370a082311461030a578063715018a61461033a5761018c565b8063313ce5671461028c57806342966c68146102aa5780634fe15335146102c65761018c565b806301d8a2961461019057806306fdde03146101c0578063095ea7b3146101de57806311d8d1a71461020e57806318160ddd1461023e57806323b872dd1461025c575b5f80fd5b6101aa60048036038101906101a59190611b08565b61051c565b6040516101b79190611b4d565b60405180910390f35b6101c86105db565b6040516101d59190611bf0565b60405180910390f35b6101f860048036038101906101f39190611c43565b61066b565b6040516102059190611b4d565b60405180910390f35b61022860048036038101906102239190611b08565b61068d565b6040516102359190611c90565b60405180910390f35b6102466106d3565b6040516102539190611c90565b60405180910390f35b61027660048036038101906102719190611ca9565b6106dc565b6040516102839190611b4d565b60405180910390f35b61029461070a565b6040516102a19190611d14565b60405180910390f35b6102c460048036038101906102bf9190611d2d565b610712565b005b6102ce6107e8565b005b6102d8610996565b6040516102e59190611b4d565b60405180910390f35b61030860048036038101906103039190611d58565b6109a8565b005b610324600480360381019061031f9190611b08565b610bb9565b6040516103319190611c90565b60405180910390f35b610342610bfe565b005b61035e60048036038101906103599190611c43565b610c11565b005b610368610e0e565b6040516103759190611c90565b60405180910390f35b61039860048036038101906103939190611b08565b610e14565b6040516103a59190611c90565b60405180910390f35b6103b6610e29565b6040516103c39190611db7565b60405180910390f35b6103e660048036038101906103e19190611b08565b610e51565b6040516103f39190611c90565b60405180910390f35b610404610f4c565b6040516104119190611bf0565b60405180910390f35b610422610fdc565b60405161042f9190611c90565b60405180910390f35b610452600480360381019061044d9190611c43565b610fe2565b60405161045f9190611b4d565b60405180910390f35b610482600480360381019061047d9190611b08565b611004565b60405161048f9190611b4d565b60405180910390f35b6104b260048036038101906104ad9190611dfa565b611056565b005b6104ce60048036038101906104c99190611e38565b611169565b6040516104db9190611c90565b60405180910390f35b6104fe60048036038101906104f99190611b08565b6111eb565b005b61051a60048036038101906105159190611e76565b61126f565b005b5f600a5f9054906101000a900460ff16610538575f90506105d6565b5f600b5f8473ffffffffffffffffffffffffffffffffffffffff1673ffffffffffffffffffffffffffffffffffffffff1681526020019081526020015f20540361058557600190506105d6565b600954600b5f8473ffffffffffffffffffffffffffffffffffffffff1673ffffffffffffffffffffffffffffffffffffffff1681526020019081526020015f20546105d09190611ef3565b42101590505b919050565b6060600380546105ea90611f53565b80601f016020809104026020016040519081016040528092919081815260200182805461061690611f53565b80156106615780601f1061063857610100808354040283529160200191610661565b820191905f5260205f20905b81548152906001019060200180831161064457829003601f168201915b5050505050905090565b5f806106756112de565b90506106828185856112e5565b600191505092915050565b5f60075f8373ffffffffffffffffffffffffffffffffffffffff1673ffffffffffffffffffffffffffffffffffffffff1681526020019081526020015f20549050919050565b5f600254905090565b5f806106e66112de565b90506106f38582856112f7565b6106fe85858561138a565b60019150509392505050565b5f6012905090565b5f810361074b576040517f2c5211c600000000000000000000000000000000000000000000000000000000815260040160405180910390fd5b8061075533610bb9565b101561078d576040517ff4d678b800000000000000000000000000000000000000000000000000000000815260040160405180910390fd5b610797338261147a565b3373ffffffffffffffffffffffffffffffffffffffff167ffd38818f5291bf0bb3a2a48aadc06ba8757865d1dabd804585338aab3009dcb6826040516107dd9190611c90565b60405180910390a250565b600a5f9054906101000a900460ff1661082d576040517fe87ab86700000000000000000000000000000000000000000000000000000000815260040160405180910390fd5b5f600b5f3373ffffffffffffffffffffffffffffffffffffffff1673ffffffffffffffffffffffffffffffffffffffff1681526020019081526020015f2054146108f657600954600b5f3373ffffffffffffffffffffffffffffffffffffffff1673ffffffffffffffffffffffffffffffffffffffff1681526020019081526020015f20546108bc9190611ef3565b4210156108f5576040517f85d9f78c00000000000000000000000000000000000000000000000000000000815260040160405180910390fd5b5b42600b5f3373ffffffffffffffffffffffffffffffffffffffff1673ffffffffffffffffffffffffffffffffffffffff1681526020019081526020015f2081905550610944336008546114f9565b3373ffffffffffffffffffffffffffffffffffffffff167f5d4f415c63cd8a5874d9d291cdd64cec37e5dc236d90d659c958d109d78074b360085460405161098c9190611c90565b60405180910390a2565b600a5f9054906101000a900460ff1681565b60065f3373ffffffffffffffffffffffffffffffffffffffff1673ffffffffffffffffffffffffffffffffffffffff1681526020019081526020015f205f9054906101000a900460ff16158015610a325750610a02610e29565b73ffffffffffffffffffffffffffffffffffffffff163373ffffffffffffffffffffffffffffffffffffffff1614155b15610a69576040517f955c501b00000000000000000000000000000000000000000000000000000000815260040160405180910390fd5b5f73ffffffffffffffffffffffffffffffffffffffff168373ffffffffffffffffffffffffffffffffffffffff1603610ace576040517fe6c4247b00000000000000000000000000000000000000000000000000000000815260040160405180910390fd5b5f8103610b07576040517f2c5211c600000000000000000000000000000000000000000000000000000000815260040160405180910390fd5b8160075f8573ffffffffffffffffffffffffffffffffffffffff1673ffffffffffffffffffffffffffffffffffffffff1681526020019081526020015f205f828254610b539190611ef3565b92505081905550610b6483826114f9565b8273ffffffffffffffffffffffffffffffffffffffff167f9923b4306c6c030f2bdfbf156517d5983b87e15b96176da122cd4f2effa4ba7b8383604051610bac929190611f83565b60405180910390a2505050565b5f805f8373ffffffffffffffffffffffffffffffffffffffff1673ffffffffffffffffffffffffffffffffffffffff1681526020019081526020015f20549050919050565b610c06611578565b610c0f5f6115ff565b565b60065f3373ffffffffffffffffffffffffffffffffffffffff1673ffffffffffffffffffffffffffffffffffffffff1681526020019081526020015f205f9054906101000a900460ff16158015610c9b5750610c6b610e29565b73ffffffffffffffffffffffffffffffffffffffff163373ffffffffffffffffffffffffffffffffffffffff1614155b15610cd2576040517f955c501b00000000000000000000000000000000000000000000000000000000815260040160405180910390fd5b5f73ffffffffffffffffffffffffffffffffffffffff168273ffffffffffffffffffffffffffffffffffffffff1603610d37576040517fe6c4247b00000000000000000000000000000000000000000000000000000000815260040160405180910390fd5b5f8103610d70576040517f2c5211c600000000000000000000000000000000000000000000000000000000815260040160405180910390fd5b80610d7a83610bb9565b1015610db2576040517ff4d678b800000000000000000000000000000000000000000000000000000000815260040160405180910390fd5b610dbc828261147a565b8173ffffffffffffffffffffffffffffffffffffffff167ffd38818f5291bf0bb3a2a48aadc06ba8757865d1dabd804585338aab3009dcb682604051610e029190611c90565b60405180910390a25050565b60095481565b600b602052805f5260405f205f915090505481565b5f60055f9054906101000a900473ffffffffffffffffffffffffffffffffffffffff16905090565b5f600a5f9054906101000a900460ff16610e8d577fffffffffffffffffffffffffffffffffffffffffffffffffffffffffffffffff9050610f47565b5f600b5f8473ffffffffffffffffffffffffffffffffffffffff1673ffffffffffffffffffffffffffffffffffffffff1681526020019081526020015f205403610ed9575f9050610f47565b5f600954600b5f8573ffffffffffffffffffffffffffffffffffffffff1673ffffffffffffffffffffffffffffffffffffffff1681526020019081526020015f2054610f259190611ef3565b9050804210610f37575f915050610f47565b4281610f439190611faa565b9150505b919050565b606060048054610f5b90611f53565b80601f0160208091040260200160405190810160405280929190818152602001828054610f8790611f53565b8015610fd25780601f10610fa957610100808354040283529160200191610fd2565b820191905f5260205f20905b815481529060010190602001808311610fb557829003601f168201915b5050505050905090565b60085481565b5f80610fec6112de565b9050610ff981858561138a565b600191505092915050565b5f60065f8373ffffffffffffffffffffffffffffffffffffffff1673ffffffffffffffffffffffffffffffffffffffff1681526020019081526020015f205f9054906101000a900460ff169050919050565b61105e611578565b5f73ffffffffffffffffffffffffffffffffffffffff168273ffffffffffffffffffffffffffffffffffffffff16036110c3576040517fe6c4247b00000000000000000000000000000000000000000000000000000000815260040160405180910390fd5b8060065f8473ffffffffffffffffffffffffffffffffffffffff1673ffffffffffffffffffffffffffffffffffffffff1681526020019081526020015f205f6101000a81548160ff0219169083151502179055508173ffffffffffffffffffffffffffffffffffffffff167fb21afb9ce9be0a676f8f317ff0ca072fb89a4f8ce2d1b6fe80f8755c14f1cb198260405161115d9190611b4d565b60405180910390a25050565b5f60015f8473ffffffffffffffffffffffffffffffffffffffff1673ffffffffffffffffffffffffffffffffffffffff1681526020019081526020015f205f8373ffffffffffffffffffffffffffffffffffffffff1673ffffffffffffffffffffffffffffffffffffffff1681526020019081526020015f2054905092915050565b6111f3611578565b5f73ffffffffffffffffffffffffffffffffffffffff168173ffffffffffffffffffffffffffffffffffffffff1603611263575f6040517f1e4fbdf700000000000000000000000000000000000000000000000000000000815260040161125a9190611db7565b60405180910390fd5b61126c816115ff565b50565b611277611578565b826008819055508160098190555080600a5f6101000a81548160ff0219169083151502179055507f2c678f8966f3ff105d1744687a5866fee1db39ec75ea3cc4893bbe16454be5168383836040516112d193929190611fdd565b60405180910390a1505050565b5f33905090565b6112f283838360016116c2565b505050565b5f6113028484611169565b90507fffffffffffffffffffffffffffffffffffffffffffffffffffffffffffffffff8110156113845781811015611375578281836040517ffb8f41b200000000000000000000000000000000000000000000000000000000815260040161136c93929190612012565b60405180910390fd5b61138384848484035f6116c2565b5b50505050565b5f73ffffffffffffffffffffffffffffffffffffffff168373ffffffffffffffffffffffffffffffffffffffff16036113fa575f6040517f96c6fd1e0000000000000000000000000000000000000000000000000000000081526004016113f19190611db7565b60405180910390fd5b5f73ffffffffffffffffffffffffffffffffffffffff168273ffffffffffffffffffffffffffffffffffffffff160361146a575f6040517fec442f050000000000000000000000000000000000000000000000000000000081526004016114619190611db7565b60405180910390fd5b611475838383611891565b505050565b5f73ffffffffffffffffffffffffffffffffffffffff168273ffffffffffffffffffffffffffffffffffffffff16036114ea575f6040517f96c6fd1e0000000000000000000000000000000000000000000000000000000081526004016114e19190611db7565b60405180910390fd5b6114f5825f83611891565b5050565b5f73ffffffffffffffffffffffffffffffffffffffff168273ffffffffffffffffffffffffffffffffffffffff1603611569575f6040517fec442f050000000000000000000000000000000000000000000000000000000081526004016115609190611db7565b60405180910390fd5b6115745f8383611891565b5050565b6115806112de565b73ffffffffffffffffffffffffffffffffffffffff1661159e610e29565b73ffffffffffffffffffffffffffffffffffffffff16146115fd576115c16112de565b6040517f118cdaa70000000000000000000000000000000000000000000000000000000081526004016115f49190611db7565b60405180910390fd5b565b5f60055f9054906101000a900473ffffffffffffffffffffffffffffffffffffffff1690508160055f6101000a81548173ffffffffffffffffffffffffffffffffffffffff021916908373ffffffffffffffffffffffffffffffffffffffff1602179055508173ffffffffffffffffffffffffffffffffffffffff168173ffffffffffffffffffffffffffffffffffffffff167f8be0079c531659141344cd1fd0a4f28419497f9722a3daafe3b4186f6b6457e060405160405180910390a35050565b5f73ffffffffffffffffffffffffffffffffffffffff168473ffffffffffffffffffffffffffffffffffffffff1603611732575f6040517fe602df050000000000000000000000000000000000000000000000000000000081526004016117299190611db7565b60405180910390fd5b5f73ffffffffffffffffffffffffffffffffffffffff168373ffffffffffffffffffffffffffffffffffffffff16036117a2575f6040517f94280d620000000000000000000000000000000000000000000000000000000081526004016117999190611db7565b60405180910390fd5b8160015f8673ffffffffffffffffffffffffffffffffffffffff1673ffffffffffffffffffffffffffffffffffffffff1681526020019081526020015f205f8573ffffffffffffffffffffffffffffffffffffffff1673ffffffffffffffffffffffffffffffffffffffff1681526020019081526020015f2081905550801561188b578273ffffffffffffffffffffffffffffffffffffffff168473ffffffffffffffffffffffffffffffffffffffff167f8c5be1e5ebec7d5bd14f71427d1e84f3dd0314c0f7b2291e5b200ac8c7c3b925846040516118829190611c90565b60405180910390a35b50505050565b5f73ffffffffffffffffffffffffffffffffffffffff168373ffffffffffffffffffffffffffffffffffffffff16036118e1578060025f8282546118d59190611ef3565b925050819055506119af565b5f805f8573ffffffffffffffffffffffffffffffffffffffff1673ffffffffffffffffffffffffffffffffffffffff1681526020019081526020015f205490508181101561196a578381836040517fe450d38c00000000000000000000000000000000000000000000000000000000815260040161196193929190612012565b60405180910390fd5b8181035f808673ffffffffffffffffffffffffffffffffffffffff1673ffffffffffffffffffffffffffffffffffffffff1681526020019081526020015f2081905550505b5f73ffffffffffffffffffffffffffffffffffffffff168273ffffffffffffffffffffffffffffffffffffffff16036119f6578060025f8282540392505081905550611a40565b805f808473ffffffffffffffffffffffffffffffffffffffff1673ffffffffffffffffffffffffffffffffffffffff1681526020019081526020015f205f82825401925050819055505b8173ffffffffffffffffffffffffffffffffffffffff168373ffffffffffffffffffffffffffffffffffffffff167fddf252ad1be2c89b69c2b068fc378daa952ba7f163c4a11628f55a4df523b3ef83604051611a9d9190611c90565b60405180910390a3505050565b5f80fd5b5f73ffffffffffffffffffffffffffffffffffffffff82169050919050565b5f611ad782611aae565b9050919050565b611ae781611acd565b8114611af1575f80fd5b50565b5f81359050611b0281611ade565b92915050565b5f60208284031215611b1d57611b1c611aaa565b5b5f611b2a84828501611af4565b91505092915050565b5f8115159050919050565b611b4781611b33565b82525050565b5f602082019050611b605f830184611b3e565b92915050565b5f81519050919050565b5f82825260208201905092915050565b5f5b83811015611b9d578082015181840152602081019050611b82565b5f8484015250505050565b5f601f19601f8301169050919050565b5f611bc282611b66565b611bcc8185611b70565b9350611bdc818560208601611b80565b611be581611ba8565b840191505092915050565b5f6020820190508181035f830152611c088184611bb8565b905092915050565b5f819050919050565b611c2281611c10565b8114611c2c575f80fd5b50565b5f81359050611c3d81611c19565b92915050565b5f8060408385031215611c5957611c58611aaa565b5b5f611c6685828601611af4565b9250506020611c7785828601611c2f565b9150509250929050565b611c8a81611c10565b82525050565b5f602082019050611ca35f830184611c81565b92915050565b5f805f60608486031215611cc057611cbf611aaa565b5b5f611ccd86828701611af4565b9350506020611cde86828701611af4565b9250506040611cef86828701611c2f565b9150509250925092565b5f60ff82169050919050565b611d0e81611cf9565b82525050565b5f602082019050611d275f830184611d05565b92915050565b5f60208284031215611d4257611d41611aaa565b5b5f611d4f84828501611c2f565b91505092915050565b5f805f60608486031215611d6f57611d6e611aaa565b5b5f611d7c86828701611af4565b9350506020611d8d86828701611c2f565b9250506040611d9e86828701611c2f565b9150509250925092565b611db181611acd565b82525050565b5f602082019050611dca5f830184611da8565b92915050565b611dd981611b33565b8114611de3575f80fd5b50565b5f81359050611df481611dd0565b92915050565b5f8060408385031215611e1057611e0f611aaa565b5b5f611e1d85828601611af4565b9250506020611e2e85828601611de6565b9150509250929050565b5f8060408385031215611e4e57611e4d611aaa565b5b5f611e5b85828601611af4565b9250506020611e6c85828601611af4565b9150509250929050565b5f805f60608486031215611e8d57611e8c611aaa565b5b5f611e9a86828701611c2f565b9350506020611eab86828701611c2f565b9250506040611ebc86828701611de6565b9150509250925092565b7f4e487b71000000000000000000000000000000000000000000000000000000005f52601160045260245ffd5b5f611efd82611c10565b9150611f0883611c10565b9250828201905080821115611f2057611f1f611ec6565b5b92915050565b7f4e487b71000000000000000000000000000000000000000000000000000000005f52602260045260245ffd5b5f6002820490506001821680611f6a57607f821691505b602082108103611f7d57611f7c611f26565b5b50919050565b5f604082019050611f965f830185611c81565b611fa36020830184611c81565b9392505050565b5f611fb482611c10565b9150611fbf83611c10565b9250828203905081811115611fd757611fd6611ec6565b5b92915050565b5f606082019050611ff05f830186611c81565b611ffd6020830185611c81565b61200a6040830184611b3e565b949350505050565b5f6060820190506120255f830186611da8565b6120326020830185611c81565b61203f6040830184611c81565b94935050505056fea264697066735822122064a5bcd1232f633b082e3a049b2c7e6d2e12be3ffcacbc41e0a7554dbb271f6764736f6c63430008180033",
    "linkReferences": {}
  },
  "methodIdentifiers": {
    "allowance(address,address)": "dd62ed3e",
    "approve(address,uint256)": "095ea7b3",
    "balanceOf(address)": "70a08231",
    "burn(uint256)": "42966c68",
    "burnFrom(address,uint256)": "79cc6790",
    "canClaimFaucet(address)": "01d8a296",
    "claimFaucet()": "4fe15335",
    "claimTokens(address,uint256,uint256)": "5d8504ba",
    "decimals()": "313ce567",
    "faucetAmount()": "9c281430",
    "faucetCooldown()": "7e36320b",
    "faucetEnabled()": "5d1c3f04",
    "getClaimedEXP(address)": "11d8d1a7",
    "isMinter(address)": "aa271e1a",
    "lastFaucetClaim(address)": "8a877205",
    "name()": "06fdde03",
    "owner()": "8da5cb5b",
    "renounceOwnership()": "715018a6",
    "setFaucetConfig(uint256,uint256,bool)": "fd572f64",
    "setMinter(address,bool)": "cf456ae7",
    "symbol()": "95d89b41",
    "timeUntilNextClaim(address)": "92d82dbe",
    "totalSupply()": "18160ddd",
    "transfer(address,uint256)": "a9059cbb",
    "transferFrom(address,address,uint256)": "23b872dd",
    "transferOwnership(address)": "f2fde38b"
  },
  "id": 49
}