{
  "abi": [
    {
      "type": "constructor",
      "inputs": [],
      "stateMutability": "nonpayable"
    },
    {
      "type": "function",
      "name": "approve",
      "inputs": [
        {
          "name": "",
          "type": "address",
          "internalType": "address"
        },
        {
          "name": "",
          "type": "uint256",
          "internalType": "uint256"
        }
      ],
      "outputs": [],
      "stateMutability": "pure"
    },
    {
      "type": "function",
      "name": "balanceOf",
      "inputs": [
        {
          "name": "owner",
          "type": "address",
          "internalType": "address"
        }
      ],
      "outputs": [
        {
          "name": "",
          "type": "uint256",
          "internalType": "uint256"
        }
      ],
      "stateMutability": "view"
    },
    {
      "type": "function",
      "name": "getApproved",
      "inputs": [
        {
          "name": "tokenId",
          "type": "uint256",
          "internalType": "uint256"
        }
      ],
      "outputs": [
        {
          "name": "",
          "type": "address",
          "internalType": "address"
        }
      ],
      "stateMutability": "view"
    },
    {
      "type": "function",
      "name": "getCredentialToken",
      "inputs": [
        {
          "name": "user",
          "type": "address",
          "internalType": "address"
        },
        {
          "name": "programId",
          "type": "bytes32",
          "internalType": "bytes32"
        }
      ],
      "outputs": [
        {
          "name": "",
          "type": "uint256",
          "internalType": "uint256"
        }
      ],
      "stateMutability": "view"
    },
    {
      "type": "function",
      "name": "getProgramId",
      "inputs": [
        {
          "name": "tokenId",
          "type": "uint256",
          "internalType": "uint256"
        }
      ],
      "outputs": [
        {
          "name": "",
          "type": "bytes32",
          "internalType": "bytes32"
        }
      ],
      "stateMutability": "view"
    },
    {
      "type": "function",
      "name": "getUserStatus",
      "inputs": [
        {
          "name": "user",
          "type": "address",
          "internalType": "address"
        },
        {
          "name": "programId",
          "type": "bytes32",
          "internalType": "bytes32"
        }
      ],
      "outputs": [
        {
          "name": "completed",
          "type": "bool",
          "internalType": "bool"
        },
        {
          "name": "tokenId",
          "type": "uint256",
          "internalType": "uint256"
        },
        {
          "name": "issuedAt",
          "type": "uint256",
          "internalType": "uint256"
        }
      ],
      "stateMutability": "view"
    },
    {
      "type": "function",
      "name": "hasCredential",
      "inputs": [
        {
          "name": "user",
          "type": "address",
          "internalType": "address"
        },
        {
          "name": "programId",
          "type": "bytes32",
          "internalType": "bytes32"
        }
      ],
      "outputs": [
        {
          "name": "",
          "type": "bool",
          "internalType": "bool"
        }
      ],
      "stateMutability": "view"
    },
    {
      "type": "function",
      "name": "isApprovedForAll",
      "inputs": [
        {
          "name": "owner",
          "type": "address",
          "internalType": "address"
        },
        {
          "name": "operator",
          "type": "address",
          "internalType": "address"
        }
      ],
      "outputs": [
        {
          "name": "",
          "type": "bool",
          "internalType": "bool"
        }
      ],
      "stateMutability": "view"
    },
    {
      "type": "function",
      "name": "isOperator",
      "inputs": [
        {
          "name": "operator",
          "type": "address",
          "internalType": "address"
        }
      ],
      "outputs": [
        {
          "name": "",
          "type": "bool",
          "internalType": "bool"
        }
      ],
      "stateMutability": "view"
    },
    {
      "type": "function",
      "name": "issueCredential",
      "inputs": [
        {
          "name": "user",
          "type": "address",
          "internalType": "address"
        },
        {
          "name": "programId",
          "type": "bytes32",
          "internalType": "bytes32"
        }
      ],
      "outputs": [
        {
          "name": "",
          "type": "uint256",
          "internalType": "uint256"
        }
      ],
      "stateMutability": "nonpayable"
    },
    {
      "type": "function",
      "name": "name",
      "inputs": [],
      "outputs": [
        {
          "name": "",
          "type": "string",
          "internalType": "string"
        }
      ],
      "stateMutability": "view"
    },
    {
      "type": "function",
      "name": "owner",
      "inputs": [],
      "outputs": [
        {
          "name": "",
          "type": "address",
          "internalType": "address"
        }
      ],
      "stateMutability": "view"
    },
    {
      "type": "function",
      "name": "ownerOf",
      "inputs": [
        {
          "name": "tokenId",
          "type": "uint256",
          "internalType": "uint256"
        }
      ],
      "outputs": [
        {
          "name": "",
          "type": "address",
          "internalType": "address"
        }
      ],
      "stateMutability": "view"
    },
    {
      "type": "function",
      "name": "renounceOwnership",
      "inputs": [],
      "outputs": [],
      "stateMutability": "nonpayable"
    },
    {
      "type": "function",
      "name": "safeTransferFrom",
      "inputs": [
        {
          "name": "from",
          "type": "address",
          "internalType": "address"
        },
        {
          "name": "to",
          "type": "address",
          "internalType": "address"
        },
        {
          "name": "tokenId",
          "type": "uint256",
          "internalType": "uint256"
        }
      ],
      "outputs": [],
      "stateMutability": "nonpayable"
    },
    {
      "type": "function",
      "name": "safeTransferFrom",
      "inputs": [
        {
          "name": "from",
          "type": "address",
          "internalType": "address"
        },
        {
          "name": "to",
          "type": "address",
          "internalType": "address"
        },
        {
          "name": "tokenId",
          "type": "uint256",
          "internalType": "uint256"
        },
        {
          "name": "data",
          "type": "bytes",
          "internalType": "bytes"
        }
      ],
      "outputs": [],
      "stateMutability": "nonpayable"
    },
    {
      "type": "function",
      "name": "setApprovalForAll",
      "inputs": [
        {
          "name": "",
          "type": "address",
          "internalType": "address"
        },
        {
          "name": "",
          "type": "bool",
          "internalType": "bool"
        }
      ],
      "outputs": [],
      "stateMutability": "pure"
    },
    {
      "type": "function",
      "name": "setBaseURI",
      "inputs": [
        {
          "name": "baseURI",
          "type": "string",
          "internalType": "string"
        }
      ],
      "outputs": [],
      "stateMutability": "nonpayable"
    },
    {
      "type": "function",
      "name": "setOperator",
      "inputs": [
        {
          "name": "operator",
          "type": "address",
          "internalType": "address"
        },
        {
          "name": "status",
          "type": "bool",
          "internalType": "bool"
        }
      ],
      "outputs": [],
      "stateMutability": "nonpayable"
    },
    {
      "type": "function",
      "name": "supportsInterface",
      "inputs": [
        {
          "name": "interfaceId",
          "type": "bytes4",
          "internalType": "bytes4"
        }
      ],
      "outputs": [
        {
          "name": "",
          "type": "bool",
          "internalType": "bool"
        }
      ],
      "stateMutability": "view"
    },
    {
      "type": "function",
      "name": "symbol",
      "inputs": [],
      "outputs": [
        {
          "name": "",
          "type": "string",
          "internalType": "string"
        }
      ],
      "stateMutability": "view"
    },
    {
      "type": "function",
      "name": "tokenURI",
      "inputs": [
        {
          "name": "tokenId",
          "type": "uint256",
          "internalType": "uint256"
        }
      ],
      "outputs": [
        {
          "name": "",
          "type": "string",
          "internalType": "string"
        }
      ],
      "stateMutability": "view"
    },
    {
      "type": "function",
      "name": "totalCredentials",
      "inputs": [],
      "outputs": [
        {
          "name": "",
          "type": "uint256",
          "internalType": "uint256"
        }
      ],
      "stateMutability": "view"
    },
    {
      "type": "function",
      "name": "transferFrom",
      "inputs": [
        {
          "name": "from",
          "type": "address",
          "internalType": "address"
        },
        {
          "name": "to",
          "type": "address",
          "internalType": "address"
        },
        {
          "name": "tokenId",
          "type": "uint256",
          "internalType": "uint256"
        }
      ],
      "outputs": [],
      "stateMutability": "nonpayable"
    },
    {
      "type": "function",
      "name": "transferOwnership",
      "inputs": [
        {
          "name": "newOwner",
          "type": "address",
          "internalType": "address"
        }
      ],
      "outputs": [],
      "stateMutability": "nonpayable"
    },
    {
      "type": "function",
      "name": "verifyCompletion",
      "inputs": [
        {
          "name": "user",
          "type": "address",
          "internalType": "address"
        },
        {
          "name": "programId",
          "type": "bytes32",
          "internalType": "bytes32"
        }
      ],
      "outputs": [
        {
          "name": "completed",
          "type": "bool",
          "internalType": "bool"
        }
      ],
      "stateMutability": "view"
    },
    {
      "type": "event",
      "name": "Approval",
      "inputs": [
        {
          "name": "owner",
          "type": "address",
          "indexed": true,
          "internalType": "address"
        },
        {
          "name": "approved",
          "type": "address",
          "indexed": true,
          "internalType": "address"
        },
        {
          "name": "tokenId",
          "type": "uint256",
          "indexed": true,
          "internalType": "uint256"
        }
      ],
      "anonymous": false
    },
    {
      "type": "event",
      "name": "ApprovalForAll",
      "inputs": [
        {
          "name": "owner",
          "type": "address",
          "indexed": true,
          "internalType": "address"
        },
        {
          "name": "operator",
          "type": "address",
          "indexed": true,
          "internalType": "address"
        },
        {
          "name": "approved",
          "type": "bool",
          "indexed": false,
          "internalType": "bool"
        }
      ],
      "anonymous": false
    },
    {
      "type": "event",
      "name": "BaseURIUpdated",
      "inputs": [
        {
          "name": "newBaseURI",
          "type": "string",
          "indexed": false,
          "internalType": "string"
        }
      ],
      "anonymous": false
    },
    {
      "type": "event",
      "name": "CredentialIssued",
      "inputs": [
        {
          "name": "user",
          "type": "address",
          "indexed": true,
          "internalType": "address"
        },
        {
          "name": "programId",
          "type": "bytes32",
          "indexed": true,
          "internalType": "bytes32"
        },
        {
          "name": "tokenId",
          "type": "uint256",
          "indexed": false,
          "internalType": "uint256"
        }
      ],
      "anonymous": false
    },
    {
      "type": "event",
      "name": "OperatorUpdated",
      "inputs": [
        {
          "name": "operator",
          "type": "address",
          "indexed": true,
          "internalType": "address"
        },
        {
          "name": "status",
          "type": "bool",
          "indexed": false,
          "internalType": "bool"
        }
      ],
      "anonymous": false
    },
    {
      "type": "event",
      "name": "OwnershipTransferred",
      "inputs": [
        {
          "name": "previousOwner",
          "type": "address",
          "indexed": true,
          "internalType": "address"
        },
        {
          "name": "newOwner",
          "type": "address",
          "indexed": true,
          "internalType": "address"
        }
      ],
      "anonymous": false
    },
    {
      "type": "event",
      "name": "Transfer",
      "inputs": [
        {
          "name": "from",
          "type": "address",
          "indexed": true,
          "internalType": "address"
        },
        {
          "name": "to",
          "type": "address",
          "indexed": true,
          "internalType": "address"
        },
        {
          "name": "tokenId",
          "type": "uint256",
          "indexed": true,
          "internalType": "uint256"
        }
      ],
      "anonymous": false
    },
    {
      "type": "error",
      "name": "AlreadyCompleted",
      "inputs": []
    },
    {
      "type": "error",
      "name": "ERC721IncorrectOwner",
      "inputs": [
        {
          "name": "sender",
          "type": "address",
          "internalType": "address"
        },
        {
          "name": "tokenId",
          "type": "uint256",
          "internalType": "uint256"
        },
        {
          "name": "owner",
          "type": "address",
          "internalType": "address"
        }
      ]
    },
    {
      "type": "error",
      "name": "ERC721InsufficientApproval",
      "inputs": [
        {
          "name": "operator",
          "type": "address",
          "internalType": "address"
        },
        {
          "name": "tokenId",
          "type": "uint256",
          "internalType": "uint256"
        }
      ]
    },
    {
      "type": "error",
      "name": "ERC721InvalidApprover",
      "inputs": [
        {
          "name": "approver",
          "type": "address",
          "internalType": "address"
        }
      ]
    },
    {
      "type": "error",
      "name": "ERC721InvalidOperator",
      "inputs": [
        {
          "name": "operator",
          "type": "address",
          "internalType": "address"
        }
      ]
    },
    {
      "type": "error",
      "name": "ERC721InvalidOwner",
      "inputs": [
        {
          "name": "owner",
          "type": "address",
          "internalType": "address"
        }
      ]
    },
    {
      "type": "error",
      "name": "ERC721InvalidReceiver",
      "inputs": [
        {
          "name": "receiver",
          "type": "address",
          "internalType": "address"
        }
      ]
    },
    {
      "type": "error",
      "name": "ERC721InvalidSender",
      "inputs": [
        {
          "name": "sender",
          "type": "address",
          "internalType": "address"
        }
      ]
    },
    {
      "type": "error",
      "name": "ERC721NonexistentToken",
      "inputs": [
        {
          "name": "tokenId",
          "type": "uint256",
          "internalType": "uint256"
        }
      ]
    },
    {
      "type": "error",
      "name": "InvalidAddress",
      "inputs": []
    },
    {
      "type": "error",
      "name": "InvalidProgram",
      "inputs": []
    },
    {
      "type": "error",
      "name": "NonTransferableToken",
      "inputs": []
    },
    {
      "type": "error",
      "name": "OwnableInvalidOwner",
      "inputs": [
        {
          "name": "owner",
          "type": "address",
          "internalType": "address"
        }
      ]
    },
    {
      "type": "error",
      "name": "OwnableUnauthorizedAccount",
      "inputs": [
        {
          "name": "account",
          "type": "address",
          "internalType": "address"
        }
      ]
    },
    {
      "type": "error",
      "name": "UnauthorizedAction",
      "inputs": []
    }
  ],
  "bytecode": {
    "object": "0x608060405234801562000010575f80fd5b50336040518060400160405280601b81526020017f4b617374757269204c6561726e696e672043726564656e7469616c00000000008152506040518060400160405280600b81526020017f4b4153545552492d534254000000000000000000000000000000000000000000815250815f90816200008e91906200045d565b508060019081620000a091906200045d565b5050505f73ffffffffffffffffffffffffffffffffffffffff168173ffffffffffffffffffffffffffffffffffffffff160362000116575f6040517f1e4fbdf70000000000000000000000000000000000000000000000000000000081526004016200010d919062000584565b60405180910390fd5b62000127816200013660201b60201c565b5060016007819055506200059f565b5f60065f9054906101000a900473ffffffffffffffffffffffffffffffffffffffff1690508160065f6101000a81548173ffffffffffffffffffffffffffffffffffffffff021916908373ffffffffffffffffffffffffffffffffffffffff1602179055508173ffffffffffffffffffffffffffffffffffffffff168173ffffffffffffffffffffffffffffffffffffffff167f8be0079c531659141344cd1fd0a4f28419497f9722a3daafe3b4186f6b6457e060405160405180910390a35050565b5f81519050919050565b7f4e487b71000000000000000000000000000000000000000000000000000000005f52604160045260245ffd5b7f4e487b71000000000000000000000000000000000000000000000000000000005f52602260045260245ffd5b5f60028204905060018216806200027557607f821691505b6020821081036200028b576200028a62000230565b5b50919050565b5f819050815f5260205f209050919050565b5f6020601f8301049050919050565b5f82821b905092915050565b5f60088302620002ef7fffffffffffffffffffffffffffffffffffffffffffffffffffffffffffffffff82620002b2565b620002fb8683620002b2565b95508019841693508086168417925050509392505050565b5f819050919050565b5f819050919050565b5f620003456200033f620003398462000313565b6200031c565b62000313565b9050919050565b5f819050919050565b620003608362000325565b620003786200036f826200034c565b848454620002be565b825550505050565b5f90565b6200038e62000380565b6200039b81848462000355565b505050565b5b81811015620003c257620003b65f8262000384565b600181019050620003a1565b5050565b601f8211156200041157620003db8162000291565b620003e684620002a3565b81016020851015620003f6578190505b6200040e6200040585620002a3565b830182620003a0565b50505b505050565b5f82821c905092915050565b5f620004335f198460080262000416565b1980831691505092915050565b5f6200044d838362000422565b9150826002028217905092915050565b6200046882620001f9565b67ffffffffffffffff81111562000484576200048362000203565b5b6200049082546200025d565b6200049d828285620003c6565b5f60209050601f831160018114620004d3575f8415620004be578287015190505b620004ca858262000440565b86555062000539565b601f198416620004e38662000291565b5f5b828110156200050c57848901518255600182019150602085019450602081019050620004e5565b868310156200052c578489015162000528601f89168262000422565b8355505b6001600288020188555050505b505050505050565b5f73ffffffffffffffffffffffffffffffffffffffff82169050919050565b5f6200056c8262000541565b9050919050565b6200057e8162000560565b82525050565b5f602082019050620005995f83018462000573565b92915050565b612cb480620005ad5f395ff3fe608060405234801561000f575f80fd5b506004361061018c575f3560e01c806370a08231116100dc578063a22cb46511610095578063c87b56dd1161006f578063c87b56dd146104b8578063e985e9c5146104e8578063f2fde38b14610518578063fa21e314146105345761018c565b8063a22cb46514610450578063b4e5a8de1461046c578063b88d4fde1461049c5761018c565b806370a082311461037a578063715018a6146103aa57806389b125fa146103b45780638da5cb5b146103e457806395d89b41146104025780639db416bf146104205761018c565b80632a48198e1161014957806355f804b31161012357806355f804b3146102ce5780635b8b92e6146102ea5780636352211e1461031a5780636d70f7ae1461034a5761018c565b80632a48198e1461026457806342842e0e14610296578063558a7297146102b25761018c565b806301ffc9a71461019057806306fdde03146101c0578063081812fc146101de578063095ea7b31461020e5780631513d62b1461022a57806323b872dd14610248575b5f80fd5b6101aa60048036038101906101a59190612066565b610564565b6040516101b791906120ab565b60405180910390f35b6101c8610645565b6040516101d5919061214e565b60405180910390f35b6101f860048036038101906101f391906121a1565b6106d4565b604051610205919061220b565b60405180910390f35b6102286004803603810190610223919061224e565b6106ef565b005b610232610721565b60405161023f919061229b565b60405180910390f35b610262600480360381019061025d91906122b4565b610736565b005b61027e60048036038101906102799190612337565b610835565b60405161028d93929190612375565b60405180910390f35b6102b060048036038101906102ab91906122b4565b6108b4565b005b6102cc60048036038101906102c791906123d4565b6108d3565b005b6102e860048036038101906102e39190612473565b6109e6565b005b61030460048036038101906102ff9190612337565b610a3d565b60405161031191906120ab565b60405180910390f35b610334600480360381019061032f91906121a1565b610a96565b604051610341919061220b565b60405180910390f35b610364600480360381019061035f91906124be565b610aa7565b60405161037191906120ab565b60405180910390f35b610394600480360381019061038f91906124be565b610af9565b6040516103a1919061229b565b60405180910390f35b6103b2610baf565b005b6103ce60048036038101906103c991906121a1565b610bc2565b6040516103db91906124f8565b60405180910390f35b6103ec610bdc565b6040516103f9919061220b565b60405180910390f35b61040a610c04565b604051610417919061214e565b60405180910390f35b61043a60048036038101906104359190612337565b610c94565b60405161044791906120ab565b60405180910390f35b61046a600480360381019061046591906123d4565b610ced565b005b61048660048036038101906104819190612337565b610d1f565b604051610493919061229b565b60405180910390f35b6104b660048036038101906104b19190612639565b611003565b005b6104d260048036038101906104cd91906121a1565b611028565b6040516104df919061214e565b60405180910390f35b61050260048036038101906104fd91906126b9565b61108e565b60405161050f91906120ab565b60405180910390f35b610532600480360381019061052d91906124be565b61111c565b005b61054e60048036038101906105499190612337565b6111a0565b60405161055b919061229b565b60405180910390f35b5f7f80ac58cd000000000000000000000000000000000000000000000000000000007bffffffffffffffffffffffffffffffffffffffffffffffffffffffff1916827bffffffffffffffffffffffffffffffffffffffffffffffffffffffff1916148061062e57507f5b5e139f000000000000000000000000000000000000000000000000000000007bffffffffffffffffffffffffffffffffffffffffffffffffffffffff1916827bffffffffffffffffffffffffffffffffffffffffffffffffffffffff1916145b8061063e575061063d826111f6565b5b9050919050565b60605f805461065390612724565b80601f016020809104026020016040519081016040528092919081815260200182805461067f90612724565b80156106ca5780601f106106a1576101008083540402835291602001916106ca565b820191905f5260205f20905b8154815290600101906020018083116106ad57829003601f168201915b5050505050905090565b5f6106de8261125f565b506106e8826112e5565b9050919050565b6040517f30d4e75d00000000000000000000000000000000000000000000000000000000815260040160405180910390fd5b5f60016007546107319190612781565b905090565b5f73ffffffffffffffffffffffffffffffffffffffff168273ffffffffffffffffffffffffffffffffffffffff16036107a6575f6040517f64a0ae9200000000000000000000000000000000000000000000000000000000815260040161079d919061220b565b60405180910390fd5b5f6107b983836107b461131e565b611325565b90508373ffffffffffffffffffffffffffffffffffffffff168173ffffffffffffffffffffffffffffffffffffffff161461082f578382826040517f64283d7b000000000000000000000000000000000000000000000000000000008152600401610826939291906127b4565b60405180910390fd5b50505050565b5f805f60095f8673ffffffffffffffffffffffffffffffffffffffff1673ffffffffffffffffffffffffffffffffffffffff1681526020019081526020015f205f8581526020019081526020015f205491505f821415925082610898575f6108ab565b600b5f8381526020019081526020015f20545b90509250925092565b6108ce83838360405180602001604052805f815250611003565b505050565b6108db6113e6565b5f73ffffffffffffffffffffffffffffffffffffffff168273ffffffffffffffffffffffffffffffffffffffff1603610940576040517fe6c4247b00000000000000000000000000000000000000000000000000000000815260040160405180910390fd5b8060085f8473ffffffffffffffffffffffffffffffffffffffff1673ffffffffffffffffffffffffffffffffffffffff1681526020019081526020015f205f6101000a81548160ff0219169083151502179055508173ffffffffffffffffffffffffffffffffffffffff167f966c160e1c4dbc7df8d69af4ace01e9297c3cf016397b7914971f2fbfa32672d826040516109da91906120ab565b60405180910390a25050565b6109ee6113e6565b8181600c91826109ff929190612990565b507f6741b2fc379fad678116fe3d4d4b9a1a184ab53ba36b86ad0fa66340b1ab41ad8282604051610a31929190612a89565b60405180910390a15050565b5f8060095f8573ffffffffffffffffffffffffffffffffffffffff1673ffffffffffffffffffffffffffffffffffffffff1681526020019081526020015f205f8481526020019081526020015f20541415905092915050565b5f610aa08261125f565b9050919050565b5f60085f8373ffffffffffffffffffffffffffffffffffffffff1673ffffffffffffffffffffffffffffffffffffffff1681526020019081526020015f205f9054906101000a900460ff169050919050565b5f8073ffffffffffffffffffffffffffffffffffffffff168273ffffffffffffffffffffffffffffffffffffffff1603610b6a575f6040517f89c62b64000000000000000000000000000000000000000000000000000000008152600401610b61919061220b565b60405180910390fd5b60035f8373ffffffffffffffffffffffffffffffffffffffff1673ffffffffffffffffffffffffffffffffffffffff1681526020019081526020015f20549050919050565b610bb76113e6565b610bc05f61146d565b565b5f600a5f8381526020019081526020015f20549050919050565b5f60065f9054906101000a900473ffffffffffffffffffffffffffffffffffffffff16905090565b606060018054610c1390612724565b80601f0160208091040260200160405190810160405280929190818152602001828054610c3f90612724565b8015610c8a5780601f10610c6157610100808354040283529160200191610c8a565b820191905f5260205f20905b815481529060010190602001808311610c6d57829003601f168201915b5050505050905090565b5f8060095f8573ffffffffffffffffffffffffffffffffffffffff1673ffffffffffffffffffffffffffffffffffffffff1681526020019081526020015f205f8481526020019081526020015f20541415905092915050565b6040517f30d4e75d00000000000000000000000000000000000000000000000000000000815260040160405180910390fd5b5f610d28610bdc565b73ffffffffffffffffffffffffffffffffffffffff163373ffffffffffffffffffffffffffffffffffffffff1614158015610daa575060085f3373ffffffffffffffffffffffffffffffffffffffff1673ffffffffffffffffffffffffffffffffffffffff1681526020019081526020015f205f9054906101000a900460ff16155b15610de1576040517f843800fa00000000000000000000000000000000000000000000000000000000815260040160405180910390fd5b5f73ffffffffffffffffffffffffffffffffffffffff168373ffffffffffffffffffffffffffffffffffffffff1603610e46576040517fe6c4247b00000000000000000000000000000000000000000000000000000000815260040160405180910390fd5b5f801b8203610e81576040517f22d55eab00000000000000000000000000000000000000000000000000000000815260040160405180910390fd5b5f60095f8573ffffffffffffffffffffffffffffffffffffffff1673ffffffffffffffffffffffffffffffffffffffff1681526020019081526020015f205f8481526020019081526020015f205414610f06576040517f195332a500000000000000000000000000000000000000000000000000000000815260040160405180910390fd5b5f600754905060075f815480929190610f1e90612aab565b9190505550610f2d8482611530565b8060095f8673ffffffffffffffffffffffffffffffffffffffff1673ffffffffffffffffffffffffffffffffffffffff1681526020019081526020015f205f8581526020019081526020015f208190555082600a5f8381526020019081526020015f208190555042600b5f8381526020019081526020015f2081905550828473ffffffffffffffffffffffffffffffffffffffff167f266d5d1db5669b001451ba44353e35547ee39964af029c43340fe64dd3f9ee6d83604051610ff1919061229b565b60405180910390a38091505092915050565b61100e848484610736565b61102261101961131e565b85858585611623565b50505050565b60606110338261125f565b505f61103d6117cf565b90505f81511161105b5760405180602001604052805f815250611086565b806110658461185f565b604051602001611076929190612b2c565b6040516020818303038152906040525b915050919050565b5f60055f8473ffffffffffffffffffffffffffffffffffffffff1673ffffffffffffffffffffffffffffffffffffffff1681526020019081526020015f205f8373ffffffffffffffffffffffffffffffffffffffff1673ffffffffffffffffffffffffffffffffffffffff1681526020019081526020015f205f9054906101000a900460ff16905092915050565b6111246113e6565b5f73ffffffffffffffffffffffffffffffffffffffff168173ffffffffffffffffffffffffffffffffffffffff1603611194575f6040517f1e4fbdf700000000000000000000000000000000000000000000000000000000815260040161118b919061220b565b60405180910390fd5b61119d8161146d565b50565b5f60095f8473ffffffffffffffffffffffffffffffffffffffff1673ffffffffffffffffffffffffffffffffffffffff1681526020019081526020015f205f8381526020019081526020015f2054905092915050565b5f7f01ffc9a7000000000000000000000000000000000000000000000000000000007bffffffffffffffffffffffffffffffffffffffffffffffffffffffff1916827bffffffffffffffffffffffffffffffffffffffffffffffffffffffff1916149050919050565b5f8061126a83611929565b90505f73ffffffffffffffffffffffffffffffffffffffff168173ffffffffffffffffffffffffffffffffffffffff16036112dc57826040517f7e2732890000000000000000000000000000000000000000000000000000000081526004016112d3919061229b565b60405180910390fd5b80915050919050565b5f60045f8381526020019081526020015f205f9054906101000a900473ffffffffffffffffffffffffffffffffffffffff169050919050565b5f33905090565b5f8061133084611929565b90505f73ffffffffffffffffffffffffffffffffffffffff168173ffffffffffffffffffffffffffffffffffffffff161415801561139a57505f73ffffffffffffffffffffffffffffffffffffffff168573ffffffffffffffffffffffffffffffffffffffff1614155b156113d1576040517f30d4e75d00000000000000000000000000000000000000000000000000000000815260040160405180910390fd5b6113dc858585611962565b9150509392505050565b6113ee61131e565b73ffffffffffffffffffffffffffffffffffffffff1661140c610bdc565b73ffffffffffffffffffffffffffffffffffffffff161461146b5761142f61131e565b6040517f118cdaa7000000000000000000000000000000000000000000000000000000008152600401611462919061220b565b60405180910390fd5b565b5f60065f9054906101000a900473ffffffffffffffffffffffffffffffffffffffff1690508160065f6101000a81548173ffffffffffffffffffffffffffffffffffffffff021916908373ffffffffffffffffffffffffffffffffffffffff1602179055508173ffffffffffffffffffffffffffffffffffffffff168173ffffffffffffffffffffffffffffffffffffffff167f8be0079c531659141344cd1fd0a4f28419497f9722a3daafe3b4186f6b6457e060405160405180910390a35050565b5f73ffffffffffffffffffffffffffffffffffffffff168273ffffffffffffffffffffffffffffffffffffffff16036115a0575f6040517f64a0ae92000000000000000000000000000000000000000000000000000000008152600401611597919061220b565b60405180910390fd5b5f6115ac83835f611325565b90505f73ffffffffffffffffffffffffffffffffffffffff168173ffffffffffffffffffffffffffffffffffffffff161461161e575f6040517f73c6ac6e000000000000000000000000000000000000000000000000000000008152600401611615919061220b565b60405180910390fd5b505050565b5f8373ffffffffffffffffffffffffffffffffffffffff163b11156117c8578273ffffffffffffffffffffffffffffffffffffffff1663150b7a02868685856040518563ffffffff1660e01b81526004016116819493929190612ba1565b6020604051808303815f875af19250505080156116bc57506040513d601f19601f820116820180604052508101906116b99190612bff565b60015b61173d573d805f81146116ea576040519150601f19603f3d011682016040523d82523d5f602084013e6116ef565b606091505b505f81510361173557836040517f64a0ae9200000000000000000000000000000000000000000000000000000000815260040161172c919061220b565b60405180910390fd5b805160208201fd5b63150b7a0260e01b7bffffffffffffffffffffffffffffffffffffffffffffffffffffffff1916817bffffffffffffffffffffffffffffffffffffffffffffffffffffffff1916146117c657836040517f64a0ae920000000000000000000000000000000000000000000000000000000081526004016117bd919061220b565b60405180910390fd5b505b5050505050565b6060600c80546117de90612724565b80601f016020809104026020016040519081016040528092919081815260200182805461180a90612724565b80156118555780601f1061182c57610100808354040283529160200191611855565b820191905f5260205f20905b81548152906001019060200180831161183857829003601f168201915b5050505050905090565b60605f600161186d84611b6d565b0190505f8167ffffffffffffffff81111561188b5761188a612515565b5b6040519080825280601f01601f1916602001820160405280156118bd5781602001600182028036833780820191505090505b5090505f82602083010190505b60011561191e578080600190039150507f3031323334353637383961626364656600000000000000000000000000000000600a86061a8153600a858161191357611912612c2a565b5b0494505f85036118ca575b819350505050919050565b5f60025f8381526020019081526020015f205f9054906101000a900473ffffffffffffffffffffffffffffffffffffffff169050919050565b5f8061196d84611929565b90505f73ffffffffffffffffffffffffffffffffffffffff168373ffffffffffffffffffffffffffffffffffffffff16146119ae576119ad818486611cbe565b5b5f73ffffffffffffffffffffffffffffffffffffffff168173ffffffffffffffffffffffffffffffffffffffff1614611a39576119ed5f855f80611d81565b600160035f8373ffffffffffffffffffffffffffffffffffffffff1673ffffffffffffffffffffffffffffffffffffffff1681526020019081526020015f205f82825403925050819055505b5f73ffffffffffffffffffffffffffffffffffffffff168573ffffffffffffffffffffffffffffffffffffffff1614611ab857600160035f8773ffffffffffffffffffffffffffffffffffffffff1673ffffffffffffffffffffffffffffffffffffffff1681526020019081526020015f205f82825401925050819055505b8460025f8681526020019081526020015f205f6101000a81548173ffffffffffffffffffffffffffffffffffffffff021916908373ffffffffffffffffffffffffffffffffffffffff160217905550838573ffffffffffffffffffffffffffffffffffffffff168273ffffffffffffffffffffffffffffffffffffffff167fddf252ad1be2c89b69c2b068fc378daa952ba7f163c4a11628f55a4df523b3ef60405160405180910390a4809150509392505050565b5f805f90507a184f03e93ff9f4daa797ed6e38ed64bf6a1f0100000000000000008310611bc9577a184f03e93ff9f4daa797ed6e38ed64bf6a1f0100000000000000008381611bbf57611bbe612c2a565b5b0492506040810190505b6d04ee2d6d415b85acef81000000008310611c06576d04ee2d6d415b85acef81000000008381611bfc57611bfb612c2a565b5b0492506020810190505b662386f26fc100008310611c3557662386f26fc100008381611c2b57611c2a612c2a565b5b0492506010810190505b6305f5e1008310611c5e576305f5e1008381611c5457611c53612c2a565b5b0492506008810190505b6127108310611c83576127108381611c7957611c78612c2a565b5b0492506004810190505b60648310611ca65760648381611c9c57611c9b612c2a565b5b0492506002810190505b600a8310611cb5576001810190505b80915050919050565b611cc9838383611f40565b611d7c575f73ffffffffffffffffffffffffffffffffffffffff168373ffffffffffffffffffffffffffffffffffffffff1603611d3d57806040517f7e273289000000000000000000000000000000000000000000000000000000008152600401611d34919061229b565b60405180910390fd5b81816040517f177e802f000000000000000000000000000000000000000000000000000000008152600401611d73929190612c57565b60405180910390fd5b505050565b8080611db957505f73ffffffffffffffffffffffffffffffffffffffff168273ffffffffffffffffffffffffffffffffffffffff1614155b15611eeb575f611dc88461125f565b90505f73ffffffffffffffffffffffffffffffffffffffff168373ffffffffffffffffffffffffffffffffffffffff1614158015611e3257508273ffffffffffffffffffffffffffffffffffffffff168173ffffffffffffffffffffffffffffffffffffffff1614155b8015611e455750611e43818461108e565b155b15611e8757826040517fa9fbf51f000000000000000000000000000000000000000000000000000000008152600401611e7e919061220b565b60405180910390fd5b8115611ee957838573ffffffffffffffffffffffffffffffffffffffff168273ffffffffffffffffffffffffffffffffffffffff167f8c5be1e5ebec7d5bd14f71427d1e84f3dd0314c0f7b2291e5b200ac8c7c3b92560405160405180910390a45b505b8360045f8581526020019081526020015f205f6101000a81548173ffffffffffffffffffffffffffffffffffffffff021916908373ffffffffffffffffffffffffffffffffffffffff16021790555050505050565b5f8073ffffffffffffffffffffffffffffffffffffffff168373ffffffffffffffffffffffffffffffffffffffff1614158015611ff757508273ffffffffffffffffffffffffffffffffffffffff168473ffffffffffffffffffffffffffffffffffffffff161480611fb85750611fb7848461108e565b5b80611ff657508273ffffffffffffffffffffffffffffffffffffffff16611fde836112e5565b73ffffffffffffffffffffffffffffffffffffffff16145b5b90509392505050565b5f604051905090565b5f80fd5b5f80fd5b5f7fffffffff0000000000000000000000000000000000000000000000000000000082169050919050565b61204581612011565b811461204f575f80fd5b50565b5f813590506120608161203c565b92915050565b5f6020828403121561207b5761207a612009565b5b5f61208884828501612052565b91505092915050565b5f8115159050919050565b6120a581612091565b82525050565b5f6020820190506120be5f83018461209c565b92915050565b5f81519050919050565b5f82825260208201905092915050565b5f5b838110156120fb5780820151818401526020810190506120e0565b5f8484015250505050565b5f601f19601f8301169050919050565b5f612120826120c4565b61212a81856120ce565b935061213a8185602086016120de565b61214381612106565b840191505092915050565b5f6020820190508181035f8301526121668184612116565b905092915050565b5f819050919050565b6121808161216e565b811461218a575f80fd5b50565b5f8135905061219b81612177565b92915050565b5f602082840312156121b6576121b5612009565b5b5f6121c38482850161218d565b91505092915050565b5f73ffffffffffffffffffffffffffffffffffffffff82169050919050565b5f6121f5826121cc565b9050919050565b612205816121eb565b82525050565b5f60208201905061221e5f8301846121fc565b92915050565b61222d816121eb565b8114612237575f80fd5b50565b5f8135905061224881612224565b92915050565b5f806040838503121561226457612263612009565b5b5f6122718582860161223a565b92505060206122828582860161218d565b9150509250929050565b6122958161216e565b82525050565b5f6020820190506122ae5f83018461228c565b92915050565b5f805f606084860312156122cb576122ca612009565b5b5f6122d88682870161223a565b93505060206122e98682870161223a565b92505060406122fa8682870161218d565b9150509250925092565b5f819050919050565b61231681612304565b8114612320575f80fd5b50565b5f813590506123318161230d565b92915050565b5f806040838503121561234d5761234c612009565b5b5f61235a8582860161223a565b925050602061236b85828601612323565b9150509250929050565b5f6060820190506123885f83018661209c565b612395602083018561228c565b6123a2604083018461228c565b949350505050565b6123b381612091565b81146123bd575f80fd5b50565b5f813590506123ce816123aa565b92915050565b5f80604083850312156123ea576123e9612009565b5b5f6123f78582860161223a565b9250506020612408858286016123c0565b9150509250929050565b5f80fd5b5f80fd5b5f80fd5b5f8083601f84011261243357612432612412565b5b8235905067ffffffffffffffff8111156124505761244f612416565b5b60208301915083600182028301111561246c5761246b61241a565b5b9250929050565b5f806020838503121561248957612488612009565b5b5f83013567ffffffffffffffff8111156124a6576124a561200d565b5b6124b28582860161241e565b92509250509250929050565b5f602082840312156124d3576124d2612009565b5b5f6124e08482850161223a565b91505092915050565b6124f281612304565b82525050565b5f60208201905061250b5f8301846124e9565b92915050565b5f80fd5b7f4e487b71000000000000000000000000000000000000000000000000000000005f52604160045260245ffd5b61254b82612106565b810181811067ffffffffffffffff8211171561256a57612569612515565b5b80604052505050565b5f61257c612000565b90506125888282612542565b919050565b5f67ffffffffffffffff8211156125a7576125a6612515565b5b6125b082612106565b9050602081019050919050565b828183375f83830152505050565b5f6125dd6125d88461258d565b612573565b9050828152602081018484840111156125f9576125f8612511565b5b6126048482856125bd565b509392505050565b5f82601f8301126126205761261f612412565b5b81356126308482602086016125cb565b91505092915050565b5f805f806080858703121561265157612650612009565b5b5f61265e8782880161223a565b945050602061266f8782880161223a565b93505060406126808782880161218d565b925050606085013567ffffffffffffffff8111156126a1576126a061200d565b5b6126ad8782880161260c565b91505092959194509250565b5f80604083850312156126cf576126ce612009565b5b5f6126dc8582860161223a565b92505060206126ed8582860161223a565b9150509250929050565b7f4e487b71000000000000000000000000000000000000000000000000000000005f52602260045260245ffd5b5f600282049050600182168061273b57607f821691505b60208210810361274e5761274d6126f7565b5b50919050565b7f4e487b71000000000000000000000000000000000000000000000000000000005f52601160045260245ffd5b5f61278b8261216e565b91506127968361216e565b92508282039050818111156127ae576127ad612754565b5b92915050565b5f6060820190506127c75f8301866121fc565b6127d4602083018561228c565b6127e160408301846121fc565b949350505050565b5f82905092915050565b5f819050815f5260205f209050919050565b5f6020601f8301049050919050565b5f82821b905092915050565b5f6008830261284f7fffffffffffffffffffffffffffffffffffffffffffffffffffffffffffffffff82612814565b6128598683612814565b95508019841693508086168417925050509392505050565b5f819050919050565b5f61289461288f61288a8461216e565b612871565b61216e565b9050919050565b5f819050919050565b6128ad8361287a565b6128c16128b98261289b565b848454612820565b825550505050565b5f90565b6128d56128c9565b6128e08184846128a4565b505050565b5b81811015612903576128f85f826128cd565b6001810190506128e6565b5050565b601f82111561294857612919816127f3565b61292284612805565b81016020851015612931578190505b61294561293d85612805565b8301826128e5565b50505b505050565b5f82821c905092915050565b5f6129685f198460080261294d565b1980831691505092915050565b5f6129808383612959565b9150826002028217905092915050565b61299a83836127e9565b67ffffffffffffffff8111156129b3576129b2612515565b5b6129bd8254612724565b6129c8828285612907565b5f601f8311600181146129f5575f84156129e3578287013590505b6129ed8582612975565b865550612a54565b601f198416612a03866127f3565b5f5b82811015612a2a57848901358255600182019150602085019450602081019050612a05565b86831015612a475784890135612a43601f891682612959565b8355505b6001600288020188555050505b50505050505050565b5f612a6883856120ce565b9350612a758385846125bd565b612a7e83612106565b840190509392505050565b5f6020820190508181035f830152612aa2818486612a5d565b90509392505050565b5f612ab58261216e565b91507fffffffffffffffffffffffffffffffffffffffffffffffffffffffffffffffff8203612ae757612ae6612754565b5b600182019050919050565b5f81905092915050565b5f612b06826120c4565b612b108185612af2565b9350612b208185602086016120de565b80840191505092915050565b5f612b378285612afc565b9150612b438284612afc565b91508190509392505050565b5f81519050919050565b5f82825260208201905092915050565b5f612b7382612b4f565b612b7d8185612b59565b9350612b8d8185602086016120de565b612b9681612106565b840191505092915050565b5f608082019050612bb45f8301876121fc565b612bc160208301866121fc565b612bce604083018561228c565b8181036060830152612be08184612b69565b905095945050505050565b5f81519050612bf98161203c565b92915050565b5f60208284031215612c1457612c13612009565b5b5f612c2184828501612beb565b91505092915050565b7f4e487b71000000000000000000000000000000000000000000000000000000005f52601260045260245ffd5b5f604082019050612c6a5f8301856121fc565b612c77602083018461228c565b939250505056fea26469706673582212203f51738674ad34c63a5a10343c7c009a6f8af4caac111bdf638a47f5465abab064736f6c63430008180033",
    "linkReferences": {}
  },
  "methodIdentifiers": {
    "approve(address,uint256)": "095ea7b3",
    "balanceOf(address)": "70a08231",
    "getApproved(uint256)": "081812fc",
    "getCredentialToken(address,bytes32)": "fa21e314",
    "getProgramId(uint256)": "89b125fa",
    "getUserStatus(address,bytes32)": "2a48198e",
    "hasCredential(address,bytes32)": "9db416bf",
    "isApprovedForAll(address,address)": "e985e9c5",
    "isOperator(address)": "6d70f7ae",
    "issueCredential(address,bytes32)": "b4e5a8de",
    "name()": "06fdde03",
    "owner()": "8da5cb5b",
    "ownerOf(uint256)": "6352211e",
    "renounceOwnership()": "715018a6",
    "safeTransferFrom(address,address,uint256)": "42842e0e",
    "safeTransferFrom(address,address,uint256,bytes)": "b88d4fde",
    "setApprovalForAll(address,bool)": "a22cb465",
    "setBaseURI(string)": "55f804b3",
    "setOperator(address,bool)": "558a7297",
    "supportsInterface(bytes4)": "01ffc9a7",
    "symbol()": "95d89b41",
    "tokenURI(uint256)": "c87b56dd",
    "totalCredentials()": "1513d62b",
    "transferFrom(address,address,uint256)": "23b872dd",
    "transferOwnership(address)": "f2fde38b",
    "verifyCompletion(address,bytes32)": "5b8b92e6"
  },
  "id": 48
}