{
  "abi": [
    {
      "type": "constructor",
      "inputs": [],
      "stateMutability": "nonpayable"
    },
    {
      "type": "function",
      "name": "approve",
      "inputs": [
        {
          "name": "",
          "type": "address",
          "internalType": "address"
        },
        {
          "name": "",
          "type": "uint256",
          "internalType": "uint256"
        }
      ],
      "outputs": [],
      "stateMutability": "pure"
    },
    {
      "type": "function",
      "name": "balanceOf",
      "inputs": [
        {
          "name": "owner",
          "type": "address",
          "internalType": "address"
        }
      ],
      "outputs": [
        {
          "name": "",
          "type": "uint256",
          "internalType": "uint256"
        }
      ],
      "stateMutability": "view"
    },
    {
      "type": "function",
      "name": "getApproved",
      "inputs": [
        {
          "name": "tokenId",
          "type": "uint256",
          "internalType": "uint256"
        }
      ],
      "outputs": [
        {
          "name": "",
          "type": "address",
          "internalType": "address"
        }
      ],
      "stateMutability": "view"
    },
    {
      "type": "function",
      "name": "getCredentialToken",
      "inputs": [
        {
          "name": "user",
          "type": "address",
          "internalType": "address"
        },
        {
          "name": "programId",
          "type": "bytes32",
          "internalType": "bytes32"
        }
      ],
      "outputs": [
        {
          "name": "",
          "type": "uint256",
          "internalType": "uint256"
        }
      ],
      "stateMutability": "view"
    },
    {
      "type": "function",
      "name": "getProgramId",
      "inputs": [
        {
          "name": "tokenId",
          "type": "uint256",
          "internalType": "uint256"
        }
      ],
      "outputs": [
        {
          "name": "",
          "type": "bytes32",
          "internalType": "bytes32"
        }
      ],
      "stateMutability": "view"
    },
    {
      "type": "function",
      "name": "getUserStatus",
      "inputs": [
        {
          "name": "user",
          "type": "address",
          "internalType": "address"
        },
        {
          "name": "programId",
          "type": "bytes32",
          "internalType": "bytes32"
        }
      ],
      "outputs": [
        {
          "name": "completed",
          "type": "bool",
          "internalType": "bool"
        },
        {
          "name": "tokenId",
          "type": "uint256",
          "internalType": "uint256"
        },
        {
          "name": "issuedAt",
          "type": "uint256",
          "internalType": "uint256"
        }
      ],
      "stateMutability": "view"
    },
    {
      "type": "function",
      "name": "hasCredential",
      "inputs": [
        {
          "name": "user",
          "type": "address",
          "internalType": "address"
        },
        {
          "name": "programId",
          "type": "bytes32",
          "internalType": "bytes32"
        }
      ],
      "outputs": [
        {
          "name": "",
          "type": "bool",
          "internalType": "bool"
        }
      ],
      "stateMutability": "view"
    },
    {
      "type": "function",
      "name": "isApprovedForAll",
      "inputs": [
        {
          "name": "owner",
          "type": "address",
          "internalType": "address"
        },
        {
          "name": "operator",
          "type": "address",
          "internalType": "address"
        }
      ],
      "outputs": [
        {
          "name": "",
          "type": "bool",
          "internalType": "bool"
        }
      ],
      "stateMutability": "view"
    },
    {
      "type": "function",
      "name": "isOperator",
      "inputs": [
        {
          "name": "operator",
          "type": "address",
          "internalType": "address"
        }
      ],
      "outputs": [
        {
          "name": "",
          "type": "bool",
          "internalType": "bool"
        }
      ],
      "stateMutability": "view"
    },
    {
      "type": "function",
      "name": "issueCredential",
      "inputs": [
        {
          "name": "user",
          "type": "address",
          "internalType": "address"
        },
        {
          "name": "programId",
          "type": "bytes32",
          "internalType": "bytes32"
        }
      ],
      "outputs": [
        {
          "name": "",
          "type": "uint256",
          "internalType": "uint256"
        }
      ],
      "stateMutability": "nonpayable"
    },
    {
      "type": "function",
      "name": "name",
      "inputs": [],
      "outputs": [
        {
          "name": "",
          "type": "string",
          "internalType": "string"
        }
      ],
      "stateMutability": "view"
    },
    {
      "type": "function",
      "name": "owner",
      "inputs": [],
      "outputs": [
        {
          "name": "",
          "type": "address",
          "internalType": "address"
        }
      ],
      "stateMutability": "view"
    },
    {
      "type": "function",
      "name": "ownerOf",
      "inputs": [
        {
          "name": "tokenId",
          "type": "uint256",
          "internalType": "uint256"
        }
      ],
      "outputs": [
        {
          "name": "",
          "type": "address",
          "internalType": "address"
        }
      ],
      "stateMutability": "view"
    },
    {
      "type": "function",
      "name": "renounceOwnership",
      "inputs": [],
      "outputs": [],
      "stateMutability": "nonpayable"
    },
    {
      "type": "function",
      "name": "safeTransferFrom",
      "inputs": [
        {
          "name": "from",
          "type": "address",
          "internalType": "address"
        },
        {
          "name": "to",
          "type": "address",
          "internalType": "address"
        },
        {
          "name": "tokenId",
          "type": "uint256",
          "internalType": "uint256"
        }
      ],
      "outputs": [],
      "stateMutability": "nonpayable"
    },
    {
      "type": "function",
      "name": "safeTransferFrom",
      "inputs": [
        {
          "name": "from",
          "type": "address",
          "internalType": "address"
        },
        {
          "name": "to",
          "type": "address",
          "internalType": "address"
        },
        {
          "name": "tokenId",
          "type": "uint256",
          "internalType": "uint256"
        },
        {
          "name": "data",
          "type": "bytes",
          "internalType": "bytes"
        }
      ],
      "outputs": [],
      "stateMutability": "nonpayable"
    },
    {
      "type": "function",
      "name": "setApprovalForAll",
      "inputs": [
        {
          "name": "",
          "type": "address",
          "internalType": "address"
        },
        {
          "name": "",
          "type": "bool",
          "internalType": "bool"
        }
      ],
      "outputs": [],
      "stateMutability": "pure"
    },
    {
      "type": "function",
      "name": "setBaseURI",
      "inputs": [
        {
          "name": "baseURI",
          "type": "string",
          "internalType": "string"
        }
      ],
      "outputs": [],
      "stateMutability": "nonpayable"
    },
    {
      "type": "function",
      "name": "setOperator",
      "inputs": [
        {
          "name": "operator",
          "type": "address",
          "internalType": "address"
        },
        {
          "name": "status",
          "type": "bool",
          "internalType": "bool"
        }
      ],
      "outputs": [],
      "stateMutability": "nonpayable"
    },
    {
      "type": "function",
      "name": "setTokenURI",
      "inputs": [
        {
          "name": "tokenId",
          "type": "uint256",
          "internalType": "uint256"
        },
        {
          "name": "newTokenURI",
          "type": "string",
          "internalType": "string"
        }
      ],
      "outputs": [],
      "stateMutability": "nonpayable"
    },
    {
      "type": "function",
      "name": "supportsInterface",
      "inputs": [
        {
          "name": "interfaceId",
          "type": "bytes4",
          "internalType": "bytes4"
        }
      ],
      "outputs": [
        {
          "name": "",
          "type": "bool",
          "internalType": "bool"
        }
      ],
      "stateMutability": "view"
    },
    {
      "type": "function",
      "name": "symbol",
      "inputs": [],
      "outputs": [
        {
          "name": "",
          "type": "string",
          "internalType": "string"
        }
      ],
      "stateMutability": "view"
    },
    {
      "type": "function",
      "name": "tokenURI",
      "inputs": [
        {
          "name": "tokenId",
          "type": "uint256",
          "internalType": "uint256"
        }
      ],
      "outputs": [
        {
          "name": "",
          "type": "string",
          "internalType": "string"
        }
      ],
      "stateMutability": "view"
    },
    {
      "type": "function",
      "name": "totalCredentials",
      "inputs": [],
      "outputs": [
        {
          "name": "",
          "type": "uint256",
          "internalType": "uint256"
        }
      ],
      "stateMutability": "view"
    },
    {
      "type": "function",
      "name": "transferFrom",
      "inputs": [
        {
          "name": "from",
          "type": "address",
          "internalType": "address"
        },
        {
          "name": "to",
          "type": "address",
          "internalType": "address"
        },
        {
          "name": "tokenId",
          "type": "uint256",
          "internalType": "uint256"
        }
      ],
      "outputs": [],
      "stateMutability": "nonpayable"
    },
    {
      "type": "function",
      "name": "transferOwnership",
      "inputs": [
        {
          "name": "newOwner",
          "type": "address",
          "internalType": "address"
        }
      ],
      "outputs": [],
      "stateMutability": "nonpayable"
    },
    {
      "type": "function",
      "name": "verifyCompletion",
      "inputs": [
        {
          "name": "user",
          "type": "address",
          "internalType": "address"
        },
        {
          "name": "programId",
          "type": "bytes32",
          "internalType": "bytes32"
        }
      ],
      "outputs": [
        {
          "name": "completed",
          "type": "bool",
          "internalType": "bool"
        }
      ],
      "stateMutability": "view"
    },
    {
      "type": "event",
      "name": "Approval",
      "inputs": [
        {
          "name": "owner",
          "type": "address",
          "indexed": true,
          "internalType": "address"
        },
        {
          "name": "approved",
          "type": "address",
          "indexed": true,
          "internalType": "address"
        },
        {
          "name": "tokenId",
          "type": "uint256",
          "indexed": true,
          "internalType": "uint256"
        }
      ],
      "anonymous": false
    },
    {
      "type": "event",
      "name": "ApprovalForAll",
      "inputs": [
        {
          "name": "owner",
          "type": "address",
          "indexed": true,
          "internalType": "address"
        },
        {
          "name": "operator",
          "type": "address",
          "indexed": true,
          "internalType": "address"
        },
        {
          "name": "approved",
          "type": "bool",
          "indexed": false,
          "internalType": "bool"
        }
      ],
      "anonymous": false
    },
    {
      "type": "event",
      "name": "BaseURIUpdated",
      "inputs": [
        {
          "name": "newBaseURI",
          "type": "string",
          "indexed": false,
          "internalType": "string"
        }
      ],
      "anonymous": false
    },
    {
      "type": "event",
      "name": "CredentialIssued",
      "inputs": [
        {
          "name": "user",
          "type": "address",
          "indexed": true,
          "internalType": "address"
        },
        {
          "name": "programId",
          "type": "bytes32",
          "indexed": true,
          "internalType": "bytes32"
        },
        {
          "name": "tokenId",
          "type": "uint256",
          "indexed": false,
          "internalType": "uint256"
        }
      ],
      "anonymous": false
    },
    {
      "type": "event",
      "name": "OperatorUpdated",
      "inputs": [
        {
          "name": "operator",
          "type": "address",
          "indexed": true,
          "internalType": "address"
        },
        {
          "name": "status",
          "type": "bool",
          "indexed": false,
          "internalType": "bool"
        }
      ],
      "anonymous": false
    },
    {
      "type": "event",
      "name": "OwnershipTransferred",
      "inputs": [
        {
          "name": "previousOwner",
          "type": "address",
          "indexed": true,
          "internalType": "address"
        },
        {
          "name": "newOwner",
          "type": "address",
          "indexed": true,
          "internalType": "address"
        }
      ],
      "anonymous": false
    },
    {
      "type": "event",
      "name": "TokenURIUpdated",
      "inputs": [
        {
          "name": "tokenId",
          "type": "uint256",
          "indexed": true,
          "internalType": "uint256"
        },
        {
          "name": "tokenURI",
          "type": "string",
          "indexed": false,
          "internalType": "string"
        }
      ],
      "anonymous": false
    },
    {
      "type": "event",
      "name": "Transfer",
      "inputs": [
        {
          "name": "from",
          "type": "address",
          "indexed": true,
          "internalType": "address"
        },
        {
          "name": "to",
          "type": "address",
          "indexed": true,
          "internalType": "address"
        },
        {
          "name": "tokenId",
          "type": "uint256",
          "indexed": true,
          "internalType": "uint256"
        }
      ],
      "anonymous": false
    },
    {
      "type": "error",
      "name": "AlreadyCompleted",
      "inputs": []
    },
    {
      "type": "error",
      "name": "ERC721IncorrectOwner",
      "inputs": [
        {
          "name": "sender",
          "type": "address",
          "internalType": "address"
        },
        {
          "name": "tokenId",
          "type": "uint256",
          "internalType": "uint256"
        },
        {
          "name": "owner",
          "type": "address",
          "internalType": "address"
        }
      ]
    },
    {
      "type": "error",
      "name": "ERC721InsufficientApproval",
      "inputs": [
        {
          "name": "operator",
          "type": "address",
          "internalType": "address"
        },
        {
          "name": "tokenId",
          "type": "uint256",
          "internalType": "uint256"
        }
      ]
    },
    {
      "type": "error",
      "name": "ERC721InvalidApprover",
      "inputs": [
        {
          "name": "approver",
          "type": "address",
          "internalType": "address"
        }
      ]
    },
    {
      "type": "error",
      "name": "ERC721InvalidOperator",
      "inputs": [
        {
          "name": "operator",
          "type": "address",
          "internalType": "address"
        }
      ]
    },
    {
      "type": "error",
      "name": "ERC721InvalidOwner",
      "inputs": [
        {
          "name": "owner",
          "type": "address",
          "internalType": "address"
        }
      ]
    },
    {
      "type": "error",
      "name": "ERC721InvalidReceiver",
      "inputs": [
        {
          "name": "receiver",
          "type": "address",
          "internalType": "address"
        }
      ]
    },
    {
      "type": "error",
      "name": "ERC721InvalidSender",
      "inputs": [
        {
          "name": "sender",
          "type": "address",
          "internalType": "address"
        }
      ]
    },
    {
      "type": "error",
      "name": "ERC721NonexistentToken",
      "inputs": [
        {
          "name": "tokenId",
          "type": "uint256",
          "internalType": "uint256"
        }
      ]
    },
    {
      "type": "error",
      "name": "InvalidAddress",
      "inputs": []
    },
    {
      "type": "error",
      "name": "InvalidProgram",
      "inputs": []
    },
    {
      "type": "error",
      "name": "NonTransferableToken",
      "inputs": []
    },
    {
      "type": "error",
      "name": "OwnableInvalidOwner",
      "inputs": [
        {
          "name": "owner",
          "type": "address",
          "internalType": "address"
        }
      ]
    },
    {
      "type": "error",
      "name": "OwnableUnauthorizedAccount",
      "inputs": [
        {
          "name": "account",
          "type": "address",
          "internalType": "address"
        }
      ]
    },
    {
      "type": "error",
      "name": "UnauthorizedAction",
      "inputs": []
    }
  ],
  "bytecode": {
    "object": "0x608060405234801562000010575f80fd5b50336040518060400160405280601b81526020017f4b617374757269204c6561726e696e672043726564656e7469616c00000000008152506040518060400160405280600b81526020017f4b4153545552492d534254000000000000000000000000000000000000000000815250815f90816200008e91906200045d565b508060019081620000a091906200045d565b5050505f73ffffffffffffffffffffffffffffffffffffffff168173ffffffffffffffffffffffffffffffffffffffff160362000116575f6040517f1e4fbdf70000000000000000000000000000000000000000000000000000000081526004016200010d919062000584565b60405180910390fd5b62000127816200013660201b60201c565b5060016007819055506200059f565b5f60065f9054906101000a900473ffffffffffffffffffffffffffffffffffffffff1690508160065f6101000a81548173ffffffffffffffffffffffffffffffffffffffff021916908373ffffffffffffffffffffffffffffffffffffffff1602179055508173ffffffffffffffffffffffffffffffffffffffff168173ffffffffffffffffffffffffffffffffffffffff167f8be0079c531659141344cd1fd0a4f28419497f9722a3daafe3b4186f6b6457e060405160405180910390a35050565b5f81519050919050565b7f4e487b71000000000000000000000000000000000000000000000000000000005f52604160045260245ffd5b7f4e487b71000000000000000000000000000000000000000000000000000000005f52602260045260245ffd5b5f60028204905060018216806200027557607f821691505b6020821081036200028b576200028a62000230565b5b50919050565b5f819050815f5260205f209050919050565b5f6020601f8301049050919050565b5f82821b905092915050565b5f60088302620002ef7fffffffffffffffffffffffffffffffffffffffffffffffffffffffffffffffff82620002b2565b620002fb8683620002b2565b95508019841693508086168417925050509392505050565b5f819050919050565b5f819050919050565b5f620003456200033f620003398462000313565b6200031c565b62000313565b9050919050565b5f819050919050565b620003608362000325565b620003786200036f826200034c565b848454620002be565b825550505050565b5f90565b6200038e62000380565b6200039b81848462000355565b505050565b5b81811015620003c257620003b65f8262000384565b600181019050620003a1565b5050565b601f8211156200041157620003db8162000291565b620003e684620002a3565b81016020851015620003f6578190505b6200040e6200040585620002a3565b830182620003a0565b50505b505050565b5f82821c905092915050565b5f620004335f198460080262000416565b1980831691505092915050565b5f6200044d838362000422565b9150826002028217905092915050565b6200046882620001f9565b67ffffffffffffffff81111562000484576200048362000203565b5b6200049082546200025d565b6200049d828285620003c6565b5f60209050601f831160018114620004d3575f8415620004be578287015190505b620004ca858262000440565b86555062000539565b601f198416620004e38662000291565b5f5b828110156200050c57848901518255600182019150602085019450602081019050620004e5565b868310156200052c578489015162000528601f89168262000422565b8355505b6001600288020188555050505b505050505050565b5f73ffffffffffffffffffffffffffffffffffffffff82169050919050565b5f6200056c8262000541565b9050919050565b6200057e8162000560565b82525050565b5f602082019050620005995f83018462000573565b92915050565b612feb80620005ad5f395ff3fe608060405234801561000f575f80fd5b50600436106101a7575f3560e01c80636d70f7ae116100f7578063a22cb46511610095578063c87b56dd1161006f578063c87b56dd146104ef578063e985e9c51461051f578063f2fde38b1461054f578063fa21e3141461056b576101a7565b8063a22cb46514610487578063b4e5a8de146104a3578063b88d4fde146104d3576101a7565b806389b125fa116100d157806389b125fa146103eb5780638da5cb5b1461041b57806395d89b41146104395780639db416bf14610457576101a7565b80636d70f7ae1461038157806370a08231146103b1578063715018a6146103e1576101a7565b806323b872dd11610164578063558a72971161013e578063558a7297146102e957806355f804b3146103055780635b8b92e6146103215780636352211e14610351576101a7565b806323b872dd1461027f5780632a48198e1461029b57806342842e0e146102cd576101a7565b806301ffc9a7146101ab57806306fdde03146101db578063081812fc146101f9578063095ea7b3146102295780631513d62b14610245578063162094c414610263575b5f80fd5b6101c560048036038101906101c09190612340565b61059b565b6040516101d29190612385565b60405180910390f35b6101e361067c565b6040516101f09190612428565b60405180910390f35b610213600480360381019061020e919061247b565b61070b565b60405161022091906124e5565b60405180910390f35b610243600480360381019061023e9190612528565b610726565b005b61024d610758565b60405161025a9190612575565b60405180910390f35b61027d600480360381019061027891906125ef565b61076d565b005b6102996004803603810190610294919061264c565b6108fb565b005b6102b560048036038101906102b091906126cf565b6109fa565b6040516102c49392919061270d565b60405180910390f35b6102e760048036038101906102e2919061264c565b610a79565b005b61030360048036038101906102fe919061276c565b610a98565b005b61031f600480360381019061031a91906127aa565b610bab565b005b61033b600480360381019061033691906126cf565b610c02565b6040516103489190612385565b60405180910390f35b61036b6004803603810190610366919061247b565b610c5b565b60405161037891906124e5565b60405180910390f35b61039b600480360381019061039691906127f5565b610c6c565b6040516103a89190612385565b60405180910390f35b6103cb60048036038101906103c691906127f5565b610cbe565b6040516103d89190612575565b60405180910390f35b6103e9610d74565b005b6104056004803603810190610400919061247b565b610d87565b604051610412919061282f565b60405180910390f35b610423610da1565b60405161043091906124e5565b60405180910390f35b610441610dc9565b60405161044e9190612428565b60405180910390f35b610471600480360381019061046c91906126cf565b610e59565b60405161047e9190612385565b60405180910390f35b6104a1600480360381019061049c919061276c565b610eb2565b005b6104bd60048036038101906104b891906126cf565b610ee4565b6040516104ca9190612575565b60405180910390f35b6104ed60048036038101906104e89190612970565b6111c8565b005b6105096004803603810190610504919061247b565b6111ed565b6040516105169190612428565b60405180910390f35b610539600480360381019061053491906129f0565b611368565b6040516105469190612385565b60405180910390f35b610569600480360381019061056491906127f5565b6113f6565b005b610585600480360381019061058091906126cf565b61147a565b6040516105929190612575565b60405180910390f35b5f7f80ac58cd000000000000000000000000000000000000000000000000000000007bffffffffffffffffffffffffffffffffffffffffffffffffffffffff1916827bffffffffffffffffffffffffffffffffffffffffffffffffffffffff1916148061066557507f5b5e139f000000000000000000000000000000000000000000000000000000007bffffffffffffffffffffffffffffffffffffffffffffffffffffffff1916827bffffffffffffffffffffffffffffffffffffffffffffffffffffffff1916145b806106755750610674826114d0565b5b9050919050565b60605f805461068a90612a5b565b80601f01602080910402602001604051908101604052809291908181526020018280546106b690612a5b565b80156107015780601f106106d857610100808354040283529160200191610701565b820191905f5260205f20905b8154815290600101906020018083116106e457829003601f168201915b5050505050905090565b5f61071582611539565b5061071f826115bf565b9050919050565b6040517f30d4e75d00000000000000000000000000000000000000000000000000000000815260040160405180910390fd5b5f60016007546107689190612ab8565b905090565b610775610da1565b73ffffffffffffffffffffffffffffffffffffffff163373ffffffffffffffffffffffffffffffffffffffff16141580156107f7575060085f3373ffffffffffffffffffffffffffffffffffffffff1673ffffffffffffffffffffffffffffffffffffffff1681526020019081526020015f205f9054906101000a900460ff16155b1561082e576040517f843800fa00000000000000000000000000000000000000000000000000000000815260040160405180910390fd5b5f73ffffffffffffffffffffffffffffffffffffffff1661084e846115f8565b73ffffffffffffffffffffffffffffffffffffffff160361089b576040517f22d55eab00000000000000000000000000000000000000000000000000000000815260040160405180910390fd5b8181600d5f8681526020019081526020015f2091826108bb929190612c92565b50827f931f495b9a8e5d8e61946ea5d61e021f636cfe213a801f97589c18c152e408bd83836040516108ee929190612d8b565b60405180910390a2505050565b5f73ffffffffffffffffffffffffffffffffffffffff168273ffffffffffffffffffffffffffffffffffffffff160361096b575f6040517f64a0ae9200000000000000000000000000000000000000000000000000000000815260040161096291906124e5565b60405180910390fd5b5f61097e8383610979611631565b611638565b90508373ffffffffffffffffffffffffffffffffffffffff168173ffffffffffffffffffffffffffffffffffffffff16146109f4578382826040517f64283d7b0000000000000000000000000000000000000000000000000000000081526004016109eb93929190612dad565b60405180910390fd5b50505050565b5f805f60095f8673ffffffffffffffffffffffffffffffffffffffff1673ffffffffffffffffffffffffffffffffffffffff1681526020019081526020015f205f8581526020019081526020015f205491505f821415925082610a5d575f610a70565b600b5f8381526020019081526020015f20545b90509250925092565b610a9383838360405180602001604052805f8152506111c8565b505050565b610aa06116f9565b5f73ffffffffffffffffffffffffffffffffffffffff168273ffffffffffffffffffffffffffffffffffffffff1603610b05576040517fe6c4247b00000000000000000000000000000000000000000000000000000000815260040160405180910390fd5b8060085f8473ffffffffffffffffffffffffffffffffffffffff1673ffffffffffffffffffffffffffffffffffffffff1681526020019081526020015f205f6101000a81548160ff0219169083151502179055508173ffffffffffffffffffffffffffffffffffffffff167f966c160e1c4dbc7df8d69af4ace01e9297c3cf016397b7914971f2fbfa32672d82604051610b9f9190612385565b60405180910390a25050565b610bb36116f9565b8181600c9182610bc4929190612c92565b507f6741b2fc379fad678116fe3d4d4b9a1a184ab53ba36b86ad0fa66340b1ab41ad8282604051610bf6929190612d8b565b60405180910390a15050565b5f8060095f8573ffffffffffffffffffffffffffffffffffffffff1673ffffffffffffffffffffffffffffffffffffffff1681526020019081526020015f205f8481526020019081526020015f20541415905092915050565b5f610c6582611539565b9050919050565b5f60085f8373ffffffffffffffffffffffffffffffffffffffff1673ffffffffffffffffffffffffffffffffffffffff1681526020019081526020015f205f9054906101000a900460ff169050919050565b5f8073ffffffffffffffffffffffffffffffffffffffff168273ffffffffffffffffffffffffffffffffffffffff1603610d2f575f6040517f89c62b64000000000000000000000000000000000000000000000000000000008152600401610d2691906124e5565b60405180910390fd5b60035f8373ffffffffffffffffffffffffffffffffffffffff1673ffffffffffffffffffffffffffffffffffffffff1681526020019081526020015f20549050919050565b610d7c6116f9565b610d855f611780565b565b5f600a5f8381526020019081526020015f20549050919050565b5f60065f9054906101000a900473ffffffffffffffffffffffffffffffffffffffff16905090565b606060018054610dd890612a5b565b80601f0160208091040260200160405190810160405280929190818152602001828054610e0490612a5b565b8015610e4f5780601f10610e2657610100808354040283529160200191610e4f565b820191905f5260205f20905b815481529060010190602001808311610e3257829003601f168201915b5050505050905090565b5f8060095f8573ffffffffffffffffffffffffffffffffffffffff1673ffffffffffffffffffffffffffffffffffffffff1681526020019081526020015f205f8481526020019081526020015f20541415905092915050565b6040517f30d4e75d00000000000000000000000000000000000000000000000000000000815260040160405180910390fd5b5f610eed610da1565b73ffffffffffffffffffffffffffffffffffffffff163373ffffffffffffffffffffffffffffffffffffffff1614158015610f6f575060085f3373ffffffffffffffffffffffffffffffffffffffff1673ffffffffffffffffffffffffffffffffffffffff1681526020019081526020015f205f9054906101000a900460ff16155b15610fa6576040517f843800fa00000000000000000000000000000000000000000000000000000000815260040160405180910390fd5b5f73ffffffffffffffffffffffffffffffffffffffff168373ffffffffffffffffffffffffffffffffffffffff160361100b576040517fe6c4247b00000000000000000000000000000000000000000000000000000000815260040160405180910390fd5b5f801b8203611046576040517f22d55eab00000000000000000000000000000000000000000000000000000000815260040160405180910390fd5b5f60095f8573ffffffffffffffffffffffffffffffffffffffff1673ffffffffffffffffffffffffffffffffffffffff1681526020019081526020015f205f8481526020019081526020015f2054146110cb576040517f195332a500000000000000000000000000000000000000000000000000000000815260040160405180910390fd5b5f600754905060075f8154809291906110e390612de2565b91905055506110f28482611843565b8060095f8673ffffffffffffffffffffffffffffffffffffffff1673ffffffffffffffffffffffffffffffffffffffff1681526020019081526020015f205f8581526020019081526020015f208190555082600a5f8381526020019081526020015f208190555042600b5f8381526020019081526020015f2081905550828473ffffffffffffffffffffffffffffffffffffffff167f266d5d1db5669b001451ba44353e35547ee39964af029c43340fe64dd3f9ee6d836040516111b69190612575565b60405180910390a38091505092915050565b6111d38484846108fb565b6111e76111de611631565b85858585611936565b50505050565b60605f73ffffffffffffffffffffffffffffffffffffffff1661120f836115f8565b73ffffffffffffffffffffffffffffffffffffffff160361125c576040517f22d55eab00000000000000000000000000000000000000000000000000000000815260040160405180910390fd5b5f600d5f8481526020019081526020015f20805461127990612a5b565b80601f01602080910402602001604051908101604052809291908181526020018280546112a590612a5b565b80156112f05780601f106112c7576101008083540402835291602001916112f0565b820191905f5260205f20905b8154815290600101906020018083116112d357829003601f168201915b505050505090505f815111156113095780915050611363565b5f611312611ae2565b90505f8151036113345760405180602001604052805f81525092505050611363565b8061133e85611b72565b60405160200161134f929190612e63565b604051602081830303815290604052925050505b919050565b5f60055f8473ffffffffffffffffffffffffffffffffffffffff1673ffffffffffffffffffffffffffffffffffffffff1681526020019081526020015f205f8373ffffffffffffffffffffffffffffffffffffffff1673ffffffffffffffffffffffffffffffffffffffff1681526020019081526020015f205f9054906101000a900460ff16905092915050565b6113fe6116f9565b5f73ffffffffffffffffffffffffffffffffffffffff168173ffffffffffffffffffffffffffffffffffffffff160361146e575f6040517f1e4fbdf700000000000000000000000000000000000000000000000000000000815260040161146591906124e5565b60405180910390fd5b61147781611780565b50565b5f60095f8473ffffffffffffffffffffffffffffffffffffffff1673ffffffffffffffffffffffffffffffffffffffff1681526020019081526020015f205f8381526020019081526020015f2054905092915050565b5f7f01ffc9a7000000000000000000000000000000000000000000000000000000007bffffffffffffffffffffffffffffffffffffffffffffffffffffffff1916827bffffffffffffffffffffffffffffffffffffffffffffffffffffffff1916149050919050565b5f80611544836115f8565b90505f73ffffffffffffffffffffffffffffffffffffffff168173ffffffffffffffffffffffffffffffffffffffff16036115b657826040517f7e2732890000000000000000000000000000000000000000000000000000000081526004016115ad9190612575565b60405180910390fd5b80915050919050565b5f60045f8381526020019081526020015f205f9054906101000a900473ffffffffffffffffffffffffffffffffffffffff169050919050565b5f60025f8381526020019081526020015f205f9054906101000a900473ffffffffffffffffffffffffffffffffffffffff169050919050565b5f33905090565b5f80611643846115f8565b90505f73ffffffffffffffffffffffffffffffffffffffff168173ffffffffffffffffffffffffffffffffffffffff16141580156116ad57505f73ffffffffffffffffffffffffffffffffffffffff168573ffffffffffffffffffffffffffffffffffffffff1614155b156116e4576040517f30d4e75d00000000000000000000000000000000000000000000000000000000815260040160405180910390fd5b6116ef858585611c3c565b9150509392505050565b611701611631565b73ffffffffffffffffffffffffffffffffffffffff1661171f610da1565b73ffffffffffffffffffffffffffffffffffffffff161461177e57611742611631565b6040517f118cdaa700000000000000000000000000000000000000000000000000000000815260040161177591906124e5565b60405180910390fd5b565b5f60065f9054906101000a900473ffffffffffffffffffffffffffffffffffffffff1690508160065f6101000a81548173ffffffffffffffffffffffffffffffffffffffff021916908373ffffffffffffffffffffffffffffffffffffffff1602179055508173ffffffffffffffffffffffffffffffffffffffff168173ffffffffffffffffffffffffffffffffffffffff167f8be0079c531659141344cd1fd0a4f28419497f9722a3daafe3b4186f6b6457e060405160405180910390a35050565b5f73ffffffffffffffffffffffffffffffffffffffff168273ffffffffffffffffffffffffffffffffffffffff16036118b3575f6040517f64a0ae920000000000000000000000000000000000000000000000000000000081526004016118aa91906124e5565b60405180910390fd5b5f6118bf83835f611638565b90505f73ffffffffffffffffffffffffffffffffffffffff168173ffffffffffffffffffffffffffffffffffffffff1614611931575f6040517f73c6ac6e00000000000000000000000000000000000000000000000000000000815260040161192891906124e5565b60405180910390fd5b505050565b5f8373ffffffffffffffffffffffffffffffffffffffff163b1115611adb578273ffffffffffffffffffffffffffffffffffffffff1663150b7a02868685856040518563ffffffff1660e01b81526004016119949493929190612ed8565b6020604051808303815f875af19250505080156119cf57506040513d601f19601f820116820180604052508101906119cc9190612f36565b60015b611a50573d805f81146119fd576040519150601f19603f3d011682016040523d82523d5f602084013e611a02565b606091505b505f815103611a4857836040517f64a0ae92000000000000000000000000000000000000000000000000000000008152600401611a3f91906124e5565b60405180910390fd5b805160208201fd5b63150b7a0260e01b7bffffffffffffffffffffffffffffffffffffffffffffffffffffffff1916817bffffffffffffffffffffffffffffffffffffffffffffffffffffffff191614611ad957836040517f64a0ae92000000000000000000000000000000000000000000000000000000008152600401611ad091906124e5565b60405180910390fd5b505b5050505050565b6060600c8054611af190612a5b565b80601f0160208091040260200160405190810160405280929190818152602001828054611b1d90612a5b565b8015611b685780601f10611b3f57610100808354040283529160200191611b68565b820191905f5260205f20905b815481529060010190602001808311611b4b57829003601f168201915b5050505050905090565b60605f6001611b8084611e47565b0190505f8167ffffffffffffffff811115611b9e57611b9d61284c565b5b6040519080825280601f01601f191660200182016040528015611bd05781602001600182028036833780820191505090505b5090505f82602083010190505b600115611c31578080600190039150507f3031323334353637383961626364656600000000000000000000000000000000600a86061a8153600a8581611c2657611c25612f61565b5b0494505f8503611bdd575b819350505050919050565b5f80611c47846115f8565b90505f73ffffffffffffffffffffffffffffffffffffffff168373ffffffffffffffffffffffffffffffffffffffff1614611c8857611c87818486611f98565b5b5f73ffffffffffffffffffffffffffffffffffffffff168173ffffffffffffffffffffffffffffffffffffffff1614611d1357611cc75f855f8061205b565b600160035f8373ffffffffffffffffffffffffffffffffffffffff1673ffffffffffffffffffffffffffffffffffffffff1681526020019081526020015f205f82825403925050819055505b5f73ffffffffffffffffffffffffffffffffffffffff168573ffffffffffffffffffffffffffffffffffffffff1614611d9257600160035f8773ffffffffffffffffffffffffffffffffffffffff1673ffffffffffffffffffffffffffffffffffffffff1681526020019081526020015f205f82825401925050819055505b8460025f8681526020019081526020015f205f6101000a81548173ffffffffffffffffffffffffffffffffffffffff021916908373ffffffffffffffffffffffffffffffffffffffff160217905550838573ffffffffffffffffffffffffffffffffffffffff168273ffffffffffffffffffffffffffffffffffffffff167fddf252ad1be2c89b69c2b068fc378daa952ba7f163c4a11628f55a4df523b3ef60405160405180910390a4809150509392505050565b5f805f90507a184f03e93ff9f4daa797ed6e38ed64bf6a1f0100000000000000008310611ea3577a184f03e93ff9f4daa797ed6e38ed64bf6a1f0100000000000000008381611e9957611e98612f61565b5b0492506040810190505b6d04ee2d6d415b85acef81000000008310611ee0576d04ee2d6d415b85acef81000000008381611ed657611ed5612f61565b5b0492506020810190505b662386f26fc100008310611f0f57662386f26fc100008381611f0557611f04612f61565b5b0492506010810190505b6305f5e1008310611f38576305f5e1008381611f2e57611f2d612f61565b5b0492506008810190505b6127108310611f5d576127108381611f5357611f52612f61565b5b0492506004810190505b60648310611f805760648381611f7657611f75612f61565b5b0492506002810190505b600a8310611f8f576001810190505b80915050919050565b611fa383838361221a565b612056575f73ffffffffffffffffffffffffffffffffffffffff168373ffffffffffffffffffffffffffffffffffffffff160361201757806040517f7e27328900000000000000000000000000000000000000000000000000000000815260040161200e9190612575565b60405180910390fd5b81816040517f177e802f00000000000000000000000000000000000000000000000000000000815260040161204d929190612f8e565b60405180910390fd5b505050565b808061209357505f73ffffffffffffffffffffffffffffffffffffffff168273ffffffffffffffffffffffffffffffffffffffff1614155b156121c5575f6120a284611539565b90505f73ffffffffffffffffffffffffffffffffffffffff168373ffffffffffffffffffffffffffffffffffffffff161415801561210c57508273ffffffffffffffffffffffffffffffffffffffff168173ffffffffffffffffffffffffffffffffffffffff1614155b801561211f575061211d8184611368565b155b1561216157826040517fa9fbf51f00000000000000000000000000000000000000000000000000000000815260040161215891906124e5565b60405180910390fd5b81156121c357838573ffffffffffffffffffffffffffffffffffffffff168273ffffffffffffffffffffffffffffffffffffffff167f8c5be1e5ebec7d5bd14f71427d1e84f3dd0314c0f7b2291e5b200ac8c7c3b92560405160405180910390a45b505b8360045f8581526020019081526020015f205f6101000a81548173ffffffffffffffffffffffffffffffffffffffff021916908373ffffffffffffffffffffffffffffffffffffffff16021790555050505050565b5f8073ffffffffffffffffffffffffffffffffffffffff168373ffffffffffffffffffffffffffffffffffffffff16141580156122d157508273ffffffffffffffffffffffffffffffffffffffff168473ffffffffffffffffffffffffffffffffffffffff16148061229257506122918484611368565b5b806122d057508273ffffffffffffffffffffffffffffffffffffffff166122b8836115bf565b73ffffffffffffffffffffffffffffffffffffffff16145b5b90509392505050565b5f604051905090565b5f80fd5b5f80fd5b5f7fffffffff0000000000000000000000000000000000000000000000000000000082169050919050565b61231f816122eb565b8114612329575f80fd5b50565b5f8135905061233a81612316565b92915050565b5f60208284031215612355576123546122e3565b5b5f6123628482850161232c565b91505092915050565b5f8115159050919050565b61237f8161236b565b82525050565b5f6020820190506123985f830184612376565b92915050565b5f81519050919050565b5f82825260208201905092915050565b5f5b838110156123d55780820151818401526020810190506123ba565b5f8484015250505050565b5f601f19601f8301169050919050565b5f6123fa8261239e565b61240481856123a8565b93506124148185602086016123b8565b61241d816123e0565b840191505092915050565b5f6020820190508181035f83015261244081846123f0565b905092915050565b5f819050919050565b61245a81612448565b8114612464575f80fd5b50565b5f8135905061247581612451565b92915050565b5f602082840312156124905761248f6122e3565b5b5f61249d84828501612467565b91505092915050565b5f73ffffffffffffffffffffffffffffffffffffffff82169050919050565b5f6124cf826124a6565b9050919050565b6124df816124c5565b82525050565b5f6020820190506124f85f8301846124d6565b92915050565b612507816124c5565b8114612511575f80fd5b50565b5f81359050612522816124fe565b92915050565b5f806040838503121561253e5761253d6122e3565b5b5f61254b85828601612514565b925050602061255c85828601612467565b9150509250929050565b61256f81612448565b82525050565b5f6020820190506125885f830184612566565b92915050565b5f80fd5b5f80fd5b5f80fd5b5f8083601f8401126125af576125ae61258e565b5b8235905067ffffffffffffffff8111156125cc576125cb612592565b5b6020830191508360018202830111156125e8576125e7612596565b5b9250929050565b5f805f60408486031215612606576126056122e3565b5b5f61261386828701612467565b935050602084013567ffffffffffffffff811115612634576126336122e7565b5b6126408682870161259a565b92509250509250925092565b5f805f60608486031215612663576126626122e3565b5b5f61267086828701612514565b935050602061268186828701612514565b925050604061269286828701612467565b9150509250925092565b5f819050919050565b6126ae8161269c565b81146126b8575f80fd5b50565b5f813590506126c9816126a5565b92915050565b5f80604083850312156126e5576126e46122e3565b5b5f6126f285828601612514565b9250506020612703858286016126bb565b9150509250929050565b5f6060820190506127205f830186612376565b61272d6020830185612566565b61273a6040830184612566565b949350505050565b61274b8161236b565b8114612755575f80fd5b50565b5f8135905061276681612742565b92915050565b5f8060408385031215612782576127816122e3565b5b5f61278f85828601612514565b92505060206127a085828601612758565b9150509250929050565b5f80602083850312156127c0576127bf6122e3565b5b5f83013567ffffffffffffffff8111156127dd576127dc6122e7565b5b6127e98582860161259a565b92509250509250929050565b5f6020828403121561280a576128096122e3565b5b5f61281784828501612514565b91505092915050565b6128298161269c565b82525050565b5f6020820190506128425f830184612820565b92915050565b5f80fd5b7f4e487b71000000000000000000000000000000000000000000000000000000005f52604160045260245ffd5b612882826123e0565b810181811067ffffffffffffffff821117156128a1576128a061284c565b5b80604052505050565b5f6128b36122da565b90506128bf8282612879565b919050565b5f67ffffffffffffffff8211156128de576128dd61284c565b5b6128e7826123e0565b9050602081019050919050565b828183375f83830152505050565b5f61291461290f846128c4565b6128aa565b9050828152602081018484840111156129305761292f612848565b5b61293b8482856128f4565b509392505050565b5f82601f8301126129575761295661258e565b5b8135612967848260208601612902565b91505092915050565b5f805f8060808587031215612988576129876122e3565b5b5f61299587828801612514565b94505060206129a687828801612514565b93505060406129b787828801612467565b925050606085013567ffffffffffffffff8111156129d8576129d76122e7565b5b6129e487828801612943565b91505092959194509250565b5f8060408385031215612a0657612a056122e3565b5b5f612a1385828601612514565b9250506020612a2485828601612514565b9150509250929050565b7f4e487b71000000000000000000000000000000000000000000000000000000005f52602260045260245ffd5b5f6002820490506001821680612a7257607f821691505b602082108103612a8557612a84612a2e565b5b50919050565b7f4e487b71000000000000000000000000000000000000000000000000000000005f52601160045260245ffd5b5f612ac282612448565b9150612acd83612448565b9250828203905081811115612ae557612ae4612a8b565b5b92915050565b5f82905092915050565b5f819050815f5260205f209050919050565b5f6020601f8301049050919050565b5f82821b905092915050565b5f60088302612b517fffffffffffffffffffffffffffffffffffffffffffffffffffffffffffffffff82612b16565b612b5b8683612b16565b95508019841693508086168417925050509392505050565b5f819050919050565b5f612b96612b91612b8c84612448565b612b73565b612448565b9050919050565b5f819050919050565b612baf83612b7c565b612bc3612bbb82612b9d565b848454612b22565b825550505050565b5f90565b612bd7612bcb565b612be2818484612ba6565b505050565b5b81811015612c0557612bfa5f82612bcf565b600181019050612be8565b5050565b601f821115612c4a57612c1b81612af5565b612c2484612b07565b81016020851015612c33578190505b612c47612c3f85612b07565b830182612be7565b50505b505050565b5f82821c905092915050565b5f612c6a5f1984600802612c4f565b1980831691505092915050565b5f612c828383612c5b565b9150826002028217905092915050565b612c9c8383612aeb565b67ffffffffffffffff811115612cb557612cb461284c565b5b612cbf8254612a5b565b612cca828285612c09565b5f601f831160018114612cf7575f8415612ce5578287013590505b612cef8582612c77565b865550612d56565b601f198416612d0586612af5565b5f5b82811015612d2c57848901358255600182019150602085019450602081019050612d07565b86831015612d495784890135612d45601f891682612c5b565b8355505b6001600288020188555050505b50505050505050565b5f612d6a83856123a8565b9350612d778385846128f4565b612d80836123e0565b840190509392505050565b5f6020820190508181035f830152612da4818486612d5f565b90509392505050565b5f606082019050612dc05f8301866124d6565b612dcd6020830185612566565b612dda60408301846124d6565b949350505050565b5f612dec82612448565b91507fffffffffffffffffffffffffffffffffffffffffffffffffffffffffffffffff8203612e1e57612e1d612a8b565b5b600182019050919050565b5f81905092915050565b5f612e3d8261239e565b612e478185612e29565b9350612e578185602086016123b8565b80840191505092915050565b5f612e6e8285612e33565b9150612e7a8284612e33565b91508190509392505050565b5f81519050919050565b5f82825260208201905092915050565b5f612eaa82612e86565b612eb48185612e90565b9350612ec48185602086016123b8565b612ecd816123e0565b840191505092915050565b5f608082019050612eeb5f8301876124d6565b612ef860208301866124d6565b612f056040830185612566565b8181036060830152612f178184612ea0565b905095945050505050565b5f81519050612f3081612316565b92915050565b5f60208284031215612f4b57612f4a6122e3565b5b5f612f5884828501612f22565b91505092915050565b7f4e487b71000000000000000000000000000000000000000000000000000000005f52601260045260245ffd5b5f604082019050612fa15f8301856124d6565b612fae6020830184612566565b939250505056fea2646970667358221220bc676f32de2d67ab490f872a58005937522834f7a022379de764cbecc603218964736f6c63430008180033",
    "linkReferences": {}
  },
  "methodIdentifiers": {
    "approve(address,uint256)": "095ea7b3",
    "balanceOf(address)": "70a08231",
    "getApproved(uint256)": "081812fc",
    "getCredentialToken(address,bytes32)": "fa21e314",
    "getProgramId(uint256)": "89b125fa",
    "getUserStatus(address,bytes32)": "2a48198e",
    "hasCredential(address,bytes32)": "9db416bf",
    "isApprovedForAll(address,address)": "e985e9c5",
    "isOperator(address)": "6d70f7ae",
    "issueCredential(address,bytes32)": "b4e5a8de",
    "name()": "06fdde03",
    "owner()": "8da5cb5b",
    "ownerOf(uint256)": "6352211e",
    "renounceOwnership()": "715018a6",
    "safeTransferFrom(address,address,uint256)": "42842e0e",
    "safeTransferFrom(address,address,uint256,bytes)": "b88d4fde",
    "setApprovalForAll(address,bool)": "a22cb465",
    "setBaseURI(string)": "55f804b3",
    "setOperator(address,bool)": "558a7297",
    "setTokenURI(uint256,string)": "162094c4",
    "supportsInterface(bytes4)": "01ffc9a7",
    "symbol()": "95d89b41",
    "tokenURI(uint256)": "c87b56dd",
    "totalCredentials()": "1513d62b",
    "transferFrom(address,address,uint256)": "23b872dd",
    "transferOwnership(address)": "f2fde38b",
    "verifyCompletion(address,bytes32)": "5b8b92e6"
  },
  "id": 48
}